:02000004C0DE5C
:1000000010B5044662B609F046FE3CB12068B0F572
:10001000807F07D1204608F001FD01E008F0C8FC10
:10002000002010BD08F0B4FC70B58AB00C4605463F
:100030006846202116460BF069F814B9012009F032
:1000400027FE142E0AD3402001210990681C6D461A
:10005000089008A82A4609F0D5FD08B1002006E05E
:1000600005F10C01204614220BF053F801200AB0D0
:1000700070BD1FB5044610B9012009F009FE2078B3
:10008000E02843D100200390CDE9010060781528D5
:100090003FD0042847D0052851D0062865D007282E
:1000A00071D0082879D0092800F080800A2800F053
:1000B00086800B2800F08C800C2800F092800D28A0
:1000C00000F098800E2800F09E800F2800F0A48099
:1000D000102800F0AA80112800F0AF80122800F04C
:1000E000B480132800F0B980142800F0BE800328E3
:1000F00040F0C380A078002840F0D480E078002849
:1001000040F0D080BDE81F4000F08BB94FF4DC40D8
:10011000CAE0A068002800F0C28000F0CFF801A873
:1001200000F0C8FFB9E0A078002840F0BB80E0787C
:10013000002840F0B780BDE81F4000F00DB9A1785D
:10014000012900F2AF80E078002840F0AB80A06881
:10015000002800F0A480019020790029029018BFA7
:10016000012101A800F00CF997E0A178002900F026
:100170008780032900F29680E07840F08002802A90
:1001800000F082808EE0A068002800F0888000F0F7
:1001900095F801A800F04CFA7FE0A06800287ED016
:1001A00000F08CF801A800F00CFA76E0A0680028B6
:1001B00075D000F083F801A800F0A2FA6DE0A06805
:1001C00000286CD000F07AF801A800F001FC64E08F
:1001D000A068002863D000F071F801A800F05CFB73
:1001E0005BE0A06800285AD000F068F801A800F091
:1001F00095FB52E0A068002851D000F05FF801A8FC
:1002000000F004FB49E0A068002848D000F056F850
:1002100001A800F051FC40E0A06800283FD000F0A9
:100220004DF8BDE81F4000F021BAA068B8B300F057
:1002300045F801A800F0F6FC2FE0A06878B300F0C4
:100240003DF801A800F0A3FD27E0A06838B300F056
:1002500035F801A800F064FE1FE0A068F8B100F0D6
:100260002DF801A800F0ACFE17E0A068B8B100F0CE
:1002700025F801A800F0DAFE0FE04FF4DA4013E0B1
:10028000E07880280ED18020A26842B101922279C4
:100290000292C20901A800F0DBF804B010BD46F6D6
:1002A000872001E046F6862004B0BDE8104000F04B
:1002B00000B802460020002108F0FABA0190207927
:1002C00002907047BFB508F0CBFA1E4819F800003D
:1002D00008B901F001FA1C484FF4367148440AF09D
:1002E00021FF1B4878440AF011FB807801280DD0CB
:1002F00001208DF802000020ADF800001548784478
:100300000AF004FB694603220AF084FB0F4D01AC9E
:1003100008F0B0FA002814D4024609EB0501204683
:1003200008F0CCFB30B12046FFF7A3FEB0F1FF3F51
:10033000EEDC06E00020002146F6872208F0B8FA3D
:10034000E6E7BFBDD418000000000000BC190000A3
:1003500018C70000FEC60000F8B5084878440AF047
:10036000D5FA00214FF4104203910721CDE9010194
:1003700001A8012108F09CFA04B080BDB5B30000CB
:10038000F0B585B0234F0C4605464FF4367109EBA6
:10039000070630460AF0C6FE002006F5357109F85A
:1003A000070086F8A802284607F0EEFF08B309EB1D
:1003B000070090F8D42200F52B71284608F037F892
:1003C000B8B109EB07000021052290F8D432CDE93D
:1003D0000221049100F1490500F1080600F52B7295
:1003E00000202121CDE9006508F0E2F840B180B29B
:1003F00001E046F6872005B0BDE8F04000F00CB8FB
:10040000002C05B0BDE8F04008BF00F031BF01F09E
:1004100047BA00BF0000000002460020002108F09B
:1004200047BAF8B5002001214FF410428DF80200C0
:100430008DF80100039003208DF803100121029034
:100440000DF10100019001A808F032FA04B080BD5E
:1004500070B586B0544E044691B109EB060090F891
:10046000A80201282CD109EB060015466268D0F8D5
:1004700008021118B1F5FF7F25D94BF2040039E0CD
:1004800009EB06054FF4367128460AF04BFE0020B2
:1004900005F5357109F80600012085F8A802204607
:1004A00007F072FF48B109EB060090F8D42200F57E
:1004B0002B71204607F0BBFFB8B946F6872019E03C
:1004C0004BF2070016E009EB0601084400F10801B1
:1004D000204607F0D6FF58B109EB06016268D1F853
:1004E00008021044C1F808024DB14FF4104001E079
:1004F0004BF2050006B0BDE8704000F05DB8002189
:10050000CDE9020109EB060000F10801019100F5B7
:10051000047101A801F002F8012814D1012009F8A2
:10052000060009EB0600D0F8081200F50E720591DE
:1005300000F10801049104A8012109F063FB40B116
:100540004BF2060001E04BF2050000F035F806B072
:1005500070BD164819F80000A0B1154819F8001030
:10056000F9B909EB0604012109F8001004F5067435
:100570001FCC009400F092FF10B1012001F056F85A
:100580000020E4E709EB0600D0F82C020949794481
:100590000AF00CFE10B101F0A0FAD8E701F09AFAC7
:1005A000D5E7FF200AF0CCFB00000000D4180000C3
:1005B000D51800008FAE000002460020002108F090
:1005C00077B910B5D0B00446406820280BD1206818
:1005D00040A9202201F084FA88B940A8402100F007
:1005E00017F800200DE068460921402209F038FB89
:1005F00028B9D4E90012684609F037FB18B100F0B9
:1006000019FE50B010BD684640A909F024FBE3E78D
:10061000F8B5002201AB07C301A801214FF4104235
:1006200008F046F98FBD02460020002108F040B9CD
:1006300010B5F2B0044668460621202209F010FBEE
:1006400050B9D4E90012684609F00FFB20B968469A
:100650006AA909F000FB18B100F0ECFD72B010BD02
:100660006AA800F001FE0020F8E7000010B5A4B071
:1006700000F0DCFDA0BB14AC1E49202220467944CA
:100680000AF047FD0CA81C49202279440AF041FDDC
:1006900004A81A49202279440AF03BFD03A820212E
:1006A000224600F0DBFDD8B902A80CAA202100F0F8
:1006B000D5FDA8B901A804AA202100F0CFFD78B982
:1006C000684600F0BDFD58B9DDE90213DDE900021E
:1006D0000AF036FA20B900981CA900F0AEFD18B156
:1006E00000F0A8FD24B010BD1CA800F0BDFD002046
:1006F000F8E700BFBEB1000032B1000066B20000F2
:100700002DE9F041ADF5087D044660A83D49A022E1
:1007100079440AF0FEFC00F089FD68BB002048A97E
:10072000FF22602802D00A540130FAE736496D46AC
:100730002022284679440AF0ECFC09A820212A4608
:1007400000F08CFDC0B908A86A46202100F086FDA3
:1007500090B90AA820210AF039FA68B909990AA8BB
:100760000AF03EFA40B90DF130080AAB0521052226
:10077000404602F04DFB28B100F05CFD0DF5087D10
:10078000BDE8F081002760AE0D98874212D208EBD9
:10079000870531462022E8690AF082F90028EBD16A
:1007A000E869119A01460AF025FA01372036002837
:1007B000EAD0E1E708AA40460021012302F08EFBBF
:1007C0002068119A007808EB800454F8180F01464D
:1007D0000AF01CFA0028CFD1206848A900F02DFDAE
:1007E0000028C9D148A86021FFF712FF08A80AF025
:1007F00043F90028C0D10AF021F90028BCD100201B
:10080000BCE700BFACB2000028B2000070B5D0B0A9
:10081000044600F00BFDA0BB48A81D4920227944E6
:100820000AF077FC01AD1B492022284679440AF0E2
:1008300070FC09A820212A4600F010FD08BB0AA878
:1008400020210AF0C3F9E0B909990AA80AF0C8F909
:10085000B8B90CA80AAB0521052202F0D9FA80B973
:10086000206806780CAC48AD2EB12046294602F02F
:10087000CBFA013EF8E748A800F0F6FC0AF0DEF8F3
:1008800018B100F0D7FC50B070BD0020FBE700BFEE
:100890007EAF000030B10000B0B5ADF51A7D016843
:1008A0000022FF230D785AACB2F5807F02D0A3540A
:1008B0000132F9E7406801311AAA013828B111F86C
:1008C000013B013802F8013BF8E700F0AFFCF0B95A
:1008D00004A8294601F000FFC8B904A801A901F045
:1008E0007BFDA0B904A81AA901AA01F02FF970B9DB
:1008F00004A804F1200301A900F0B3FC38B904985E
:1009000041005AA8FFF784FE0AF098F820B100F0E1
:1009100091FC0DF51A7DB0BD0020FAE7F0B5ADF5FC
:100920002B7D064600680021FF2205786BACB1F5EF
:10093000807F02D062540131F9E7716801302BAA3F
:10094000013929B110F8013B013902F8013BF8E700
:1009500000F06CFCA8BB30680AAA002102AB202979
:1009600007D046187778575496F821605E540131C5
:10097000F5E715A8294601F0AFFE10BB15A812A98E
:1009800001F02AFDE8B915A82BA912AA01F0DEF89A
:10099000B8B915A804F1200312A900F062FC80B9CF
:1009A0002020CDE9000415A80AA912AA02AB01F083
:1009B000F5F830B96BA86021FFF72AFE0AF03EF87F
:1009C00020B100F037FC0DF52B7DF0BD0020FAE7DB
:1009D0002DE9F045EBB0054600680DF1AB04FF21B1
:1009E00006780020B0F5807F02D021540130F9E76D
:1009F00000F01CFC002854D114AF3146384601F0F9
:100A00006BFE00284DD107F10C060DF2AB123846F3
:100A1000314601F00AFE002843D19DF8AB114CF697
:100A2000012001293DD122490DF1240A20225046FE
:100A300079440AF06EFB01AF1E4920223846794402
:100A40000AF067FB0DF1440814A851463A464346A4
:100A500002F033F828BB14A80DF2AB12314601F0B6
:100A6000E4FDF0B99DF8AB0101284CF6012018D146
:100A7000D5E90001CDF80080421C4B1E14A8314678
:100A800002F0A0F868B914A804F1400311A900F01D
:100A9000E8FB30B90DF1AB0000F0DCFB09F0CEFF54
:100AA00020B100F0C7FB6BB0BDE8F0850020FAE78D
:100AB0004CAF00005EAF0000F0B5EFB005464068F7
:100AC000412801D8022802D246F6872015E028687E
:100AD000FF21067800202FACB0F5807F02D0215492
:100AE0000130F9E700F0A2FB20B919A8314601F066
:100AF000F3FD20B180B2FFF796FD6FB0F0BD022E7E
:100B00000CD0012E28D10BAE424920223046794428
:100B10000AF0FFFA03AF4049794409E00BAE3F49C0
:100B20002022304679440AF0F4FA03AF3C49794474
:100B3000384620220AF0EDFA19A816AB31463A469B
:100B400001F0BBFF0028D5D119A80BA903AA13AB4C
:100B500001F0B3FF0028CDD100200DF10B028DF87C
:100B60000B0019A816A901F060FD0028C2D19DF85C
:100B70000B00012842D119A813AE0DF10B0231462A
:100B800001F053FD0028B5D19DF80B00012838D1A4
:100B90001A980DF10B010AF00FF80028AAD19DF860
:100BA0000B00012830D11B980DF10B010AF004F85D
:100BB00000289FD19DF80B00012828D1D5E900011C
:100BC0000096421C4B1E19A816A901F0FBFF002835
:100BD00090D119A804F1200313A900F042FB0028CA
:100BE0007FF488AF09F02AFF00287FF483AF1998BB
:100BF00041002FA8FFF70CFD00207EE74CF60120F6
:100C000079E74CF6022076E74CF6032073E74CF6C2
:100C1000042070E7CEAC000044AD0000D8AC00006A
:100C20004EAC00002DE9F04DADF5047D05460068A1
:100C3000FF220478002044A9B0F5807F02D00A5436
:100C40000130F9E700F0F2FA28BB0DF1B8082146AF
:100C5000404601F041FDF0B927A800F0F1FAD0B903
:100C6000286800210FAA0130602903D0435C535447
:100C70000131F9E70FAA00212BAF0C1D102C10D069
:100C800078182021202302F1200509F0E9FE002830
:100C90002A462146F1D000F0CDFA0DF5047DBDE8DD
:100CA000F08D08F10C004FF0000A01260DF10C0B3D
:100CB000019044ADBAF10C0F3BD028A8202100EBE5
:100CC0000A04204609F0C2FE0028E4D1206831461B
:100CD00009F0FCFE0028DED14046594601F07CFBBD
:100CE0000028D8D1029607EB0A06019940465B46D8
:100CF000324601F001FF0028CDD12068294600F0DE
:100D00009CFA0028C7D1306805F1200100F095FA5F
:100D10000028C0D14046594601F08FFE029E403562
:100D20000BF10C0B0AF1040A2BAF01360028C1D0DD
:100D3000B1E72798032300902EA828A92BAA01F039
:100D4000E6F80028A7D1279844A92022C03109F04D
:100D5000C7FE00289FD12EA827AA03AB019901F056
:100D6000CBFE002897D144A800F1E0022EA803A9E9
:100D70000FAB01F03CFE00288DD144A800F06AFAC8
:100D800009F05CFE00287FF486AF002085E72DE99E
:100D9000F04DADF50A7D04460068FF22057800207D
:100DA00048A9B0F5807F02D00A540130F9E700F07D
:100DB0003DFA98BB32A8294601F08EFC70BB206832
:100DC00000221AA90230202A03D0835C8B540132FE
:100DD000F9E76268023ACDE9880201F1200288A8A9
:100DE000012108F01CFFC8B91AAA002117AC0D1D7B
:100DF000102D0BD060182021202302F1200609F0CD
:100E00002FFE002832462946F1D007E00AA800F05C
:100E100017FA18B909A800F013FA28B100F00AFA75
:100E20000DF50A7DBDE8F08D4FF000080DF5907BC3
:100E30000BAE0DF1C80A0024B8F1100F4DD005A873
:100E4000202100EB0807384609F000FE0028E5D114
:100E500001A8202100EB0805284609F0F7FD00282D
:100E6000DCD10998214609F031FE0028D6D1286846
:100E7000214609F02BFE0028D0D15046314601F022
:100E8000ABFA0028CAD1DDE90930022200905046B1
:100E900017A901F07FF80028C0D138680A9909F035
:100EA0000BFE0028BAD15046314601F0C6FD00289D
:100EB000B4D10998594600F0C0F90028AED10A987B
:100EC0000BF1200100F0B9F90C3601340BF1400BA5
:100ED00008F104080028AFD0A0E700210C1D102C59
:100EE00007D017A8084409F0C7FD00282146F5D00F
:100EF00094E70A980323009001A8011D05A8021D8C
:100F000032A801F004F800287FF488AF48A800F068
:100F1000A1F909F093FD00287FF480AF00207FE75E
:100F2000B0B5D8B0044600F081F9002842D120685D
:100F3000017802A801F0D0FBE0BB01A800F080F925
:100F4000C0BB00F080F902F0E5F898BB019818AD3D
:100F50002022294609F0C4FD60BB00F074F902F0BC
:100F6000E7F838BB019805F1200100F066F908BBED
:100F700000F069F902F0F0F8E0B9019805F14001DC
:100F800000F05BF9B0B900F05EF902F0F3F888B94F
:100F9000019805F1600100F050F958B9049805F185
:100FA000E00100F04AF928B918A800F053F909F057
:100FB00045FD18B100F03EF958B0B0BD0020FBE788
:100FC00010B5ADF5507D044600F030F910BB206837
:100FD00001787AA801F080FBE0B979A800F030F937
:100FE000C0B901AC10494FF4F072204679440AF0C0
:100FF00090F8799B7AA82146032201F004F848B9B9
:10100000799890A92022203109F06AFD10B909F0E1
:1010100015FD20B100F00EF90DF5507D10BD90A822
:1010200000F022F90020F7E770AA000070B5ADF5D6
:101030006A7D044600F0FAF868BB2068017894A83D
:1010400001F04AFB38BB94A891AC214601F0C4F9E9
:1010500008BB19AD15494FF4F072284679440AF0DF
:1010600058F801AE12496022304679440AF051F82E
:10107000009494A829463246032301F041F850B960
:10108000AAAA94A891A902F1200301F0B0FC10B91A
:1010900009F0D4FC20B100F0CDF80DF56A7D70BDEB
:1010A000AAA84021FFF7B4FA0020F6E7E0AB000061
:1010B000B2AD00002DE9F045ADF21C4D044600F044
:1010C000B5F8002840F09D8020680178B1A801F0B3
:1010D00003FB002840F09580B0A800F0B1F800288C
:1010E00040F08F80B1A8ADAD294601F075F9002818
:1010F00040F0878035AC47494FF4F0722046794480
:101100000AF007F8B09BB1A82146032200F07BFF4C
:10111000002876D10DF54778B09820222026414648
:1011200009F0DEFC00286CD13B490DF1B40A202205
:101130005046794409F0EDFF25A83849202279442A
:1011400009F0E7FF1DAC364920222046794409F01A
:10115000E0FF08F120078DE8D000B1A835AA51467C
:10116000032301F03EF800284BD10095B1A835A922
:101170003A46032300F0C4FF002842D1B1A808F189
:10118000800208F1A003ADA901F031FCC8BB0DAC91
:10119000244940222046794409F0BBFFB098202121
:1011A0002246CDE90010B1A8ADA925AB01F0A4F805
:1011B00038BBB09808F1C00100F03FF808BB03A8A5
:1011C00019492022794409F0A4FF0CA800F038F84E
:1011D000B8B90BA803AA202100F040F888B9B0994B
:1011E000DDE90B2009F0D0FC58B90C9808F1E001BA
:1011F00000F023F828B9C7A800F02CF809F01EFC6D
:1012000028B100F017F80DF21C4DBDE8F085002064
:10121000F9E700BF7EAD00004AA70000FEA5000070
:1012200050A70000C6AE000078A6000020200021D4
:1012300009F0FABB80B2FFF7F6B9202209F050BCE2
:10124000202109F003BCD4E90001019B049A01307C
:10125000013970474FF48071FFF7DAB9202309F0A4
:10126000FFBB224601F0C3BB2021FFF7D1B900002C
:10127000B0B59AB041200DF1050441228DF805006A
:101280000B4809EB0005601C05F1080109F041FF5E
:10129000202005F1490120228DF8470004F1430088
:1012A00009F037FF2046632100F004F81AB0B0BD02
:1012B00000000000F8B5002201AB07C301A801211E
:1012C0004FF4104207F0F4FA04B080BDF0B593B0CB
:1012D0000DF102044921651C284609F017FF0B484F
:1012E00009EB0007284697F8A06207F51671324609
:1012F0008DF8026009F00DFF97F8A11230194170C6
:10130000B11C2046FFF7D6FF13B0F0BD000000006F
:101310002DE9F041BCB004460020A568A061002D75
:101320004DD0206900284AD009F04AFF282846D12C
:10133000207B4FF0000839956121CDF8EC803A9080
:1013400015AD284609F0E2FE39AE0DF1E301304655
:1013500007F01AF89DF8E3202EAF3046394607F023
:1013600066F8052005F141019DF8E3303A46CDF8D5
:101370001080CDE90051CDE902080020212107F0BD
:1013800017F9E0B910AD1421284609F0BFFE15A8E1
:1013900029461422FEF748FE05AE2921304609F001
:1013A000B5FE284614213246292307F0DFF92169CA
:1013B0003046292209F00CFF08B90120A0613CB099
:1013C000BDE8F08170B58CB004AC06461E21204605
:1013D00009F09CFE06F10E053221284609F096FE22
:1013E0000020317BCDE90200B06802AA07F008FCBA
:1013F00078B10320DDE902231E210090204607F08A
:101400006EF90094284632211E23034A7A4409F0DB
:10141000E3F80CB070BD00BF68A20000F0B593B057
:101420008569ADB30446284609F0CAFE28282FD1A5
:10143000A7686FB36E464821304609F067FE06F193
:1014400018000021282909D06A5CA2F16103DBB2EF
:101450001A2B38BF203A42540131F3E7217B06F1C1
:101460000802384607F0CCFB90B1217D206906F1D7
:10147000100207F0C5FB58B101248DF8004008F0B8
:1014800013FC054869464822484409F042FE00E042
:101490000024204613B0F0BDD802000070B58CB017
:1014A0001D4E19F806402CB309EB0604D4E9024599
:1014B00069406040084321D109EB0600D0E90401EE
:1014C0005940504008431DD101AD109C29212846A8
:1014D00009F01CFE204614212A46292307F046F96C
:1014E00009EB06002946183009F060FE70B90120AA
:1014F0000CB070BD4FF44040FF210AE04FF4404073
:10150000012106E04FF44040032102E04FF4404047
:101510000221002207F03BFBD802000070B50D4607
:10152000044610B9012008F0B3FB15B9012008F0FA
:10153000AFFB6068B0F5FF7F01D9F9204BE0204692
:101540002946002206F036FF30B32068A16808441F
:101550001421A861204606F00CFFF8B105F108013E
:1015600020460022002606F025FFC8B105F1200123
:101570002046C5E9046606F03DFF296A90B9686A0D
:101580005FEA50004FEA31020023D2F1E80273EB28
:10159000000007D2FC201EE0FF201CE0FE201AE025
:1015A000FD2018E02068A2681044E861204606F09B
:1015B000E0FE68B105F11C030DCB00F00EF848B158
:1015C000D4E901126FF006008A4208BF012002E050
:1015D000FB2000E0FA2040B270BDF8B51C4615466D
:1015E000064610B9012008F053FB002000230246F4
:1015F000401B194673EB040006D2B756501C41F14C
:101600000003B7F1FF3FF2DC0020521BA14128BFCD
:101610000120F8BD08B1FFF72BBE46F6851000F09B
:1016200000B802460020002107F042B92DE9F04140
:101630008CB078B3DFF894800220002520270322A5
:1016400040F201640DF12C0C0DF1280E0B9509F8F8
:10165000080048200A9009EB080090F8D43200F501
:101660000E7100F51676CDE9004200F52B720020D0
:101670000895CDE906C5CDE902172121CDE9046E13
:1016800006F0CAFF88B14BF2080009F80850FFF7CE
:10169000C8FF17E00D48002109F8001046F6851034
:1016A0000CB0BDE8F041FFF7BCBF0A9909EB080098
:1016B00080F8A0129DF82C1001F0010180F8A11211
:1016C000FFF704FE0CB0BDE8F08100BF0000000091
:1016D000FF2009F035FB0000BFB5194C17487C44CA
:1016E00009EB000500F0D8F8142169731549164A72
:1016F00079447A44C5E901210078287300F0CCF8D8
:10170000152169761149124A79447A44C5E90421C0
:101710000021407828760F480F4A104B78447A44CD
:101720007B44CDE90032CDE902100022FF230C48B2
:101730000C497844794405F0E7F9BFBD2003000067
:101740001EB30000279E0000989F00008A9E0000A4
:10175000D09C0000B1FFFFFF8AA900007CA9000017
:10176000DF9F0000FF9A0000BFB5224C152809F842
:10177000042011D014282AD109EB04051E4C7C4406
:1017800000F08AF80078B0FA80F0400928738DF8EC
:101790000F0000F081F815E01848784409F0B6F819
:1017A0004078A8B109EB0405154C7C4400F074F8AE
:1017B0004078B0FA80F0400928768DF80F0000F0EC
:1017C0006BF801300DF10F01012209F023F9BFBDC3
:1017D0000C480D4978447944CDE900100B480C4978
:1017E0000C4A0D4B784479447A447B4405F0B8FDAB
:1017F000BFBD00BF200300007EB2000062B2000047
:1018000052B2000045000000E29D0000C99B0000AC
:10181000F49B0000B89C0000A89E0000B0B586B004
:10182000A8B1174C15487C4409EB000500F034F8CA
:101830004078B0FA80F0400928768DF8170000F063
:101840002BF801300DF11701012209F0E3F80B48E4
:10185000002119F800300B480B4A0C4C78447A44AC
:101860007C44CDE90042CDE9021000220848094934
:101870007844794405F048F906B0B0BD2003000073
:10188000D6B1000071FEFFFF4AA800003CA800008E
:10189000A19E0000C1990000204609F037B8000061
:1018A00070B588B0224E09EB060119F8060091F8D0
:1018B000A81208432AD11F4D2B2109EB050009F07E
:1018C00025FC03AC1421204609F020FC09EB06009E
:1018D000214614220830FEF7A7FB08B309EB0502E6
:1018E00003A814212B2306F041FF013018D0124821
:1018F000002400217844CDE9004009EB05000F4A9F
:101900000F4B7A447B4405F053FA0EE0002009F8AF
:1019100006004BF2070008B0BDE8704000F012B8B6
:101920004BF2020000F00EF80446204608B070BDED
:10193000000000003C03000059000000CE9A0000A7
:10194000FA9D000002460020002106F0B1BF000011
:1019500010B50446FFF75EFE0720002C18BF0620D6
:1019600002497944BDE8104005F0D0BB73FDFFFF8C
:10197000F0B58DB0434F044609EB070090F8A8027C
:1019800001285DD119F80700012859D13E4E1E21CA
:1019900009EB0600143009F0B9FB05AD1E212846FD
:1019A00009F0B4FB09EB07001E21D0E986230320D0
:1019B0000090284606F093FE00284BD0009509EBD6
:1019C00006051E211E23314A05F114007A4408F051
:1019D00003FE54352B21284609F098FB09EB07003C
:1019E00014212A462B23D0F8280206F0BFFE01302E
:1019F00033D0274909EB060000250246794442F816
:101A0000341F49F8062002222249027200F15402D2
:101A100085727944C0E9111200F1140181631E48F6
:101A2000784414B3CDE90250CDE9005509EB060125
:101A300000201A4A1A4B7A447B4405F0A7F911E0BA
:101A4000002009F807004BF207000DB0BDE8F04098
:101A500000F02CB84BF2030001E04BF2020000F062
:101A600025F8054628460DB0F0BD0290CDE9005599
:101A700009EB060100200B4A0B4B7A447B4405F02E
:101A8000EBF8EFE70000000068030000A89C0000EE
:101A90008C9A00006B9C0000950000009A99000051
:101AA000AA9900005699000066990000024600209D
:101AB000002106F0FDBE000010B50446FFF7B6FD9C
:101AC000034984F001007944BDE8104005F01EBBD5
:101AD0000FFCFFFF0120FFF74BBF0020FFF748BFBF
:101AE0002DE9FC4D0C46CDE9000268460121012696
:101AF000224608F094F8054618BB207800F0F8005C
:101B00002070E07F66F39F10E077D4E900010E4E6D
:101B10007E44B04780468A46D4E90201B0478346F6
:101B20000F46D4E90601B047C4E90001D4E9040135
:101B3000B04704F1080282E8030804F1140080E8C9
:101B400080052846BDE8FC8D2503000070B592B0E5
:101B50001446026802AE054608463146FFF7C0FF4C
:101B600000200021202809D0325C4901130641EAF7
:101B7000D361315402F007010130F3E729462846CA
:101B800051F80C3B009402AA01F01CF818B9284641
:101B9000214600F052FF12B070BD00002DE9F04D5B
:101BA000ADF5467D0546CE98202818D10E4682A96F
:101BB00028461F46924600F00FFC88B92A6872AC8E
:101BC00030462146FFF78CFF50B9DDF83CB30020CA
:101BD0005AA9202808D0225C0A540130F9E7944819
:101BE0000DF5467DBDE8F08D12A80921402208F0D0
:101BF00037F80028F4D104F1200112A8202208F0BF
:101C000034F80028ECD112A83946202208F02DF82B
:101C10000028E5D112A862AC214608F01CF8002883
:101C2000DED13F2072A9421C04D0225C013801F8A9
:101C3000012BF8E789A872AA4021402308F010FF81
:101C40000028CDD187A8402108F000FF0028C7D187
:101C500078490DF1080840224046794409F059FAC4
:101C600088A840214246402308F0FAFE0028B7D158
:101C70008999DDE9870208F087FF0028B0D187AA9B
:101C800005F10C0182AB284600F036FF0028A7D1F1
:101C900082A9284600F0D1FE0028A1D10BF1200333
:101CA00082A928465A4600F0A2FE002898D18798BB
:101CB00052A9202208F014FF002891D188A808F02A
:101CC000DBFE00287FF48CAF89A808F0D5FE002841
:101CD0007FF486AF87A808F0CFFE00287FF480AF9E
:101CE000284600F028FE00287FF47AAF05F1200492
:101CF0008AA800F0A5F800287FF472AF1F2062A91F
:101D0000421C04D03A5C013801F8012BF8E78299B3
:101D1000919808F0D1FE00287FF462AF83999298E1
:101D200008F0CAFE00287FF45BAFDAF80010939841
:101D300008F0C2FE00287FF453AFDAF8041094983C
:101D400008F0BAFE00287FF44BAF959862A92022D4
:101D500008F0A6FE00287FF443AF9598224601467E
:101D600008F048FF00287FF43BAF82A9284600F026
:101D700048FB00287FF434AF85A8202108F066FED8
:101D800000287FF42DAF8AA885AA0021012301F045
:101D9000A5F800287FF424AF85982246014608F074
:101DA00035FF00287FF41CAF86A85AAA20212023E3
:101DB00008F056FE00287FF413AF01A8202108F098
:101DC00045FE00287FF40CAF08F1200288A82021EE
:101DD000202308F045FE00287FF402AF889BDDE950
:101DE0008512019808F0C4FE00287FF4F9AE8598AA
:101DF00052A9202208F054FE00287FF4F1AE889BFF
:101E0000019ADDE9851008F09BFE00287FF4E8AE1A
:101E1000889ADDE9850108F0B7FE00287FF4E0AE7E
:101E200085980BF14001202208F05AFED8E600BF49
:101E3000034E4B5AA2A400000ABA01BA10467047DA
:101E400005210522234600F0E3BF2DE9F04585B0CA
:101E50000E46074603A8202100F0B7FA98B902A859
:101E6000202108F0F3FD70B901A8202108F0EEFD53
:101E700048B90398012108F029FE20B902980121F0
:101E800008F024FE10B105B0BDE8F085DDF8308023
:101E90000DF1100A1EB338682946524608F02CFE90
:101EA0000028F0D10498B8B102983A682346014658
:101EB00008F05EFE0028E6D1396801982A462346DC
:101EC00008F04AFE0028DED10398019A2346014615
:101ED00008F04EFE0028D6D10437013EDAE7039918
:101EE0004046224608F05CFE0028CCD1029A4046CB
:101EF0004146234608F03CFE0028C4D103A808F060
:101F0000BBFD0028BFD102A808F0B6FDBBE72DE954
:101F1000FE450F46064602A820211C46924608F0C0
:101F200095FD08B1BDE8FE8501A8202108F08EFDD1
:101F30000028F7D10298002108F0C8FD0028F1D14F
:101F4000DDF828800025AC421DD0019857F82520E7
:101F5000B368214600903846FFF777FF0028E1D1AB
:101F600001985AF82520B368014608F001FE0028C0
:101F7000D8D1DDE90120B368014608F0E1FD013563
:101F80000028E0D0CEE7B2680299404608F0FCFD98
:101F9000BDE8FE852DE9FC410E460168074601A813
:101FA00000F013FA08B1BDE8FC81DDF8208056F896
:101FB0002510404608F080FD0028F4D1043EBB689F
:101FC000019841467DB1224608F0D2FD0028EAD1B1
:101FD00056F82520BB680199404608F0B1FD013D47
:101FE0000028ECD0DFE71A4608F0CEFD0028DAD151
:101FF0000199404608F060FD0028D4D101A808F0FE
:102000003BFDBDE8FC812DE9F04DD6B0064616A893
:102010001C4615460F4601F0EBF810B156B0BDE86E
:10202000F08DCDE90476019406A84FF0000A4FF038
:10203000020B042600240295A0F10108AC4258D0FE
:10204000059804EB840103910568049805FB0A00D8
:10205000294629B110F8012B08F801200139F8E7C9
:1020600016A806A92A4601F0DDF80028D6D1039863
:10207000049F431C059805FB0B710268501E154612
:1020800002FB0303FB5C2DB111F8017B08F805701E
:10209000013DF8E706A90D5C45EAC3130B5416A8E9
:1020A00001F0C0F80028B9D10598049D0268039892
:1020B000C31C501E02FB065102FB0303EB5C1546DA
:1020C0002DB111F8017B08F80570013DF8E706A96C
:1020D0000D5C45EAC3130B5416A801F0A3F80536AE
:1020E0000134029D0BF1050B0AF1050A0028A5D069
:1020F00094E70598816816A8019A01F095F88DE794
:102100002DE9F04D88B00D4605A91F4693460446BB
:1021100000F062F948B902A9204600F05DF920B943
:102120001099204600F050FC10B108B0BDE8F08DC9
:1021300005AE4FF000084FF0040A0195474541D025
:102140002268AAF10300334602FB0051AAF1020003
:1021500002FB0052204600F0AFFB0028E5D11099A9
:10216000204632460B4600F0C8F90028DDD122682F
:10217000AAF10100334602FB005102FB0A5220463D
:1021800000F09AFB0028D0D1236858460DF1080BC7
:1021900031460546CDF800B003FB0802204600F0AA
:1021A00011FD0028C1D1109920465A460B4600F077
:1021B000A4F9AB46019D0AF1050A08F101080028BF
:1021C000BCD0B2E71099204600F037FC0028ACD113
:1021D00005A900F0FEF80028A7D102A900F0F9F83F
:1021E000A3E72DE9F04DF4B00E460168074673A849
:1021F00000F0EBF8F0B9396872A808F027FCC8B90C
:10220000DDE97C01BA68739B00F0A6FF90B9729B70
:10221000384629462246FFF7F6FE58B93A687398C1
:1022200012A908F05DFC28B93A68729802A908F072
:1022300057FC10B174B0BDE8F08D00200DF1C80A54
:102240000DF1880B4FF000080090444543D03968E9
:1022500001A808F0FBFB0028ECD1504600F0AEFFCF
:102260000028E7D1396830465A4600F09FF8002828
:10227000E0D1396812A85A4600F098F80028D9D160
:10228000396802A85A4600F091F80028D2D139687E
:1022900000985A4600FB015000F088F80028C9D188
:1022A000B968019A504600F0BFFF0028C2D13A68D1
:1022B0007E9802FB0801019808F012FC0028B9D1B1
:1022C00001A808F0D9FB0028B4D1009808F1010852
:1022D00005300090B9E773A808F0CEFB0028A9D11B
:1022E00072A808F0C9FBA5E7013A21B110F8013B3B
:1022F00053540139F9E770472DE9F041BCB0064667
:10230000429820284BD130461F4614460D4600F017
:1023100012FB002844D106F1200868460521052259
:10232000434600F075FDD8BB2968079808F0C4FB48
:10233000B0BB6968089808F0BFFB88BB3268099891
:10234000214608F0ADFB58BB099800F03AF838BBBD
:1023500032680A9804F1200108F0A2FB00BB0A9839
:1023600000F02FF8E0B90B983946202208F098FBCE
:10237000B0B90B9800F025F890B93046294600F026
:1023800040F868B9684643AA0021012300F0A6FD81
:1023900030B943984246014608F038FC00E0024854
:1023A0003CB0BDE8F08100BF034E4B5A4DF808ED3C
:1023B000FFF79AFF3A68504659465DF808EB00F07F
:1023C00031BF4246014608F015BC1C46154608F0D0
:1023D0003DBB204600F015B8B0B50D460168044677
:1023E000284608F033FB20B92168281D08F02EFB91
:1023F00000B1B0BD216805F10800BDE8B04008F0AB
:1024000025BB10B508460C4608F036FB18B9201D50
:1024100008F032FB00B110BD04F10800BDE8104027
:1024200008F02ABBF8B50F4614460546436809680C
:10243000406B7A6808F084FB002854D1D5E90C0180
:1024400005F1200600F0E4FB00284CD13968686BE8
:1024500000F0DEFB002846D17968A86B00F0D8FBBD
:10246000002840D1A9696A6BE86B00F0CBFBD0BBB8
:102470006B68D5E90E21286C08F062FB98BBB9683F
:10248000A86C00F0C5FB70BB6B68E86A296CAA6C8D
:1024900008F062FB38BB6B68E96AD5E9122008F0E6
:1024A0005BFB00BB05F12C026B6807CA08F054FB0C
:1024B000C8B96B68D5E90B10AA6B08F04DFB90B951
:1024C0002A6BE96C206800F09DFB60B96B68D5E968
:1024D0000D02E96B08F040FB28B96A6B296C606853
:1024E00000F090FB00B1F8BD296CEA6CA06833469F
:1024F00001B0BDE8F04008F095BB2DE9F04106467B
:1025000017460C4692688968C06A984606F120050D
:1025100000F07BFB00287DD1D6E90B102B460A4644
:1025200008F080FB002875D13A682168706B00F0D4
:102530006CFB00286ED17A686168B06B00F065FBB7
:10254000002867D1D6E90D12F06C00F05EFB002880
:1025500060D1F269F06BF16C00F057FB002859D1A3
:102560007368316BD6E90F2008F0F6FA002851D1D4
:102570007368316BF26B706C08F0E2FA002849D195
:10258000D4E900127368B06C08F0DAFA002841D17F
:10259000D7E900127368F06C08F0D2FAD0BB306B48
:1025A000D6E9121200F031FBA0BB7368D6E90C1219
:1025B000B06C08F0D1FA68BB7368B26BD6E9121040
:1025C00008F0CAFA30BBD6E90B10F26C00F01DFB24
:1025D00000BB326B316CD8F8000000F016FBC8B9B4
:1025E000B169D6E90C0200F010FB98B97368326B40
:1025F000B16BF06C08F0B0FA60B9306B716CF26CD2
:1026000000F003FB30B9D6E90B12D8F8040000F053
:10261000FCFA08B1BDE8F081D6E91012D8F808003C
:102620002B46BDE8F04108F0FDBAF8B505460F4667
:10263000052009681446009005F12006E86A0A465C
:1026400000F0E0FA00B1F8BD7968286B00F0E0FA1C
:102650000028F8D1D5E90B12686B00F0D3FA0028F6
:10266000F1D1A969EA6AE86B00F0CCFA0028EAD156
:10267000E86B6B682A6B014608F062FA0028E2D129
:10268000E9696A6B286C00F0BDFA0028DBD16B6841
:10269000AA6AA86B296C08F053FA0028D3D1A86B5A
:1026A0003246014608F0B2FA0028CCD1E86B324637
:1026B000014608F0ABFA0028C5D1D5E90E016A46FB
:1026C00008F01AFA0028BED10098B0FA80F040094C
:1026D00020700020F8BD00002DE9F04DD2B0044676
:1026E000022922D0012940F0CD8020202022206024
:1026F0004AAF67493846794408F00BFD42AE654958
:1027000020223046794408F004FD63490DF1E80ABF
:1027100020225046794408F0FCFC32AD5F4920226B
:102720002846794408F0F5FC2DE020202022206086
:102730002AAF5B493846794408F0EBFC22AE594990
:1027400020223046794408F0E4FC57490DF1680A2C
:1027500020225046794408F0DCFC12A8534920227C
:102760000190794408F0D5FC51490DF1280B202245
:102770005846794408F0CDFC02AD4E492022284647
:10278000794408F0C6FC04F1040820213A462023CD
:10279000404608F065F9002875D120462A4650F8D1
:1027A000081B0B4608F05CF900286CD104F12005E9
:1027B0002021284608F00AFA002864D1D8F8001031
:1027C000284608F00DFA00285DD1274657F8281B47
:1027D000384608F03BF9002855D13868012108F047
:1027E00075F900284FD1386800F016FA00284AD150
:1027F00004F10C0720463946FFF7EEFD002842D1D0
:10280000019920465A463B4600F056F8D8BB274669
:10281000324657F8181B38460B4608F021F990BB92
:10282000386800F0F9F970BB2646524656F81C1B72
:1028300030460B4608F014F928BB306800F0ECF97C
:1028400008BB204650F82C1B08F000F9D8B900F05E
:10285000FBF9C0B900F0E4F9A8B900F0F0F990B9BB
:1028600000F0FCF978B900F0E5F960B900F0F1F991
:1028700048B900F0DAF930B954F84C1B204608F09A
:10288000E5F800E0014852B0BDE8F08D014E4B5A2A
:102890006690000018920000C8910000FA900000B5
:1028A0002692000078910000E89100001A92000042
:1028B0002A920000BC900000FEB506681C46174630
:1028C0000A46054602A83146334608F0C9F800B169
:1028D000FEBD01A831463A46334608F0C1F800284B
:1028E000F6D16846314608F0B1F80028F0D105F17C
:1028F000200620680299324608F07CF90028E7D1CA
:1029000060680199324608F075F90028E0D1A96A9B
:10291000A06808F0D1F80028DAD102A808F0ACF8D5
:102920000028D5D101A808F0A7F80028D0D1684622
:1029300008F0A2F8FEBD10B504462C3008F09CF853
:10294000D8BB04F1300008F097F8B0BB04F13400B4
:1029500008F092F888BB04F1380008F08DF860BBED
:1029600004F13C0008F088F838BB04F1400008F09E
:1029700083F810BB04F1440008F07EF8E8B904F1D4
:10298000480008F079F8C0B904F14C0008F074F878
:1029900098B904F10C01FFF734FD70B904F1180087
:1029A00008F06AF848B904F11C0008F065F820B98D
:1029B00004F1280008F060F800B110BD04F108002F
:1029C000BDE8104008F058B8B0B5054608680C4698
:1029D000002108F07BF818B9A96A00F044F900B1A9
:1029E000B0BDA96AA068BDE8B04008F065B82DE99F
:1029F000F041984616460F46054600F01EF898B975
:102A000005F120043968E86A224608F0FFF858B951
:102A10007968286B224608F0F9F828B92A68E86A2C
:102A2000314608F05DF808B1BDE8F0812A68286BEE
:102A30004146BDE8F04108F053B870B505460C4674
:102A40008968C06A05F12006324608F007F9D0B956
:102A50002268D5E90B1000F0D5F8A0B96268E96AE0
:102A6000686B00F0CFF870B9A268E96AA86B00F053
:102A7000C9F840B9296B206808F01EF818B9696BCD
:102A800000F0F1F800B170BDA96BA068BDE870401E
:102A900008F012B8B0B50C4605460168206808F089
:102AA0000BF818B9696800F0DEF800B1B0BDA9688C
:102AB000A068BDE8B04007F0FFBFF8B50E4601685A
:102AC000074618461C46154607F0C0FF50B939683E
:102AD000201D07F0BBFF28B9396804F1080007F092
:102AE000B5FF00B1F8BD384631462A46234601B04D
:102AF000BDE8F040FFF7E0BE2DE9FF4D074600209E
:102B00008846154600219B4603908DF80B001068FF
:102B100003AA07F0FDFF38BB0398D0B1286801A9CC
:102B200007F0B4FF00BB02204FF0FF310DF10B04A2
:102B30003865019801EBC006002001280FD02868F5
:102B40003146224607F0F0FF70B99DF80B00013EB8
:102B5000F3E738465946FFF737FF28B9DEE7404626
:102B60005946FFF797FF10B104B0BDE8F08D012082
:102B70000DF10B0AC7E91406002E20D43846594639
:102B80005A46FFF74FFC0028EED1386D31465246C9
:102B900040003865286807F0C7FF0028E4D19DF899
:102BA0000B0050B13846594642465B46FFF7A5FC3C
:102BB0000028D9D1386D01303865013EDCE70020AE
:102BC000D2E70000BCB50C46016899423CBF0C48F6
:102BD000BCBD0546CA20286501A807F041FF00B129
:102BE000BCBDB320069B2146286501AA2846FFF7F5
:102BF00083FF0028F4D101A807F03EFFBCBD00BF51
:102C0000014E4B5A334608F00DB82B4608F00AB86F
:102C100033460A4608F006B82A46014607F0EABFDE
:102C2000204650F8341B07F011BF204650F8481BCF
:102C300007F00CBF204650F8401B07F007BF2046A6
:102C400050F8381B07F002BF204650F8301B07F041
:102C5000FDBE204650F8441B07F0F8BE204650F851
:102C60003C1B07F0F3BE606807F026BFB0B5C26832
:102C700090E81A005FEA52054FEA3402E407C560A3
:102C8000DD0744EA530445EA51054460154C0560EC
:102C90002140154C234019440C0C44EA034443EAF8
:102CA000134321440C0A44EA036483EA132361407A
:102CB0000C0944EA037483EA131361408C0844EA64
:102CC000837483EA930361405FEA53034FEA31035D
:102CD000594001F0010182EAC132826008460021B8
:102CE000B0BD00BF01208000400008402DE9F8453C
:102CF0000C4605464FF0000A4FF000080027A74297
:102D000015D22846FFF7B2FF06462846FFF7AEFF6A
:102D100010EB46008107F2D500F001004FEA4801B0
:102D2000013740EA4A0041EADA788246E7E750464E
:102D30004146BDE8F8850000B0B5094A094B044694
:102D4000A02500204FF6FF71C4E90210C4E900324B
:102D500025B12046FFF78AFF013DF9E7B0BD00BF6E
:102D600010F0FCFF02FC01182DE9F041204F224E2B
:102D700005460C460020B8461E4F7E44F8B928464A
:102D80003E21B047C4E9000128464021B047C4E9CC
:102D9000020128464021B047C4E9040128464021E9
:102DA000B047C4E90601D4E900013A46C01B4046D9
:102DB00071EB08004FF0000038BF0120DEE7D4E9D6
:102DC00000010E4D7D44A847C4E90001D4E9020189
:102DD000A847C4E90201D4E90401A847C4E90401F1
:102DE000D4E90601A847C4E90601BDE8F08100BFA7
:102DF0004E4B5A302221584F6FFFFFFF3900000021
:102E00000ABA01BA10467047C030FFF7ADBF0000E4
:102E10002DE9F041ADF5906D0446C0301E461746D1
:102E20000D46FFF789FF2C49E8464FF49062404673
:102E3000794408F06EF90020257366612146C4F8D4
:102E4000D000781CC4E90170306807F01FFE30B96B
:102E5000204650F8D46B314607F0F8FD18B10DF557
:102E6000906DBDE8F081A0680025854230D204EB6A
:102E70008507314607F1180007F0E8FD0028EED17C
:102E800007F1D800314607F0E1FD0028E7D100271F
:102E9000A06887421AD205FB00703146334600FB1A
:102EA000068204EB8000303007F0DAFD0028D6D12E
:102EB000A068626905FB007004EB8000006B0146AE
:102EC00007F098FE01370028E2D0C8E70135CCE7CB
:102ED000012020610020C2E70C9300002DE9F04D95
:102EE0008CB006460069012840F0B480B0691F46E6
:102EF000924607F0EBFD002840F0AD8006F10C0093
:102F000006F1180806F1C00B01900020442800F0DB
:102F1000AE803468CDE9020A4FF0000AB0688245FD
:102F200024D204AD58462946FFF71EFFD6F8D80034
:102F30002946224607F0B4FD002840F08C80D6F8E0
:102F4000D8007269014607F055FE002840F08380E2
:102F5000726958F82A00D6F8D8101368024607F0AC
:102F6000EFFD0AF1010A0028D8D074E00299042983
:102F700001D3402923D3DDF80CA0002484422BD2B6
:102F800058F824107369D6F8D8000A4607F04AFEAC
:102F9000002860D1D6E9361073690A4607F042FE70
:102FA000002858D158F824007369D6F8DC2001466F
:102FB00007F038FE00284ED1B0680134DEE7D6E9CC
:102FC0000510019A01230091014607F037FEDDF854
:102FD0000CA000283FD1B0680025854229D206EB1D
:102FE0008504002154F8D80F07F070FD98BB0395B5
:102FF0000025B068854219D20399736901FB00501E
:1030000058F8251006EB8000026BD6F8D40007F0C4
:1030100009FE00BB71692068D6F8D4200B68014610
:1030200007F08EFD01350028E3D014E0039D013543
:10303000D3E7002484420AD206EB84018869D1F8E0
:10304000D81007F039FD30B9B0680134F2E70298C2
:1030500001305BE708480CB0BDE8F08D58F8041B60
:103060005AF8040B07F028FD013F0028F3D1002F88
:10307000F4D10020EFE700BF024E4B5AF0B5D9B0B3
:103080000E46074658A840211C46154607F0DEFCB0
:10309000D8BB1F4968461D22794408F03AF808A8B1
:1030A0000921402206F0DCFD78BB08A869461D22F4
:1030B00006F0DBFD48BB08A83946324606F0D5FDD0
:1030C00018BB08A82946224606F0CFFDE8B908A893
:1030D00048AE314606F0BFFDB8B9DDE95E450020D7
:1030E0003F21202802D000F0DDF8FAE7589848A9DF
:1030F000402207F0D5FC40B958992846224607F0EF
:1031000043FD10B958A807F0B7FC59B0F0BD00BF97
:1031100024950000BFB505466F2000F0B7F846F6CD
:10312000720000F0BAF803A8FFF7A8FF04B0B0BD22
:10313000BFB5054665200C46CDE9002305218DF875
:103140000C0004482A462346029002A8FFF796FF87
:1031500004B0B0BD6E6F6E63BFB50546672000F06A
:1031600095F847F26D3000F098F803A8FFF786FF56
:1031700004B0B0BDBFB505466D2000F087F846F637
:10318000637000F08AF803A8FFF778FF04B0B0BDC1
:10319000F8B51D46044606F063FD38B9DDE906279B
:1031A000089E2046294606F060FD00B1F8BD204685
:1031B00039463246BDE8F84006F057BD70B58CB0D0
:1031C00004466F201D221D268DF82E0046F6720043
:1031D000ADF82C0003AD05492846794407F099FF66
:1031E0000BA900F049F80CB070BD00BFE2930000DD
:1031F00070B58CB004466D201D221D268DF82E0062
:1032000046F66370ADF82C0003AD054928467944B5
:1032100007F07FFF0BA900F02FF80CB070BD00BFC6
:10322000AE93000006F021BDF0B591B00C46074604
:1032300010A84021154607F009FCD8B96E4638465B
:10324000314606F008FDA8B900203F21202802D011
:1032500000F028F8FAE710986946402207F020FCB1
:1032600040B910992846224607F08EFC10B910A8E4
:1032700007F002FC11B0F0BD032040222B46CDE93F
:103280000061029020460921FFF782BF0C46CDE97C
:10329000002303218DF80E0070472A462346ADF81F
:1032A0000C007047325C735C335472540139013046
:1032B00070470000B0B5304919F80120824208D1AA
:1032C00000284BD009EB01035A6801325A600346CB
:1032D00006E042EA000409EB0102526820B12346ED
:1032E0001C4609F8013007E0002309EB010564F0F2
:1032F0007F0409F801306B6083421EBF09EB0100B7
:1033000000214160082A0AD30320B2FBF0F000EB51
:103310004000101A08BF44F0400404F07F0402F09B
:103320009FFED8B1014611F8322F4B788D78C978BD
:1033300042EA032245EA012142EA014272B1E1B2C6
:1033400083290CD041290CD042290CD081290CD0E2
:1033500082290CD0032901D1052109E0B0BD042147
:1033600006E0022104E0032102E0002100E0012147
:10337000BDE8B040104700BFE80300002DE9F04D64
:103380008AB08B4606460129069204D872487844D2
:1033900010F80B7004E0BBF1FF0F40F0DA8000275B
:1033A00006987178B278F3788DF82400307842EA84
:1033B0000322B379ADF81E20F27940EA0120317979
:1033C000384443EA0222ADF81C007079ADF822209F
:1033D00041EA0020A0EB4700ADF8200007A807F065
:1033E000C5FABBF1FF0F00F0B48030787178354634
:1033F000B0467C000DF11C0AADF8207040EA0120B7
:10340000ADF81C0015F8020F697840EA0120384435
:10341000ADF81E0018F8060F98F8011040EA0120D8
:10342000001BADF82200504607F0A0FA2878697812
:1034300032797379ADF8207040EA012098F80110D4
:103440003844ADF81E0098F8000040EA0120717879
:10345000001BADF8220000F05FFBADF81C005046E9
:1034600007F084FABBF1000F73D0B246317ADDF871
:10347000188096F9010033781AF802CF43EA002049
:1034800001239AF901200291CDE900883844334C98
:103490004CEA02215A4639447C44A047304696F90A
:1034A00001C032789AF901509AF800E0059410F8BA
:1034B000043F04904178307ACDE90088029043EAD5
:1034C000012042EA0C215A460023C91B08444EEA57
:1034D00005213944A04734469AF901E09AF800C022
:1034E000317A96F90150327814F8063F60780291EB
:1034F0004CEA0E21CDE90088C91B43EA00200223D3
:10350000014442EA0520059D5A463844A8470499DB
:10351000327894F800C094F801E09AF901309AF8F2
:10352000004008784D7896F90110367ACDE9008888
:1035300042EA012140EA05204CEA0E220296C91B0C
:10354000084444EA0321059C0323C91B11445A463D
:10355000A0470AB0BDE8F08D4B920000C500000006
:103560007FB51C4600230A9D012A8DF80D3001937A
:103570008DF80C5037D81D4EDDE908357E44B25C1D
:10358000ADF80820ADF80A2064B1012C14D0022C4B
:103590001BD0032C28D100F0C7FA154815497844F0
:1035A000794419E0ADF80400881AADF80600144813
:1035B0001449784479440FE0891A801A00F0B4FA6B
:1035C000114812497844794406E0801A00F0ACFAB8
:1035D00009480A4978447944AB4208BF014601A82A
:1035E000002207F0CBF97FBD0021F8E75D900000D5
:1035F0003D9000003D9000000B9000000B900000FB
:1036000031900000319000002390000023900000D2
:103610002DE9F04D8CB006469046012908460891E8
:1036200004D8B54808997844475C04E00898FF2816
:1036300040F05E810027DDF850B08DF82C305B45FE
:103640001ED1307A98421BD130787178B278F378F5
:1036500040EA01203179ADF8240042EA0320ADF8B8
:103660002600707941EA0020B179ADF82800F079A0
:1036700041EA0020ADF82A0009A807F077F937E100
:10368000307971797D00069340EA0120B0EB470F55
:1036900018D9B278F378401B7178ADF828003078EB
:1036A00042EA0322B379ADF82620F27940EA0120FC
:1036B000384443EA0222ADF82400ADF82A2009A8D4
:1036C00007F054F90898079501282AD8B079F179BC
:1036D00040EA0120854224D2401B71783446ADF87F
:1036E0002870ADF82A00307840EA012000F00CFA8A
:1036F0003844ADF8260009AD284607F037F92078A0
:1037000061783279737940EA012071783844ADF8F4
:10371000260000F001FAADF824002846079D07F0C6
:1037200025F9307871783446327973798DF82CB078
:103730000DF1240BADF82A80059740EA01203844AA
:1037400000F0E2F9ADF8260042EA0320401BADF894
:103750002800584607F00AF935466278079F15F8A1
:10376000060F697840EA0120217841EA0221A1EBA5
:1037700008010844ADF82600584607F0F7F8287805
:10378000697840EA0120874229D21499C01BB27897
:10379000F378ADF82880ADF82A0030788DF82C1039
:1037A000717840EA01200599ADF8240042EA03202F
:1037B0000844ADF8260009AC204607F0D7F8307869
:1037C00071783279737940EA012042EA0321A0EB53
:1037D00008000844ADF82400204607F0C7F8089810
:1037E000DDF818B0012800F283803546347A149948
:1037F00096F901003378DDF814A015F802CF43EAFA
:103800000020012395F90120CDE9001B02945044CA
:103810003A4C089F4CEA022151447C443A46A04766
:1038200095F90100A0460794344696F901E03278F4
:10383000149B14F804CF0490287861780390307AB0
:10384000CDE9003B002302904CEA012042EA0E2120
:10385000A1EB0A010844DDE9032142EA01213A46CD
:103860005144C04796F901003A463746317A95F8F7
:10387000008096F800E0149B17F806CF049095F9A5
:103880000100039078780291CDE9003B022303996F
:103890004CEA002048EA0121DDF81C80A1EB0A0176
:1038A000014404984EEA00205044C04797F800C0F5
:1038B00097F801E096F9017031782078647895F9ED
:1038C00001302D78149A367A41EA072140EA042023
:1038D000CDE9002B4CEA0E220296A1EB0A01084426
:1038E00045EA03210323A1EB0A011144089AC047CA
:1038F0000CB0BDE8F08D00BFB38F000043FDFFFFAB
:10390000F0B514460A4613F8061F13F8015C5E78FA
:103910009F78DB7841EA062147EA032341EA034125
:103920003DB1064A09EB02032246BDE8F04007F02C
:1039300045B82346BDE8F04007F020B83404000045
:103940002DE9F04D90B0044690F800804678184676
:103950009B461746ADF83A200F9100F0EAF805466D
:10396000207A05940DF13C0A0DF12F048DF83800F2
:1039700068798DF8390048EA06200DF13A060A9078
:10398000002F00F0BC8050463146224600F0D3F8AC
:1039900080469DF82F0010B1BDF83A70F0E7B8F1FD
:1039A000080F30D0B8F10C0F00F0A980E87A8045FC
:1039B000F2D3297B8845EFD82969A8EB000001EBF9
:1039C000C00006F0A3FF074600686969084406F0D6
:1039D0009DFF09907F68687A95F806C0C7F3450295
:1039E00010B3C7F34550C7F3C521ACEB000CC7F3C8
:1039F0004340131AA87A08440790C7F3C3100690EF
:103A0000002004901CE05FFA8BF0082805D00A28FB
:103A1000C2D14FF0080B082002E04FF00A0B0A2039
:103A200000F087F80546B7E73820C7F3C2211346F0
:103A300000EA171008440490002006900020079028
:103A4000E97A5FFA88F00892814202D82A7B8242A2
:103A500031D29846002206990A98DDF81CE0084405
:103A6000ADF83000ACEB0E00ADF83600A8EB01006D
:103A70000599ADF834008878C97840EA012070448F
:103A8000ADF832004AB117F0010006D10CA809992F
:103A9000189B002206F072FF06E00498189B009025
:103AA0000CA8099906F078FF0A9808990844297A21
:103AB000401A0A9070E7A0EB0101984613D92869D3
:103AC00089B2CDF80CC0019100EBC10006F01EFFD9
:103AD00002902869019900EBC100083006F016FF3A
:103AE000DDE9021C06E08242B4D188B2296901EB0B
:103AF000C001284609680068401A82B2ABE75FFA45
:103B00008BF010B0BDE8F08DADF8240014F8020F72
:103B1000617840EA01207047307840EA012042EAAB
:103B20000321C01B08447047ADF80610ADF804002F
:103B3000704706F05BBFF0B504680125264616F80D
:103B4000013B1570F02B15D30D88042D15D34FF4C0
:103B5000E012A678E77802EA8342637803F03F0335
:103B600042EA033206F03F03261D42EA831207F0C1
:103B70003F030FE0E02B0FD30D88032D0FD36278A6
:103B80001B03A6789BB202F03F0243EA821206F0C2
:103B90003F03E61C13440EE00D88C22B09D3022D0F
:103BA00007D36278A61C02F03F0263F38A12134621
:103BB00001E0002717700660A01B28440880184603
:103BC000F0BD01224FF6FF7300F000B82DE9FF4D64
:103BD0001C4601920F4605460391FFF7AAFF0646D1
:103BE000384607F0EDFAA04238BF0446ADF80A4067
:103BF000A0B20DF10C0A0DF10A0B0DF109074FF0FF
:103C00000008002458B3504659463A46FFF793FF40
:103C10000A280AD0014608280CD1E8B2082816D094
:103C20000A2819D10825082013E00198B8B94FF0E7
:103C3000000811E09DF80920304600F019F8804492
:103C4000A1B21FFA88F0884288BF444604E00A25E2
:103C50000A2006F0CBFE0646BDF80A00D2E7A0B265
:103C600004B0BDE8F08D00224FF6FF73FFF7AEBF42
:103C700010B532B90446C07A884202D8227B8A4203
:103C800002D20020C0B210BD081A216901EBC000A9
:103C900006F03CFE0079217AC0F34500401AF1E7B6
:103CA00080B5FFF746FF807980BD80B5FFF741FF03
:103CB000C07980BD10B50021012241F20143445C6E
:103CC0000C2C05D802FA04F41C421CBF88B210BDAB
:103CD0000131F4E72DE9F04D86B01C4603920F4602
:103CE00006460591FFF725FF05463846FFF7E2FF38
:103CF000804600200E9F00210DF1110B0290002044
:103D0000ADF812803980218001905FEA084051D0DF
:103D100005A80DF112015A46FFF70DFF082829D01A
:103D200082460C283FD0BAF10A0F3CD09DF81120F2
:103D300028465146FFF79CFF40B30F9949B1BAF1AD
:103D4000200F18BFBAF15F0F29D13988029121885D
:103D500001913988039A014491422ED8BDF812107E
:103D60002388A8EB010288461A4422803A8810442E
:103D70003880CAE7F0B20A2803D0082806D10A26FC
:103D800000E00826304606F031FE0546BDF8120078
:103D90002288A8EB0001804611442180B5E7BAF1E2
:103DA0002D0FD2D0D5E7BDF812002188A8EB000076
:103DB0000844208006B0BDE8F08D0F9802990028D5
:103DC000F8D00029F6D00198013020803980F1E741
:103DD0002DE9F04D86B01D4602920E46074605912C
:103DE000FFF7A7FE04463046019607F0E9F9DDF833
:103DF0003CA0ADF81200002180B24FF0000B4FF054
:103E000000080391002866D0280464D0059E05A808
:103E10000DF112010DF11102FFF78DFE0146BAF10D
:103E2000000F12D0A1F10800182805D8012202FACB
:103E300000F02F4A104203D15F2901D02D2904D16F
:103E4000BDF81200DDF814B0039008291DD00A292E
:103E500023D00C293ED09DF811202046FFF708FF03
:103E6000A8B31FFA88F100EB0108029880452ED90B
:103E7000BAF1000F18BFBBF1000F1ED10598BDF8B5
:103E800012100596801B08441CE0F8B208280ED0DA
:103E90000A281CD1082708200BE0013D280414D172
:103EA00005984FF000080025013805900FE00A271B
:103EB0000A2006F09BFD044609E00398CDF814B0F3
:103EC0004FF0000BADF81200013D4FF00008BDF8B7
:103ED000120097E7002505980199401A0E9908806D
:103EE000A8B2B0FA80F0400906B0BDE8F08D00BF7E
:103EF000150000012DE9F04D1C4690460E46FFF7D7
:103F000018FE82463046FFF7D5FEDDF820B00746A2
:103F10000020ABF8000020803D463FB36F1EB8B2D2
:103F2000305C0A281FD09AF80B108842F4D39AF814
:103F30000C209042F0D8401ADAF8101001EBC000C3
:103F400006F0E4FC4068BBF80010C0F345000144F3
:103F500041450BD8218801312180BBF8001008446D
:103F6000ABF80000D8E720880130D4E7002D18BF57
:103F700001252846BDE8F08D2DE9FF4D1C46009235
:103F80000D4606460391FFF7D4FD0746284607F085
:103F900017F90021ADF80A0080B24FF0000B4FF086
:103FA00000084FF0000A0191002856D0039D03A895
:103FB0000DF10A010DF10902FFF7BDFD01468CB1BB
:103FC000A1F10800182805D8012202FA00F0284AB9
:103FD000104203D15F2901D02D2903D1BDF80A0079
:103FE000AA460190082921D00A2927D00C2934D0CB
:103FF0009DF809203846FFF73BFE58B31FFA8BF1B6
:1040000000EB010B00998B4524D95CB1BAF1000F8C
:1040100008D00198ADF80A000AF101004FF0000A3B
:104020000390002008F10108834613E0F0B208284D
:104030000BD00A280ED10826082008E008F1010854
:104040004FF0000B4FF0000A04E00A260A2006F0A9
:10405000CDFC0746BDF80A00A6E75FEA0B4018BF93
:1040600008F101081FFA88F004B0BDE8F08D00BF28
:10407000150000012DE9F04D86B0CDE900320C4667
:1040800005910390FFF755FD0290204607F098F840
:10409000ADF8120080B200260DF111074FF0000BB1
:1040A0004FF0010800254FF0000A00286ED0059C53
:1040B00005A80DF112013A46FFF73DFD014608380B
:1040C000182814D8012202FA00F0334A10420ED008
:1040D000BDF812A02546082924D00A290CD00C29A5
:1040E0002AD108F1010800264FF0000B48E05F29B3
:1040F000EED02D29ECD0EEE70BF1010B01991FFA60
:104100008BF0401ABDF81210B0FA80F04009002977
:1041100018BF0121084018BF4FF0000B8044002653
:1041200000252DE00398C0B2082823D00A2827D103
:1041300008200390082020E09DF811200298FFF746
:1041400097FDE8B1B1B2461800998E4218D925B151
:10415000681CADF812A0059000200BF1010B019A2C
:104160001FFA8BF191420ED108F101084FF0000BBC
:104170000646D5E70A2003900A2006F037FC029095
:10418000BDF8120091E700250646F9E75FFA88F0CE
:1041900006B0BDE8F08D00BF150000012DE9F04D1F
:1041A00088B09A4614460E460746FFF7C2FC83467F
:1041B000304607F005F84549804638467944FFF710
:1041C00052FD5FEACA7150D0CDF81CB04FF0010B20
:1041D000201A2546DDE9101206910BEB5A010391D6
:1041E000022190FBF1F04FEA5A014FF0000A80B231
:1041F000029001911FFA88F110464FF00008CDE9B6
:10420000042182454FF0000038BF01208A454FF05D
:10421000000138BF012101EA000414B316F80A7046
:10422000079800223946FFF723FD90B11FFA88F165
:1042300000EB0108A84504D90BF1010B4FF0000871
:10424000EBE703995FFA8BF0814202D10298804537
:104250000ED8069800F80A70DDE904010AF1010A97
:10426000CFE70699002001F80A0008B0BDE8F08DFC
:1042700006992E20002401EB0A0801F80A0088F8AC
:10428000010008F8010CDDE9011001FB05070598A4
:10429000002506EB000A079EA0B287420AD90AEB66
:1042A0000500002210F8011C3046FFF7E1FC044431
:1042B000013DF1E70AEB050108F10200C5F1010239
:1042C000013108B0BDE8F04D06F023BF03740000D3
:1042D00070B50546007848B1194809EB00018A7BA2
:1042E00052B14844817E51B1002426E0144809EBC4
:1042F00000040020A07004E001F10C0401E000F1D2
:10430000180400202646A060206046F8040F686864
:1043100006F0FCFAA060287805F108022070094B2D
:104320007B4420B13046072101F05EFF04E03046B7
:10433000072101F0A1FE00206070204670BD00BF83
:10434000F003000025000000B0B590F83E201148B1
:1043500002235C1C1DD0DCB209EB000504EB440415
:1043600005EB84056D78AA4205D109EB000505EB44
:104370008405AD780DB9013BEBE709EB000202EBD8
:10438000840292682AB1484400EB8400BDE8B04042
:104390001047B0BDF003000070B500284DD00D46A9
:1043A00049780446C80722D06178022001F090FDC8
:1043B0002A786978234B244E002A7B447E440246A7
:1043C00008BF1E4602F8216F330ED370330C937072
:1043D000320A80F822206268A37842F82300032280
:1043E000C2770422827500224272581CA07088078E
:1043F0004FF0000623D56178022001F069FD29788D
:10440000124A134B00297A447B44014608BF1346E5
:1044100001F8213F1A0E4672CA701A0C8A70190AE6
:1044200080F822106168A27841F822000321C17748
:1044300006218175501CA07001E04FF0FF36304618
:1044400070BD00BF706F0000AD6F0000556F0000C1
:10445000146F0000002800F035812DE9F04D88B080
:104460000E4641780546012017461C4601F030FDF6
:1044700080460320002F08BF0120697888F82000BB
:1044800001F088FD4146020E4FF0720A4FF0000B1A
:10449000049701F8220F88F804A088F805B0CA70C4
:1044A000020C000A88F823008A700420697801F061
:1044B0000FFD07460320F877304606F027FA01463D
:1044C000082087F804A087F805B003944FF0010A8C
:1044D000002C08BF0A2087F8220005220B0E87F85F
:1044E00020203A4602F8261FD3700B0C93700A0A5C
:1044F000012387F827207222FFF73EFD0646052894
:1045000005951DD33E4604200DF11E0516F8261F05
:104510007278B378F47806F8010C16F8040C00955C
:10452000059DCDF804A041EA022143EA04220423B8
:1045300000F060FCBDF81E003071000A70710426A6
:1045400000F060FC8346022087F824A0049CB87524
:104550009BF80700002C06FB00FA4FEA1A2087F8A8
:1045600006A0F871404610F8221F42788378C07880
:1045700041EA022143EA002041EA0040076000F0DE
:10458000068103986978022840F09E800520052561
:1045900001F09EFC0026074680F821600120ADF85E
:1045A0001A60ADF8186000F03CFC204606F0AEF949
:1045B00001460E20FE71BD7500F0F1FB652840F24A
:1045C000D680BB4697F8265097F8230001241BF8A5
:1045D000251F9BF802209BF8033041EA052106AE17
:1045E000CDE9006442EA03220DF11A0341EA0241D7
:1045F0006622FFF76FFBBDF81840BDF81A605546FC
:1046000004F10C003871000A78716B48132E28BF32
:1046100013269BF800109BF802209BF8033009EB4F
:10462000000A97F8260041EA002042EA03213246B8
:1046300040EA0141504606F06CFD00200AF80600F1
:10464000B87601208BF800A078764FEA1A60002C2B
:104650008BF803004FEA1A408BF802004FEA1A2049
:10466000AA46059D87F82600404610F8221F42788A
:104670008378C07841EA022143EA002041EA004001
:10468000476000F0828069780520052601F020FC53
:1046900000250746049980F82150012000F0C1FB55
:1046A000BDF81A00084406F031F901460E20FD71EC
:1046B00000F075FB0C300F21BE753871000A78715F
:1046C00002205AE000F0AABB00F099FB032607463F
:1046D000C677204606F01AF901467220002401230D
:1046E000387101200A0E7C7187F824000A2087F8AF
:1046F000220000F065FB04281ED33D4615F826CFA6
:1047000005F8016C15F8040C95F801E0AB78E97830
:1047100007AA00920122019243EA01214CEA0E22EB
:10472000032342EA01417222FFF752FBBDF81C004D
:104730002871000A687103200399002908BF064602
:104740009BF80700BC76BC7506FB00F106FB00A0D9
:10475000B971090AF971022100F1020A797605217D
:1047600087F82010414600F038FB4F600FE00C3016
:1047700008213871000A78710120002279764146BB
:10478000BA7600F02AFB41F820700AF12C0A68681A
:10479000A978052288F816204FEA1A2240F82180CD
:1047A0000020013188F806A088F8072088F81F004B
:1047B000A97008B0BDE8F08D1404000000284FD0A7
:1047C0002DE9F04D0C46054600274FF0050B4FF044
:1047D00003084FF0000A207982453ED26079032811
:1047E00002D3811E514535DC0230504532D3697801
:1047F00000F005FB216806465FFA8AF08847617978
:104800000A228A4508BF082286F82220F7717771AC
:1048100086F820B086F8217086F816B086F81F80DA
:104820003246030E02F8260FD370030C000A937071
:1048300086F827006868AA7840F822600C20B071DA
:1048400072203071AAEB0100010900017076501C42
:10485000B176A8700AF1010ABDE70020BDE8F08D2D
:1048600000F0DCBA002800F0D9802DE9F04D86B0C8
:104870000C4641788246012001F02AFB9AF801108B
:1048800080460320032701F085FB4146020E4FF0CE
:10489000000B049401F8220F88F820B0CA70020CB3
:1048A000000A8A7088F82300A068C0B39AF8011043
:1048B000022001F00DFB0646C777A06806F026F837
:1048C0003146020E86F813B086F809B001F8210FC0
:1048D000CA70020C8A70010A86F82210314601F86B
:1048E00012BF81F803B081F802B0414611F8222FBF
:1048F0004F788C78CD7811F8023C42EA072244EADE
:10490000052442EA0442049C42F823600222B27564
:104910005A1C01F8022C8178C07841EA002B2068EB
:10492000002800F0A2809AF8011000F068FA07460B
:104930000320F877206805F0E9FF01467220002582
:10494000387105200A0E7D7187F82000012087F854
:104950002400384600F8261FC2700A0C8270080A2C
:1049600087F827000820627B002A08BF0A2087F802
:10497000220072220123FFF7FFFA064605281ED304
:104980003D46042001210DF1160415F826CF6A7862
:10499000AB78EE7805F8010C15F8040C0191009441
:1049A000049C4CEA022143EA0622042300F022FA86
:1049B000BDF8160004262871000A6871002500F071
:1049C00021FAC07987F821507043010AB871F97152
:1049D000A16829B3414611F8222F4C7811F8023C06
:1049E0008D78C97842EA042245EA012142EA014170
:1049F0003A4601EB830151F8041C02F8121F0B0E1A
:104A0000D3700B0C090A5170002193701172032EA0
:104A100038BF01218900D17108210AE000F0FEB9F8
:104A2000616819B100F0F2F9022102E000F0EEF93C
:104A3000052111714146584411F8222F4C788D7888
:104A4000CE7811F8023C42EA042245EA062442EA02
:104A50000442049C42F823705A1C01F8022C797E0F
:104A6000BA7E41EA022100EB010B6068002874D095
:104A70009AF801100420CDF80CA001F029FA0326C1
:104A80000746C677606805F041FF01460020012314
:104A9000787172200A0E38710A2087F822000520EA
:104AA00087F82000012087F8240000F089F9824669
:104AB00004281CD33D464FF0010C15F8261F05F8BD
:104AC000016C6A78AB78EE7815F8040C05ACCDE98A
:104AD000004C41EA022143EA0622032300F08AF94E
:104AE000BDF814004FF0030A2871000A687100F045
:104AF00089F9414611F8223F4C788D78CE7811F82B
:104B0000022C43EA042345EA06243D4643EA0443D3
:104B100003EB820454F8044C05F8124F260EEE7095
:104B2000260C240AFC74AE7043F822700223002481
:104B300001327B760823BC7687F82140C079BB75AB
:104B40000AFB00F30AFB00B0DDE903A4BB711B0AFA
:104B500001F8022C00F1020BFB71207B02210028DE
:104B600008BF052188F81610DAF804009AF8021038
:104B7000722240F82180002088F804204FEA1B228E
:104B8000013188F806B088F8190088F81A0088F80A
:104B9000050088F81F0088F807208AF8021006B080
:104BA000BDE8F08D2DE9F04D002877D08B46417897
:104BB000044600F024F94FF0030A064680F81FA0CF
:104BC000DBF8000005F0A2FE0146722000254FF040
:104BD00005080123307108200A0E757186F82080BF
:104BE00086F82200012086F82400304600F8261FAF
:104BF000C2700A0C8270080A722286F82700082008
:104C0000FFF7BAF9012849D896F82200FFF74DF8C6
:104C10006268A3786178B576F57142F82360B07167
:104C2000022086F819A0B075581CA07000F0E7F8B3
:104C3000074680F81FA0DBF80400722605F066FE28
:104C40007D713D460A213E7187F8208087F8221049
:104C500005F8260F010EE970010C000A87F82700FD
:104C60000A20A970FFF721F801212A78AB78ED78A6
:104C700087F82410C1094000F97197F82710B8711E
:104C800097F8220042EA012143EA0522012341EA82
:104C900002417222FFF770F9022804D94FF0FF3663
:104CA0003046BDE8F08D6068A27861780125002665
:104CB000BE7640F8227005207D76B875501CA07035
:104CC000052001F005F94FF0030A4FF0080880F8BD
:104CD000216080F82250074680F820A080F81FA0AD
:104CE00080F823809BF808001E4A1F4901287A4457
:104CF000794408BF11463A460B0E02F8251FD370BF
:104D00000B0C93700A0A87F8262001283846174AA8
:104D1000174D7A447D4418BF2A4600F82D2F130EF4
:104D2000C370130C8370100A87F82E000820FEF75A
:104D30009AFF6168A2786B78BE76FE7187F816805C
:104D400041F822700C2187F819A0B971297841EA3D
:104D500003210844511C0A303871000AA17078718F
:104D60009EE700BF21680000F46800009365000022
:104D70007B65000020B180B501F060F9002080BDA6
:104D800000F04CB848B110B50446007810B1607816
:104D900001F0AEFA0020A07010BD00F03FB8B8716D
:104DA00008200A0E87F82300384600F8251FC27035
:104DB0000A0C8270080A87F826000820FEF753BF05
:104DC000384600F8261FC2700A0C8270080A722248
:104DD00087F827000A20FFF7CFB811F8222F4B7869
:104DE0008D78C97845EA012142EA0322059D42EA0D
:104DF0000141704741EA02417222FEF7E9BF0420F7
:104E000001F066B897F82200FEF793BE00213A46FB
:104E100002F8121FD1709170517070474FF0FF303F
:104E2000704787F82200032087F82000F877704742
:104E300070B5C17E024691B103461A4613F80E4F73
:104E40005D789E78DB7844EA052446EA032344EA49
:104E50000343002BF1D1D37E0BB1012204E092F881
:104E60003F20002A18BF0122064B19F803300BB16E
:104E700002B970BDB1FA81F14A090021BDE8704064
:104E800000F002B8280400002DE9F04D0446C07E71
:104E9000102800F2A9800E465449C140C90767D1C5
:104EA00054491546794451F8200005F02FFD03467A
:104EB000204631462A469847DFF834C194F901303C
:104EC000277809EB0C0539F90C1047EA0327AE885F
:104ED00072188F4207DA27EAE77129F80C10237855
:104EE000677843EA0727B5F90230B5F806E020797C
:104EF00065793FB240EA0520074410B2874200DCE2
:104F00001EB9802FA8BF80273A4694F90300A578E0
:104F10000EEB030645EA00279F4208DA09EB0C0076
:104F200027EAE7734380A078E57840EA052738B29E
:104F3000A579E77945EA07252F1830B2874202DCC8
:104F4000BEF1000F03D1402FA8BF40273E4609EB1A
:104F50000C00511A818031B24029A8BF4026F11AB5
:104F6000C180407A617A814284BF09EB0C004172B2
:104F7000E07E012838D8204610F8221F00F005FFF7
:104F800090B300274FEA14684FEA144A4FEA142BF3
:104F9000002594F82000874226D2204610F8221FD0
:104FA00000F0F3FE50F82760E6B1304629460122B2
:104FB00086F80FB000F80E4F80F8038080F802A04A
:104FC0003046FFF761FF3146F07C11F8122F42EABC
:104FD00000208A78C97842EA012140EA014000288D
:104FE00008BF35460137D4E7BDE8F08DC83E010063
:104FF0002A04000048770000022000F001B80000F9
:1050000070B50D4D014609EB0500808898B109EB9C
:105010000500C08878B109EB05040022002620466F
:1050200005F0DAFC7F20A680E68029F80500012043
:1050300060723F20608070BD2A040000014800F0CB
:10504000E8BE00BF2A040000024980F0010009F810
:1050500001007047280400001FB5017A4278837868
:10506000C4788DF80C10017841EA02210279ADF87C
:10507000041043EA0421ADF80610417942EA012107
:10508000ADF80810C179807940EA0120ADF80A0036
:1050900001A805F06BFC1FBD70B504460AB100F015
:1050A000D5FE00F0E6FEC67C00F0DBFE097A00F8D3
:1050B000061C04D02046BDE8704005F057BC70BD0A
:1050C000F8B50E46044610F8211F174600F053FEAF
:1050D0005DB32878AA786978EB782071A271617144
:1050E000E3712879607227B12046314600F08CFBCD
:1050F000607A21460128204611F80E2F4B788E78D1
:10510000CF7842EA032246EA072342EA03422B46CB
:10511000127A01F8062C14BFE27FE42294F82010E2
:1051200001B0BDE8F040FEF7EBBB204610F8251FAC
:1051300000F048FE05D094F829008847054600286D
:10514000C7D1F8BD2DE9F04D86B090F82260044635
:105150000AB100F07BFE204610F82C1F00F032FE52
:1051600009D094F8300088470546204600F8265FAD
:1051700000F086FE04E0204610F8261F00F0FBFD3C
:10518000002D00F03881224612F80E1F53789778D0
:10519000D07892F813C041EA032147EA0020BCF11D
:1051A000010F41EA0041087A02F8060C19BF097A9A
:1051B0000A4600220321217220788DF81420E3781A
:1051C000BCF1010F6178A27840EA01202179ADF8A5
:1051D0000C0042EA0320ADF80E00607941EA00209D
:1051E000A179ADF81000E07941EA0020ADF8120095
:1051F00003A804D100210322FEF7C0F801E005F066
:10520000B5FB3046FEF74CFD80463046FEF74DFDBF
:10521000834694F82300002857D030462946FEF7ED
:10522000D0FC2179627941EA0222904251D9734F30
:1052300030467F443946FEF716FD8246ADF8100031
:1052400020786178A278E37840EA0120A179ADF86E
:105250000C00E07941EA00200221A0EB08000DF1EA
:105260000C0890FBF1F042EA032103223346084484
:105270003946ADF80E00E07F00904046FEF760FB37
:10528000207961790DF10A02009202AB40EA012017
:105290002946A0EB0A0082B23046FEF72BFEBDF88D
:1052A0000A00ADF81000BDF80C005044ADF80C0039
:1052B0002846FEF7FFFCBDF80820E17F94F8223075
:1052C000801A00912918404693E02079617940EADC
:1052D000012294F8243030462946FEF74DFE237A09
:1052E00094F82570ADF81280A179E27994F821C084
:1052F0008DF81430C3B241EA0221BB42034688BF95
:105300003B46002F08BF0346DFB2781E00FB0B8030
:105310004FF0000880B2081A022190FBF1FA4FF614
:10532000FF70BCF1010F08BF8244474563D020796C
:10533000617994F824200DF10A03F6B2CDE9003228
:1053400040EA01223046294602ABFEF7C3FC94F83E
:105350002000062808D0052813D0042822D1207860
:10536000617840EA01201BE0207861782279637936
:1053700040EA012042EA03210844BDF80A10401A1D
:105380000EE0227963792078617842EA0322BDF841
:105390000A3040EA0120D21A022392FBF3F21044B1
:1053A000ADF80C00BDF80A00A178E278ADF8100065
:1053B00094F8250041EA02215144ADF80E1010B1D5
:1053C0000138404512D900F062FD03A8FEF7B8FA93
:1053D0000646BDF80800DA4408F1010828440546ED
:1053E00015F8011B0A2918BF05469EE700F04FFD7E
:1053F00003A8FEF7A5FA06B0BDE8F08DE96300004A
:105400002DE9F04D86B004460020ADF816000AB133
:1054100000F01CFD2346E07BE27F94F8221013F895
:105420000E5F45EA00209D78DB7845EA032340EAD9
:105430000340007A20722046FDF7A0FF204610F8B6
:10544000291F00F0BFFC09D094F8310088470546B9
:10545000204600F8255F00F013FD04E0204610F818
:10546000251F00F088FC002D76D02078617894F814
:10547000028094F803B040EA012A94F82300ADF8C2
:105480000CA0FEF70DFC2246ADF8120012F82DCF4D
:1054900012F8276C12F8263C12F8291C12F8287C06
:1054A00046EA032341EA0721181A0223ADF8101037
:1054B00090FBF3F048EA0B2318449378ADF80E0004
:1054C000D078527843EA00204CEA022242EA0040B7
:1054D00050B10278407842EA00200230091A824432
:1054E000ADF81010ADF80CA08EB294F82300012294
:1054F0000DF116032946CDE900320DF10A033246BB
:10550000FEF7E8FBBDF81600864206D9301A0221E4
:1055100090FBF1F05044ADF80C00E07F94F82110BE
:1055200094F82330BDF80A2000918DF8140003A8E8
:105530002946FEF705FA00F05EFC47D01878597846
:105540002279657940EA0120BDF8161042EA052269
:105550000144511A02390BE000F04DFC36D01878A6
:105560005978627940EA0120217941EA0221091A39
:105570004FF0020C26786778ADF81000E07F91FBC1
:10558000FCF146EA07268DF81400E078314493F8E0
:1055900002E0DA78A6791D79ADF80C10E1794EEACF
:1055A00002228DF81550A57846EA0121ADF81220A7
:1055B000891A45EA002094F8212091FBFCF1084467
:1055C0000021ADF80E0003A8FEF79AF906B0BDE879
:1055D000F08D7FB504460AB100F038FC00F049FCBC
:1055E000467C00F03EFC0B7A00F8063C08D094F8AC
:1055F00024000121012200902046FEF709F804E072
:10560000204601211A46FDF7B9FE2079617994F808
:10561000202040EA0120023800FB02F1642291FBC5
:10562000F2F18142B8BF0846010420D0ADF808006D
:105630000020A179A278E3788DF80D0094F8240079
:105640008DF80C00E07941EA002061780238ADF86D
:105650000A00207840EA01200130ADF8040042EA57
:1056600003200130ADF8060001A805F07FF97FBDE9
:1056700070B5044610F81F3F45788678C07843EA35
:10568000052346EA002043EA00459DB132B100F00F
:10569000DDFB204610F81F1F00F06DFB032029469C
:1056A00000222072044809EB00032046BDE8704048
:1056B00005F084B970BD00BF340400002DE9F04D41
:1056C00086B00E46044610F8211F174600F05DFB19
:1056D00005F076FD05461FB12046314600F094F8EE
:1056E00003206178A278E37820720020ADF81400DE
:1056F000207840EA01202179ADF80C0042EA03202D
:105700000322ADF80E00607941EA0020A179ADF8DE
:105710001000E07941EA00200121ADF8120003A851
:10572000FDF72CFE217AE07F8DF81410FEF7B8FA11
:10573000ADF8120094F82000092802D906B0BDE89F
:10574000F08D2279637900EB80014FF0080B0DF1A9
:105750000C0A4FF00008494242EA032202EB4101E1
:10576000022291FBF2F72749794401918045E5D265
:1057700021786278A378E678ADF810B041EA02218A
:105780003944ADF80C1043EA062102398542ADF8E0
:105790000E1009DAA8451EDA204610F8211F00F085
:1057A000F4FA10F8080017E0B8F1000F25D0411EF8
:1057B000884510DA214611F8212F4B788E78C97868
:1057C00042EA032246EA012142EA0141081A28443A
:1057D0004044407800E05F208DF80B0000200DF180
:1057E0000B010122009050460823FEF7A9F894F817
:1057F00020000A3708F10108B8E7002001990222C9
:10580000F0E700BF6D5F0000F0B5024612F80E4FE2
:1058100055789678D778137A44EA052246EA072421
:10582000002B42EA04424ED0014611F8124F4D7847
:105830008E78C97844EA052446EA012144EA014108
:10584000002908BF1146914250D00D2B00F08F80E7
:10585000022B00F0AC80032B00F0C480042B00F07E
:10586000E380062B00F00081072B00F01D81082B40
:1058700000F03681092B00F04D810A2B00F06F817A
:105880000B2B00F086810C2B00F0A481012B40F043
:1058900032828B7ACC7AC77D057E91F80CC0497B29
:1058A000C67943EA042347EA052584794CEA0121B5
:1058B0002B44457E83721B0A44EA0624C372837E0E
:1058C00045EA0323ADE0D37FA3B3002943D00B798E
:1058D0004C798D7AC97A43EA042345EA0121047E92
:1058E0001944C37D43EA0423194438E0092B00F02E
:1058F0008B81022B00F09881032B00F0A781042BF1
:1059000000F0BA81052B00F0C281062B00F0DD818A
:10591000072B00F00A82082B00F00E82012B40F0CA
:10592000EA81C17D037E447E857E8172C37244EA32
:105930000521DDE1C37D047EC472837291B18B7950
:10594000CC790D7B497B43EA042345EA0121847E1F
:105950001944437EC1E0C17D037E41EA0321817287
:10596000090AC172417E837E41EA0321C0E100F051
:1059700070FA91F807E044EA03230C7946EA072617
:1059800044EA0524C579234484793344467E8372EE
:105990001B0A44EA0524C372837E46EA03234E7B36
:1059A000097B41EA06214CEA0E26314410E1037ED0
:1059B000C47D8E7ACF7A4D7990F806C090F807E0D2
:1059C00044EA032346EA07260C79477933440679EB
:1059D00044EA0524022546EA0726A41B94FBF5F4B5
:1059E000234411E000F021FA90F807E044EA032391
:1059F000047946EA072644EA05244D7923440C79C4
:105A000044EA05243444E31A83721B0A447EC372B9
:105A10004B7B097B41EA0321837E44EA03234CEA62
:105A20000E242344C91A63E100F0FFF990F807E05F
:105A300044EA0323047946EA072644EA0524CD799B
:105A400023448C79F31A467E83721B0A44EA0524A8
:105A5000C3724B7B097B41EA0321837E46EA032321
:105A600019444CEA0E233EE100F0F3F991F807E007
:105A700044EA03230C7946EA072644EA0524C5795B
:105A8000234484793344467E83721B0AC3724B7B62
:105A9000097B41EA0321837E46EA0323194444EA51
:105AA00005234CEA0E241EE18D7ACE7A077E91F80A
:105AB00006C091F807E0437E847E45EA0625C67D50
:105AC00046EA0726354485722D0AC5724D7B097B4F
:105AD00041EA05214CEA0E25294443EA042306E164
