:02000004C0DE5C
:1000000010B5044662B607F02BF80CB906F02EFEC8
:10001000002010BD70B58AB00C4605466846202108
:10002000164607F0D9FB14B9012006F0AFFF142ED5
:100030000AD3402001210990681C6D46089008A849
:100040002A4606F05DFF08B1002006E005F10C012C
:100050002046142207F0B6FB01200AB070BD1FB580
:10006000044610B9012006F091FF2078E02860D105
:1000700000200390CDE90100607802285CD02028A0
:1000800064D004286CD0052876D0062800F08A8039
:10009000072800F09580082800F09C80092800F0CF
:1000A000A3800A2800F0AA800B2800F0B1800C2859
:1000B00000F0B8800D2800F0BF800E2800F0C68048
:1000C0000F2800F0CD80102800F0D480112800F017
:1000D000DB80122800F0E180132800F0E78014286C
:1000E00000F0ED80152800F0F380172800F0F9806B
:1000F000182800F0FF80192800F00B811A2800F062
:1001000010811B2800F015811C2800F01A811D2881
:1001100000F01F81032840F02481A078002840F0DF
:100120003581E078002840F03181BDE81F4000F0C3
:10013000EAB94FF4DC402BE1A068002800F02381ED
:1001400000F032F901A801F047F91AE1A06800288F
:1001500000F0198100F028F901A801F019FB10E165
:10016000A078002840F01281E078002840F00E814D
:10017000BDE81F4000F060B9A178012900F20681B6
:10018000E078002840F00281A068002800F0FB80A1
:10019000019020790029029018BF012101A800F0E8
:1001A0005FF9EEE0A178002900F0DE80032900F27B
:1001B000ED80E07840F08002802A00F0D980E5E010
:1001C000A068002800F0DF8000F0EEF801A800F041
:1001D00085FAD6E0A068002800F0D58000F0E4F8A9
:1001E00001A800F042FACCE0A068002800F0CB8023
:1001F00000F0DAF801A800F0D7FAC2E0A068002801
:1002000000F0C18000F0D0F801A800F031FCB8E0A7
:10021000A068002800F0B78000F0C6F801A800F040
:100220008DFBAEE0A068002800F0AD8000F0BCF8C7
:1002300001A800F0C4FBA4E0A068002800F0A3809F
:1002400000F0B2F801A800F033FB9AE0A0680028A3
:1002500000F0998000F0A8F801A800F07DFC90E083
:10026000A068002800F08F8000F09EF8BDE81F40D5
:1002700000F052BAA068002800F0858000F094F8E1
:1002800001A800F01FFD7CE0A06800287BD000F0F2
:100290008BF801A800F0CBFD73E0A068002872D0B5
:1002A00000F082F801A800F08AFE6AE0A068002849
:1002B00069D000F079F801A800F0D2FE61E0A068F2
:1002C000002860D000F070F801A800F0FFFE58E0B0
:1002D000A068002857D000F067F801A800F03AFFA6
:1002E0004FE0A06800284ED000F05EF801A801F0B1
:1002F0001FF946E0A078012848D8E078002845D1C9
:10030000A06800283FD000F04FF801A801F0D8F80D
:1003100037E0A068B8B300F047F801A801F04EF943
:100320002FE0A06878B300F03FF801A801F070F961
:1003300027E0A06838B300F037F801A801F0AEF963
:100340001FE0A068F8B100F02FF801A801F0BAF999
:1003500017E0A068B8B100F027F801A801F0C8F9CB
:100360000FE04FF4DA4013E0E07880280ED18020CF
:10037000A26842B1019222790292C20901A800F05A
:10038000D9F804B010BD46F6872001E046F6862075
:1003900004B0BDE8104000F000B880B5024600206F
:1003A000002106F023FC80BD019020790290704767
:1003B000BFB506F0FDFB01F069FB1B484FF43C7133
:1003C000484407F00DFA1A48784406F0E5FF8078B3
:1003D00001280DD001208DF802000020ADF80000AA
:1003E0001448784406F0D8FF6946032207F004F861
:1003F0000E4D01AC06F0E4FB002814D4024609EBD4
:100400000501204606F059FC30B12046FFF727FED3
:10041000B0F1FF3FEEDC06E00020002146F6872227
:1004200006F0E4FBE6E7BFBD000000004C0600005C
:10043000348A00001A8A0000F8B50848784406F0AB
:10044000ABFF00214FF4104203910821CDE90101D7
:1004500001A8012106F0CAFB04B080BDE6770000C8
:10046000F0B585B0234F0C4605464FF43C7109EBBF
:100470000706304607F0B4F9002006F53B7109F88D
:10048000070086F8C002284606F0DEF908B309EB3B
:10049000070090F8EC2200F53171284606F027FAA3
:1004A000B8B109EB07000021052290F8EC32CDE944
:1004B0000221049100F1490500F1080600F53172AE
:1004C00000202121CDE9006506F0D2FA40B180B2CA
:1004D00001E046F6872005B0BDE8F04000F00CB81A
:1004E000002C05B0BDE8F04008BF01F09BB901F059
:1004F000B1BB00BF0000000080B502460020002113
:1005000006F074FB80BDF8B5002001214FF41042C5
:100510008DF802008DF80100039003208DF8031080
:10052000012102900DF10100019001A806F05EFB8F
:1005300004B080BD70B586B0464E044691B109EB5B
:10054000060090F8C00201282CD109EB06001546E0
:100550006268D0F808021118B1F5FF7F25D94BF277
:10056000040039E009EB06054FF43C71284607F01A
:1005700037F9002005F53B7109F80600012085F8E0
:10058000C002204606F060F948B109EB060090F879
:10059000EC2200F53171204606F0A9F9B8B946F60B
:1005A000872019E04BF2070016E009EB060108442A
:1005B00000F10801204606F0C4F958B109EB060124
:1005C0006268D1F808021044C1F808024DB14FF436
:1005D000104001E04BF2050006B0BDE8704000F0AD
:1005E0003DB80021CDE9020109EB060000F1080148
:1005F000019100F5047101A801F067F9012814D1F7
:10060000012009F8060009EB0600D0F8081200F5F1
:100610000E72059100F10801049104A8012106F071
:100620006FFC40B14BF2060001E04BF2050000F018
:1006300015F806B070BD09EB0600D0F82C0206498B
:10064000794407F011F910B101F0F5FBF1E701F081
:10065000EFFBEEE700000000F973000080B50246F2
:100660000020002106F0C2FA80BD10B5D0B00446CB
:10067000406820280BD1206840A9202201F0DEFB31
:1006800088B940A8402100F017F800200DE0684626
:100690000921402206F062FC28B9D4E9001268461C
:1006A00006F061FC18B101F08FF850B010BD68463B
:1006B00040A906F04EFCE3E7F8B5002201AB07C302
:1006C00001A801214FF4104206F090FA8FBD80B5C9
:1006D00002460020002106F089FA80BD10B5F2B074
:1006E000044668460621202206F038FC50B9D4E9B9
:1006F0000012684606F037FC20B968466AA906F081
:1007000028FC18B101F060F872B010BD6AA801F0C1
:100710007AF80020F8E7000010B5A4B001F050F816
:1007200090BB14AC1D4920222046794407F04AF8BA
:100730000CA81B492022794407F044F804A8194961
:100740002022794407F03EF803A82021224601F038
:1007500048F8C8B902A80CAA01F039F8A0B901A854
:1007600004AA01F034F878B9684601F037F858B9AE
:10077000DDE90213DDE9000206F0D4FE20B900989D
:100780001CA901F028F818B101F01EF824B010BD22
:100790001CA801F038F80020F8E700BF72770000CD
:1007A000E67600005A7800002DE9F041ADF5087DAD
:1007B000044660A83C49A022794407F003F800F001
:1007C000FFFF60BB002048A9FF22602802D00A5426
:1007D0000130FAE735496D4620222846794406F073
:1007E000F1FF09A820212A4600F0FBFFB8B908A8AC
:1007F0006A4600F0ECFF90B90AA8202106F0D8FE66
:1008000068B909990AA806F0DDFE40B90DF1300873
:100810000AAB05210522404602F0D0FD28B100F0C8
:10082000D3FF0DF5087DBDE8F081002760AE0D987F
:10083000874212D208EB870531462022E86906F08C
:1008400021FE0028EBD1E869119A014606F0C4FEAA
:10085000013720360028EAD0E1E708AA4046002107
:10086000012302F011FE2068119A007808EB800441
:1008700054F8180F014606F0BBFE0028CFD12068BF
:1008800048A900F0A8FF0028C9D148A86021FFF7B7
:1008900013FF08A806F0E2FD0028C0D106F0C0FD55
:1008A0000028BCD10020BCE7C478000020780000FC
:1008B00070B5D0B0044600F083FFA0BB48A81D4926
:1008C0002022794406F07EFF01AD1B4920222846F4
:1008D000794406F077FF09A820212A4600F081FF1D
:1008E00008BB0AA8202106F063FEE0B909990AA80E
:1008F00006F068FEB8B90CA80AAB0521052202F083
:100900005DFD80B9206806780CAC48AD2EB120465C
:10091000294602F04FFD013EF8E748A800F073FFBA
:1009200006F07EFD18B100F04FFF50B070BD002002
:10093000FBE700BF1A7500002C770000B0B5ADF5DD
:100940001A7D01680022FF230D785AACB2F5807F32
:1009500002D0A3540132F9E7406801311AAA0138E4
:1009600028B111F8013B013802F8013BF8E700F02B
:1009700027FFE8B904A800F052FFC8B904A801A9EC
:1009800002F000F8A0B904A81AA901AA01F08CFA93
:1009900070B904A804F1200301A900F037FF38B9A9
:1009A000049841005AA8FFF787FE06F039FD20B1F0
:1009B00000F00AFF0DF51A7DB0BD0020FAE7F0B592
:1009C000ADF52B7D064600680021FF2205786BAC53
:1009D000B1F5807F02D062540131F9E771680130CE
:1009E0002BAA013929B110F8013B013902F8013B6A
:1009F000F8E700F0E5FEA0BB30680AAA002102ABD0
:100A0000202907D046187778575496F821605E540D
:100A10000131F5E715A800F002FF10BB15A812A9D7
:100A200001F0B0FFE8B915A82BA912AA01F03CFA11
:100A3000B8B915A804F1200312A900F0E7FE80B9A7
:100A40002020CDE9000415A80AA912AA02AB01F0E2
:100A500053FA30B96BA86021FFF72EFE06F0E0FCD8
:100A600020B100F0B1FE0DF52B7DF0BD0020FAE7BE
:100A70002DE9F045EBB0054600680DF1AB04FF2110
:100A800006780020B0F5807F02D021540130F9E7CC
:100A900000F096FE002854D114AF3146384602F0DB
:100AA000F1F800284DD107F10C060DF2AB123846D3
:100AB000314602F090F8002843D19DF8AB114CF676
:100AC000012001293DD122490DF1240A202250465E
:100AD000794406F077FE01AF1E492022384679445A
:100AE00006F070FE0DF1440814A851463A464346FC
:100AF00002F0B9FA28BB14A80DF2AB12314602F08D
:100B00006AF8F0B99DF8AB0101284CF6012018D124
:100B1000D5E90001CDF80080421C4B1E14A83146D7
:100B200002F026FB68B914A804F1400311A900F0F3
:100B30006DFE30B90DF1AB0000F05DFE06F070FC0B
:100B400020B100F041FE6BB0BDE8F0850020FAE76F
:100B50004C7500005E750000F0B5EFB005464068CA
:100B6000412801D8022802D246F6872015E02868DD
:100B7000FF21067800202FACB0F5807F02D02154F1
:100B80000130F9E700F01CFE20B919A8314602F047
:100B900079F820B180B2FFF79AFD6FB0F0BD022E58
:100BA0000CD0012E28D10BAE424920223046794488
:100BB00006F008FE03AF4049794409E00BAE3F4917
:100BC00020223046794406F0FDFD03AF3C497944CC
:100BD0003846202206F0F6FD19A816AB31463A46F3
:100BE00002F041FA0028D5D119A80BA903AA13AB2A
:100BF00002F039FA0028CDD100200DF10B028DF85A
:100C00000B0019A816A901F0E6FF0028C2D19DF833
:100C10000B00012842D119A813AE0DF10B02314689
:100C200001F0D9FF0028B5D19DF80B00012838D17B
:100C30001A980DF10B0106F0B1FC0028AAD19DF81D
:100C40000B00012830D11B980DF10B0106F0A6FC1A
:100C500000289FD19DF80B00012828D1D5E900017B
:100C60000096421C4B1E19A816A902F081FA002812
:100C700090D119A804F1200313A900F0C7FD0028A2
:100C80007FF488AF06F0CCFB00287FF483AF19987F
:100C900041002FA8FFF710FD00207EE74CF6012051
:100CA00079E74CF6022076E74CF6032073E74CF622
:100CB000042070E78E720000047300009872000038
:100CC000CE7100002DE9F04DADF5047D05460068BC
:100CD000FF220478002044A9B0F5807F02D00A5496
:100CE0000130F9E700F06CFD28BB0DF1B808214692
:100CF000404601F0C7FFF0B927A800F06FFDD0B95A
:100D0000286800210FAA0130602903D0435C5354A6
:100D10000131F9E70FAA00212BAF0C1D102C10D0C8
:100D200078182021202302F1200506F08BFB0028F3
:100D30002A462146F1D000F047FD0DF5047DBDE8BF
:100D4000F08D08F10C004FF0000A01260DF10C0B9C
:100D5000019044ADBAF10C0F3BD028A8202100EB44
:100D60000A04204606F064FB0028E4D120683146DE
:100D700006F09EFB0028DED14046594601F002FEF7
:100D80000028D8D1029607EB0A06019940465B4637
:100D9000324602F087F90028CDD12068294600F0BC
:100DA0001AFD0028C7D1306805F1200100F013FDBD
:100DB0000028C0D14046594602F015F9029E403540
:100DC0000BF10C0B0AF1040A2BAF01360028C1D03D
:100DD000B1E72798032300902EA828A92BAA01F099
:100DE00042FA0028A7D1279844A92022C03106F052
:100DF00069FB00289FD12EA827AA03AB019902F016
:100E000051F9002897D144A800F1E0022EA803A9C7
:100E10000FAB02F0C2F800288DD144A800F0EBFC23
:100E200006F0FEFA00287FF486AF002085E72DE962
:100E3000F04DADF50A7D04460068FF2205780020DC
:100E400048A9B0F5807F02D00A540130F9E700F0DC
:100E5000B7FC90BB32A800F0E2FC70BB2068002217
:100E60001AA90230202A03D0835C8B540132F9E79F
:100E70006268023ACDE9880201F1200288A80121C6
:100E800006F04BF8C8B91AAA002117AC0D1D102D99
:100E90000BD060182021202302F1200606F0D2FAA0
:100EA000002832462946F1D007E00AA800F096FC57
:100EB00018B909A800F092FC28B100F085FC0DF5E6
:100EC0000A7DBDE8F08D4FF000080DF5907B0BAE6C
:100ED0000DF1C80A0024B8F1100F4DD005A820214B
:100EE00000EB0807384606F0A3FA0028E5D101A870
:100EF000202100EB0805284606F09AFA0028DCD1EC
:100F00000998214606F0D4FA0028D6D1286821464F
:100F100006F0CEFA0028D0D15046314601F032FD1D
:100F20000028CAD1DDE9093002220090504617A9F5
:100F300001F0DBF90028C0D138680A9906F0AEFA52
:100F40000028BAD15046314602F04DF80028B4D1FD
:100F50000998594600F03FFC0028AED10A980BF1E1
:100F6000200100F038FC0C3601340BF1400B08F185
:100F700004080028AFD0A0E700210C1D102C07D0DA
:100F800017A8084406F06AFA00282146F5D094E72D
:100F90000A980323009001A8011D05A8021D32A88C
:100FA00001F061F900287FF488AF48A800F023FC25
:100FB00006F036FA00287FF480AF00207FE7B0B556
:100FC000D8B0044600F0FCFB002842D1206801782C
:100FD00002A801F057FEE0BB01A800F0FFFBC0BB78
:100FE00000F002FC02F06CFB98BB019818AD2022C7
:100FF000294606F067FA60BB00F0F6FB02F06EFBD4
:1010000038BB019805F1200100F0E5FB08BB00F0BA
:10101000EBFB02F077FBE0B9019805F1400100F02D
:10102000DAFBB0B900F0E0FB02F07AFB88B9019876
:1010300005F1600100F0CFFB58B9049805F1E0011B
:1010400000F0C9FB28B918A800F0D5FB06F0E8F9B4
:1010500018B100F0B9FB58B0B0BD0020FBE70000AC
:1010600010B5ADF5507D044600F0AAFB10BB20681A
:1010700001787AA801F006FEE0B979A800F0AEFB8D
:10108000C0B901AC10494FF4F0722046794406F023
:1010900099FB799B7AA82146032201F0B7F948B958
:1010A000799890A92022203106F00CFA10B906F0A8
:1010B000B7F920B100F088FB0DF5507D10BD90A868
:1010C00000F0A1FB0020F7E79070000070B5ADF5CF
:1010D0006A7D044600F074FB68BB2068017894A820
:1010E00001F0D0FD38BB94A891AC214601F04AFC38
:1010F00008BB19AD15494FF4F0722846794406F043
:1011000061FB01AE124960223046794406F05AFB79
:10111000009494A829463246032301F0F4F950B90B
:10112000AAAA94A891A902F1200301F036FF10B9F0
:1011300006F076F920B100F047FB0DF56A7D70BD31
:10114000AAA84021FFF7B8FA0020F6E700720000D5
:10115000D27300002DE9F045ADF2D44D044600F005
:101160002FFB002840F0198120680178DFA801F0EA
:1011700089FD002840F01181DEA800F02FFB002837
:1011800040F00B81DFA8DBAD294601F0FBFB002816
:1011900040F0038163AC85494FF4F07220467944F6
:1011A00006F010FBDE9BDFA82146032201F02EF99A
:1011B000002840F0F2800DF57578DE982022202678
:1011C000414606F07FF9002840F0E78078490DF5A8
:1011D000B67A20225046794406F0F4FA53A87549AD
:1011E0002022794406F0EEFA4BAC734920222046C7
:1011F000794406F0E7FA08F120078DE8D000DFA86F
:1012000063AA5146032301F0EFF9002840F0C5809E
:101210000095DFA863A93A46032301F074F900287A
:1012200040F0BB80DFA808F1800208F1A003DBA931
:1012300001F0B3FE002840F0B0803BAD5F49402292
:101240002846794406F0BEFA33A85D4920222024BE
:10125000794406F0B7FADE982A46CDE90040DFA8C7
:10126000DBA953AB01F04CFA002840F09680DE98E1
:1012700008F1C00100F0AFFA002840F08E8029A8E4
:1012800050492022794406F09DFA32A800F0A6FACF
:10129000002840F0828031A829AA00F098FA00289E
:1012A0007BD1DE99DDE9312006F060F9002874D1A8
:1012B000329808F1E00100F08EFA00286DD121ACDF
:1012C000414920222046794406F07CFA19A83F497A
:1012D0002022794406F076FA11A83D49202279446B
:1012E00006F070FA09A83B492022794406F06AFA10
:1012F00008A82021224600F074FA00284DD107A842
:1013000019AA00F064FA002847D106A809AA00F03B
:101310005EFA002841D105A811AA00F058FAE0BBF6
:1013200003A833AA00F053FAB8BB04A800F056FA99
:1013300098BB319B0799DDE9032006F00BF960BBF0
:10134000319BDDE90521079806F004F928BBDDE9AA
:101350003132DDE9060106F0FDF8F0B9319B069A5D
:10136000DDE9030106F0DEF8B8B9319B089ADDE942
:10137000031006F0D7F880B9319A0499DE9806F088
:10138000F5F850B9DE98F5A900F025FA28B9F5A8C6
:1013900000F031FA06F044F828B100F015FA0DF229
:1013A000D44DBDE8F0850020F9E700BF9E73000032
:1013B000066D00007A6B00004C6D0000DA740000CE
:1013C000AC6C0000186C0000366B00004A6C00002A
:1013D0007E6D0000D26A00002DE9F04DADF5876DFD
:1013E000044600F0EDF9002854D120680178B8A82F
:1013F00001F048FC00284DD12A490DF580784FF4C2
:10140000F0724046794406F0DDF927490DF1E00A13
:1014100020225046794406F0D5F924490DF1C00B3D
:1014200020225846794406F0CDF928AC20492022E4
:101430002046794406F0C6F918AF1E4940223846C6
:10144000794406F0BFF910AD1B49202228467944A3
:1014500006F0B8F908AE194920223046794406F062
:10146000B1F90321CEA8CDE900B4CDF810A02A46E9
:101470003B46CDE9028120210790CDE90516B8A8A9
:10148000012101F097F928B9CEA800F0BCF905F0C8
:10149000C7FF28B100F098F90DF5876DBDE8F08D14
:1014A0000020F9E73871000048690000D8690000A1
:1014B000EA6A0000DC7200000E6C00006069000047
:1014C000B0B5AAB00068FF21057800201AAC40280A
:1014D00002D021540130FAE700F072F9F8B904A8FB
:1014E00000F09DF9D8B904A801A901F04BFAB0B9F0
:1014F0000E4809EB000104A801AA00F0D5FC70B960
:1015000004A804F1200301A900F080F938B9049877
:1015100041001AA8FFF7D0F805F082FF18B100F0DB
:1015200053F92AB0B0BD0020FBE700BF5003000014
:1015300070B5BCB005460068FF210478002024AED9
:10154000602802D031540130FAE700F039F968BB65
:101550002868002103AA0130202903D0435C53549A
:101560000131F9E70EA8214601F08CFBF0B90EA875
:101570000BA901F007FAC8B90F4C0EA80BAA09EB8A
:10158000040100F091FC88B9202009EB0401CDE9A9
:1015900000060EA80BAA03AB00F0AEFC30B924A8DD
:1015A0006021FFF789F805F03BFF18B100F00CF956
:1015B0003CB070BD0020FBE750030000B0B504460E
:1015C00010484022D4E90015484406F0FBF80E48C4
:1015D000216820224844403106F0F4F80B48216885
:1015E00020224844603106F0EDF800F008F9802D23
:1015F00004BF0020B0BD46F68720BDE8B040FFF72D
:1016000066B800BFF0020000300300005003000085
:1016100070B5BCB0044600F0D3F8A8BB20680178D0
:1016200006A801F02FFB78BB06AD6E462846314672
:1016300001F0A8F906F10C042846214601F0A2F9B0
:101640001448334609EB0001134809EB0002284611
:1016500000F0ABFEC0B91CAD06A8694605F1200339
:101660002A4601F09AFC78B905F1400205F16003C1
:1016700006A8214601F091FC30B91CA88021FFF793
:101680001BF805F0CDFE18B100F09EF83CB070BD1F
:101690000020FBE7500300007003000010B508496C
:1016A00009EB010200F0B5F800F0A9F8F02C04BF36
:1016B000002010BD46F68720BDE81040FFF707B8B0
:1016C000B003000010B50949494401F1F00200F0EF
:1016D000A0F800F094F8F02C04BF002010BD46F6EE
:1016E0008720BDE81040FEF7F2BF00BFB003000046
:1016F00070B5B6B0006800212EAD202903D0425C41
:101700006A540131F9E700F05BF860BB10A80221D0
:1017100001F0B8FA38BB08AC1C492022202620462C
:10172000794406F04FF814484844C17F26A8CDE913
:101730000456CDE906400320039010484844029027
:101740000F48484400F12002CDE900020D4809EBA2
:1017500000020D4809EB000310A801F02BF810B9A6
:1017600005F05EFE18B100F02FF836B070BD26A867
:1017700000F049F80020F8E730030000B003000053
:101780007003000050030000F00200009C6600009F
:1017900010B50A4909EB0102D0E9001410464022B5
:1017A00006F010F800F02BF8402C04BF002010BD0C
:1017B00046F68720BDE81040FEF789BF70030000A1
:1017C0002020002105F022BE80B2FEF780BF20213C
:1017D000202305F037BE202205F074BE202105F03D
:1017E00027BE202305F02EBED4E90001019B049AF8
:1017F0000130013970474FF48071FEF75DBF4FF43F
:101800001040FEF764BF2021FEF756BF224601F0CC
:10181000C4BBD0E900141046F02205F0D3BF29461E
:1018200001F030BAB0B59AB041200DF10504412263
:101830008DF805000B4809EB0005601C05F1080157
:1018400005F0C0FF202005F1490120228DF8470056
:1018500004F1430005F0B6FF2046632100F004F8D0
:101860001AB0B0BD00000000F8B5002201AB07C3FC
:1018700001A801214FF4104205F0B8F904B080BD71
:10188000F0B599B00DF102046121651C284605F000
:10189000A3FF084800F010F88DF8026005F092FFF1
:1018A00097F8B91230194170B11C2046FFF7DCFFE0
:1018B00019B0F0BD0000000009EB0007284697F8BA
:1018C000B86207F516713246704770B50D4604468A
:1018D00010B9012005F05AFB15B9012005F056FB9F
:1018E0006068B0F5FF7F01D9F9204BE0204629461A
:1018F000002204F0BFFF30B32068A168084414211F
:10190000A861204604F095FFF8B105F108012046D2
:101910000022002604F0AEFFC8B105F120012046E8
:10192000C5E9046604F0C6FF296A90B9686A5FEAEF
:1019300050004FEA31020023D2F1E80273EB0000BD
:1019400007D2FC201EE0FF201CE0FE201AE0FD2054
:1019500018E02068A2681044E861204604F069FF9E
:1019600068B105F11C030DCB00F00EF848B1D4E9C5
:1019700001126FF006008A4208BF012002E0FB203E
:1019800000E0FA2040B270BDF8B51C461546064688
:1019900010B9012005F0FAFA002000230246401B8E
:1019A000194673EB040006D2B756501C41F10003F0
:1019B000B7F1FF3FF2DC0020521BA14128BF0120FC
:1019C000F8BD08B1FFF72EBF46F6851000F000B84D
:1019D00080B502460020002105F008F980BD000016
:1019E0002DE9F0418CB078B3DFF894800220002517
:1019F0002027032240F201640DF12C0C0DF1280E7A
:101A00000B9509F8080060200A9009EB080090F88F
:101A1000EC3200F50E7100F51676CDE9004200F5C6
:101A2000317200200895CDE906C5CDE902172121C4
:101A3000CDE9046E05F050F888B14BF2080009F8C2
:101A40000850FFF7C5FF17E00D48002109F8001006
:101A500046F685100CB0BDE8F041FFF7B9BF0A9912
:101A600009EB080080F8B8129DF82C1001F0010174
:101A700080F8B912FFF704FF0CB0BDE8F08100BF99
:101A800000000000FF2005F045FE0000BFB5194C26
:101A900017487C4409EB000500F0D8F8142169735D
:101AA0001549164A79447A44C5E90121007828731A
:101AB00000F0CCF8152169761149124A79447A442C
:101AC000C5E904210021407828760F480F4A104BC1
:101AD00078447A447B44CDE90032CDE902100022FB
:101AE000FF230C480C497844794403F03BF9BFBD0F
:101AF000900500006A73000080600000E76100004C
:101B0000E3600000575F0000B1FFFFFF966C00002C
:101B1000886C00003C610000A95D0000BFB5224C4C
:101B2000152809F8042011D014282AD109EB04053E
:101B30001E4C7C4400F08AF80078B0FA80F040092E
:101B400028738DF80F0000F081F815E018487844EC
:101B500005F022FC4078A8B109EB0405154C7C4443
:101B600000F074F84078B0FA80F0400928768DF8DB
:101B70000F0000F06BF801300DF10F01012205F0AC
:101B80003BFCBFBD0C480D4978447944CDE90010B9
:101B90000B480C490C4A0D4B784479447A447B44F9
:101BA00003F058FDBFBD00BF90050000CA720000E1
:101BB000AE7200009E720000450000003B60000015
:101BC000505E00007B5E0000115F0000F7600000C7
:101BD000B0B586B0A8B1174C15487C4409EB000598
:101BE00000F034F84078B0FA80F0400928768DF89B
:101BF000170000F02BF801300DF11701012205F05C
:101C0000FBFB0B48002119F800300B480B4A0C4C29
:101C100078447A447C44CDE90042CDE902100022A8
:101C2000084809497844794403F09CF806B0B0BDEF
:101C3000900500002272000071FEFFFF566B00004D
:101C4000486B0000FE5F00006B5C0000204605F062
:101C5000A3BB000070B588B0224E09EB060119F84D
:101C6000060091F8C01208432AD11F4D2B2109EB21
:101C7000050005F0B1FD03AC1421204605F0ACFDD4
:101C800009EB0600214614220830FEF7C3F908B319
:101C900009EB050203A814212B2304F047FF0130B0
:101CA00018D01248002400217844CDE9004009EB07
:101CB00005000F4A0F4B7A447B4403F0CDF90EE048
:101CC000002009F806004BF2070008B0BDE870409C
:101CD00000F012B84BF2020000F00EF80446204665
:101CE00008B070BD00000000AC0500005D00000001
:101CF000555D00004D60000080B5024600200021C7
:101D000004F074FF80BD000010B50446FFF759FED3
:101D10000720002C18BF062002497944BDE8104076
:101D200003F08CBB6FFDFFFFF0B585B02D4F04466F
:101D300009EB070090F8C002012837D119F8070015
:101D4000012833D1284E402109EB060000F134056B
:101D5000284605F041FD09EB070014212A464023DF
:101D60002D3004F0E3FE013026D0204909EB0600B7
:101D70000246794442F8141F0121C172017200F138
:101D8000340149F806208161002119487844D4B112
:101D9000CDE90210CDE9001109EB06010020154A3A
:101DA000154B7A447B4403F045F918E0002009F80C
:101DB00007004BF2070001E04BF2020005B0BDE85E
:101DC000F04000F01FB8CDE90011029009EB0601C8
:101DD00000200A4A0A4B7A447B4403F06BF8002047
:101DE00005B0F0BD00000000D8050000395F00001C
:101DF00085000000695C0000745F0000355C000035
:101E0000405F000080B502460020002104F0EEFE95
:101E100080BD000010B50446FFF7E2FD034984F0E1
:101E200001007944BDE8104003F008BB67FCFFFFE8
:101E30000120FFF779BF0020FFF776BF2DE9FC4DA9
:101E40000C46CDE90002684601210126224605F034
:101E500064F8054618BB207800F0F8002070E07F99
:101E600066F39F10E077D4E900010E4E7E44B04740
:101E700080468A46D4E90201B04783460F46D4E93A
:101E80000601B047C4E90001D4E90401B04704F1F8
:101E9000080282E8030804F1140080E8800528465F
:101EA000BDE8FC8D2503000070B592B014460268B1
:101EB00002AE054608463146FFF7C0FF002000216C
:101EC000202809D0325C4901130641EAD36131541C
:101ED00002F007010130F3E72946284651F80C3B90
:101EE000009402AA01F044F918B92846214601F0ED
:101EF0007AF812B070BD00002DE9F04DADF5467DC9
:101F00000546CE98202818D10E4682A928461F469D
:101F1000924600F037FD88B92A6872AC30462146F7
:101F2000FFF78CFF50B9DDF83CB300205AA92028F8
:101F300008D0225C0A540130F9E794480DF5467D3B
:101F4000BDE8F08D12A80921402205F007F800280D
:101F5000F4D104F1200112A8202205F004F8002891
:101F6000ECD112A83946202204F0FDFF0028E5D16B
:101F700012A862AC214604F0ECFF0028DED13F201D
:101F800072A9421C04D0225C013801F8012BF8E749
:101F900089A872AA4021402305F054FA0028CDD127
:101FA00087A8402105F044FA0028C7D178490DF1EF
:101FB000080840224046794405F004FC88A84021E6
:101FC0004246402305F03EFA0028B7D18999DDE961
:101FD000870205F0CBFA0028B0D187AA05F10C01E1
:101FE00082AB284601F05EF80028A7D182A92846D6
:101FF00000F0F9FF0028A1D10BF1200382A92846A7
:102000005A4600F0CAFF002898D1879852A920228A
:1020100005F058FA002891D188A805F01FFA002889
:102020007FF48CAF89A805F019FA00287FF486AFF9
:1020300087A805F013FA00287FF480AF284600F047
:1020400050FF00287FF47AAF05F120048AA800F041
:10205000A5F800287FF472AF1F2062A9421C04D0AB
:102060003A5C013801F8012BF8E78299919805F064
:1020700015FA00287FF462AF8399929805F00EFA62
:1020800000287FF45BAFDAF80010939805F006FAA9
:1020900000287FF453AFDAF80410949805F0FEF9A5
:1020A00000287FF44BAF959862A9202205F0EAF949
:1020B00000287FF443AF95982246014605F08CFA3C
:1020C00000287FF43BAF82A9284600F070FC00286E
:1020D0007FF434AF85A8202105F0AAF900287FF409
:1020E0002DAF8AA885AA0021012301F0CDF900288F
:1020F0007FF424AF85982246014605F079FA00283E
:102100007FF41CAF86A85AAA2021202305F09AF953
:1021100000287FF413AF01A8202105F089F90028D9
:102120007FF40CAF08F1200288A82021202305F0BD
:1021300089F900287FF402AF889BDDE985120198B8
:1021400005F008FA00287FF4F9AE859852A92022FC
:1021500005F098F900287FF4F1AE889B019ADDE93B
:10216000851005F0DFF900287FF4E8AE889ADDE9F4
:10217000850105F0FBF900287FF4E0AE85980BF1AE
:102180004001202205F09EF9D8E600BF034E4B5ACD
:102190000A6800000ABA01BA1046704705210522F4
:1021A000234601F00BB92DE9F04585B00E460746F0
:1021B00003A8202100F0DAFB88B902A800F0CFFBC9
:1021C00068B901A800F0CBFB48B90398012105F0DC
:1021D0006FF920B90298012105F06AF910B105B034
:1021E000BDE8F085DDF830800DF1100A1EB33868C7
:1021F0002946524605F072F90028F0D10498B8B18A
:1022000002983A682346014605F0A4F90028E6D171
:10221000396801982A46234605F090F90028DED156
:102220000398019A2346014605F094F90028D6D177
:102230000437013EDAE703994046224605F0A2F949
:102240000028CCD1029A40464146234605F082F947
:102250000028C4D103A805F001F90028BFD102A8C5
:1022600005F0FCF8BBE72DE9FE450F46064602A83F
:1022700020211C46924605F0DBF808B1BDE8FE853A
:1022800001A800F06CFB0028F8D10298002105F0AD
:102290000FF90028F2D1DDF828800025AC421DD0CE
:1022A000019857F82520B368214600903846FFF77B
:1022B0007AFF0028E2D101985AF82520B368014638
:1022C00005F048F90028D9D1DDE90120B3680146BD
:1022D00005F028F901350028E0D0CFE7B26802996F
:1022E000404605F043F9BDE8FE852DE9FC410E4668
:1022F0000168074601A800F039FB08B1BDE8FC8180
:10230000DDF8208056F82510404605F0C7F8002873
:10231000F4D1043EBB68019841467DB1224605F0E8
:1023200019F90028EAD156F82520BB6801994046E2
:1023300005F0F8F8013D0028ECD0DFE71A4605F07B
:1023400015F90028DAD10199404605F0A7F80028D0
:10235000D4D101A805F082F8BDE8FC81F0B591B0B8
:1023600001AF0E46054620211446384604F000FE13
:1023700007F120003146202205F024FA296868463A
:1023800005F056F878B9AA68009B01A8402101F031
:10239000A5F940B92A680098214605F093F810B9CC
:1023A000684605F05BF811B0F0BD2DE9F8451D4613
:1023B00017460E460446FFF7D1FFF8B907F1200A89
:1023C000204631465246FFF7C9FFB8B9A04620461D
:1023D0003A4658F80C3B0095414600F0C9FE68B9F2
:1023E0002046294600F0FFFD40B923680C35204601
:1023F00041465246009500F0BBFE08B1BDE8F885A5
:1024000020462946BDE8F84500F0EDBD2DE9F04D28
:10241000D6B0064616A81C4615460F4601F0BEF972
:1024200010B156B0BDE8F08DCDE90476019406A850
:102430004FF0000A4FF0020B042600240295A0F191
:102440000108AC4258D0059804EB8401039105685B
:10245000049805FB0A00294629B110F8012B08F859
:1024600001200139F8E716A806A92A4601F0B0F9BB
:102470000028D6D10398049F431C059805FB0B71D7
:102480000268501E154602FB0303FB5C2DB111F8D8
:10249000017B08F80570013DF8E706A90D5C45EAE7
:1024A000C3130B5416A801F093F90028B9D105986D
:1024B000049D02680398C31C501E02FB065102FBD8
:1024C0000303EB5C15462DB111F8017B08F805708C
:1024D000013DF8E706A90D5C45EAC3130B5416A8A5
:1024E00001F076F905360134029D0BF1050B0AF176
:1024F000050A0028A5D094E70598816816A8019AD6
:1025000001F068F98DE72DE9F04D88B00D4605A979
:102510001F469346044600F035FA48B902A9204602
:1025200000F030FA20B91099204600F023FD10B1D8
:1025300008B0BDE8F08D05AE4FF000084FF0040A7A
:102540000195474541D02268AAF10300334602FBBA
:102550000051AAF1020002FB0052204600F082FC6A
:102560000028E5D11099204632460B4600F09BFA30
:102570000028DDD12268AAF10100334602FB005198
:1025800002FB0A52204600F06DFC0028D0D12368DF
:1025900058460DF1080B31460546CDF800B003FB57
:1025A0000802204600F0E4FD0028C1D11099204621
:1025B0005A460B4600F077FAAB46019D0AF1050A30
:1025C00008F101080028BCD0B2E71099204600F0BD
:1025D0000AFD0028ACD105A900F0D1F90028A7D147
:1025E00002A900F0CCF9A3E72DE9F04DF4B00E46B6
:1025F0000168074673A800F0B9F9F0B9396872A804
:1026000004F016FFC8B9DDE97C01BA68739B01F0DC
:1026100079F890B9729B384629462246FFF7F6FEB4
:1026200058B93A68739812A904F04CFF28B93A686F
:10263000729802A904F046FF10B174B0BDE8F08DA5
:1026400000200DF1C80A0DF1880B4FF00008009032
:10265000444543D0396801A804F0EAFE0028ECD1D3
:10266000504601F081F80028E7D1396830465A46D3
:1026700000F066F90028E0D1396812A85A4600F047
:102680005FF90028D9D1396802A85A4600F058F9F4
:102690000028D2D1396800985A4600FB015000F05A
:1026A0004FF90028C9D1B968019A504601F092F853
:1026B0000028C2D13A687E9802FB0801019804F014
:1026C00001FF0028B9D101A804F0C8FE0028B4D148
:1026D000009808F1010805300090B9E773A804F0EC
:1026E000BDFE0028A9D172A804F0B8FEA5E7013A02
:1026F00021B110F8013B53540139F9E7704700004C
:102700002DE9F041BCB00646429820284BD1304616
:102710001F4614460D4600F0E4FB002844D106F1A4
:102720002008684605210522434600F047FED8BB35
:102730002968079804F0B2FEB0BB6968089804F0F5
:10274000ADFE88BB32680998214604F09BFE58BB59
:10275000099800F007F938BB32680A9804F12001A3
:1027600004F090FE00BB0A9800F0FCF8E0B90B986A
:102770003946202204F086FEB0B90B9800F0F2F83A
:1027800090B93046294600F012F968B9684643AA64
:102790000021012300F078FE30B9439842460146FB
:1027A00004F026FF00E002483CB0BDE8F08100BF25
:1027B000034E4B5A2DE9F04DC2B08046D87FDDE97B
:1027C0004EA64C9FCDE904129B4616AB00211F225A
:1027D0001EAC00F0010020290FD00BEB010595F88D
:1027E00020505D541AF80250013A65549DF8585033
:1027F000013145408DF85850EDE73EA800F0AFF8A4
:10280000002840F098803FAD4046294600F0BAF8D5
:10281000002840F0908026A84D9BCDE900463A461E
:10282000029016A94046FFF7DFFE002840F08380A3
:10283000009526AC4D9B404639462246FFF763FE85
:10284000002878D13E9820215A465346CDE9001001
:102850003FA94046FFF754FF00286CD100F08AF8EA
:10286000002868D10CA835492022794404F0AAFF39
:1028700015A800F074F800285DD114A80CAA00F087
:102880006AF8002857D13E99DDE9142004F06EFE65
:10289000002850D14A9A0BA800F05DF800284AD1D0
:1028A0004B9A0AA800F057F8002844D1509A09A87A
:1028B00000F051F800283ED108A8059A00F04BF826
:1028C000C8BB04982021202304EB4010A0F1200273
:1028D00006A804F0B7FD70BB07A800F040F850BB95
:1028E000149B0A99DDE9062004F034FE18BB149B02
:1028F000DDE908210A9804F02DFEE0B9DDE9143283
:10290000DDE9090104F026FEA8B9149B099ADDE966
:10291000060104F007FE70B9149B0B9ADDE906105E
:1029200004F000FE38B9149A07993E9804F01EFE90
:1029300008B900F01FF842B0BDE8F08D3256000033
:102940004DF808EDFFF7D3FE3A68504659465DF85A
:1029500008EB00F03DBF2021202304F073BD2021AF
:1029600004F066BD4246014604F036BE1C461546DC
:1029700004F05EBD3E985199202204F0A3BD20468C
:1029800000F015B8B0B50D4601680446284604F0BD
:102990004FFD20B92168281D04F04AFD00B1B0BDEB
:1029A000216805F10800BDE8B04004F041BD10B554
:1029B00008460C4604F052FD18B9201D04F04EFDE7
:1029C00000B110BD04F10800BDE8104004F046BDA0
:1029D000F8B50F461446054643680968406B7A68A7
:1029E00004F0A0FD002854D1D5E90C0105F1200622
:1029F00000F0E4FB00284CD13968686B00F0DEFB86
:102A0000002846D17968A86B00F0D8FB002840D197
:102A1000A9696A6BE86B00F0CBFBD0BB6B68D5E9AA
:102A20000E21286C04F07EFD98BBB968A86C00F0FC
:102A3000C5FB70BB6B68E86A296CAA6C04F07EFD6C
:102A400038BB6B68E96AD5E9122004F077FD00BB5A
:102A500005F12C026B6807CA04F070FDC8B96B68F9
:102A6000D5E90B10AA6B04F069FD90B92A6BE96CEB
:102A7000206800F09DFB60B96B68D5E90D02E96B39
:102A800004F05CFD28B96A6B296C606800F090FB6B
:102A900000B1F8BD296CEA6CA068334601B0BDE80E
:102AA000F04004F0B1BD2DE9F041064617460C4652
:102AB00092688968C06A984606F1200500F07BFBA1
:102AC00000287DD1D6E90B102B460A4604F09CFD68
:102AD000002875D13A682168706B00F06CFB002803
:102AE0006ED17A686168B06B00F065FB002867D131
:102AF000D6E90D12F06C00F05EFB002860D1F2699F
:102B0000F06BF16C00F057FB002859D17368316B02
:102B1000D6E90F2004F012FD002851D17368316B03
:102B2000F26B706C04F0FEFC002849D1D4E900126D
:102B30007368B06C04F0F6FC002841D1D7E90012AC
:102B40007368F06C04F0EEFCD0BB306BD6E9121267
:102B500000F031FBA0BB7368D6E90C12B06C04F036
:102B6000EDFC68BB7368B26BD6E9121004F0E6FCAA
:102B700030BBD6E90B10F26C00F01DFB00BB326BD2
:102B8000316CD8F8000000F016FBC8B9B169D6E97D
:102B90000C0200F010FB98B97368326BB16BF06CEB
:102BA00004F0CCFC60B9306B716CF26C00F003FB8C
:102BB00030B9D6E90B12D8F8040000F0FCFA08B1DD
:102BC000BDE8F081D6E91012D8F808002B46BDE820
:102BD000F04104F019BDF8B505460F460520096817
:102BE0001446009005F12006E86A0A4600F0E0FA73
:102BF00000B1F8BD7968286B00F0E0FA0028F8D140
:102C0000D5E90B12686B00F0D3FA0028F1D1A9695D
:102C1000EA6AE86B00F0CCFA0028EAD1E86B6B684E
:102C20002A6B014604F07EFC0028E2D1E9696A6B58
:102C3000286C00F0BDFA0028DBD16B68AA6AA86B8B
:102C4000296C04F06FFC0028D3D1A86B32460146F2
:102C500004F0CEFC0028CCD1E86B3246014604F0EB
:102C6000C7FC0028C5D1D5E90E016A4604F036FC40
:102C70000028BED10098B0FA80F0400920700020F2
:102C8000F8BD00002DE9F04DD2B00446022922D053
:102C9000012940F0CD802020202220604AAF6749E2
:102CA0003846794404F08EFD42AE65492022304614
:102CB000794404F087FD63490DF1E80A202250466B
:102CC000794404F07FFD32AD5F49202228467944E3
:102CD00004F078FD2DE02020202220602AAF5B49FF
:102CE0003846794404F06EFD22AE59492022304620
:102CF000794404F067FD57490DF1680A20225046D7
:102D0000794404F05FFD12A85349202201907944D0
:102D100004F058FD51490DF1280B20225846794402
:102D200004F050FD02AD4E4920222846794404F0BB
:102D300049FD04F1040820213A462023404604F0CE
:102D400081FB002875D120462A4650F8081B0B4607
:102D500004F078FB00286CD104F1200520212846DE
:102D600004F026FC002864D1D8F80010284604F0AE
:102D700029FC00285DD1274657F8281B384604F067
:102D800057FB002855D13868012104F091FB002839
:102D90004FD1386800F016FA00284AD104F10C0728
:102DA00020463946FFF7EEFD002842D10199204622
:102DB0005A463B4600F056F8D8BB2746324657F8ED
:102DC000181B38460B4604F03DFB90BB386800F0FA
:102DD000F9F970BB2646524656F81C1B30460B4686
:102DE00004F030FB28BB306800F0ECF908BB20464B
:102DF00050F82C1B04F01CFBD8B900F0FBF9C0B94B
:102E000000F0E4F9A8B900F0F0F990B900F0FCF98D
:102E100078B900F0E5F960B900F0F1F948B900F0CF
:102E2000DAF930B954F84C1B204604F001FB00E0FD
:102E3000014852B0BDE8F08D014E4B5ADA50000007
:102E40000C530000BC520000AE5100001A530000A9
:102E50006C520000DC5200000E5300001E530000B4
:102E600070510000FEB506681C4617460A46054626
:102E700002A83146334604F0E5FA00B1FEBD01A8D0
:102E800031463A46334604F0DDFA0028F6D168466A
:102E9000314604F0CDFA0028F0D105F12006206873
:102EA0000299324604F098FB0028E7D16068019946
:102EB000324604F091FB0028E0D1A96AA06804F032
:102EC000EDFA0028DAD102A804F0C8FA0028D5D11A
:102ED00001A804F0C3FA0028D0D1684604F0BEFA75
:102EE000FEBD10B504462C3004F0B8FAD8BB04F18E
:102EF000300004F0B3FAB0BB04F1340004F0AEFAD1
:102F000088BB04F1380004F0A9FA60BB04F13C006E
:102F100004F0A4FA38BB04F1400004F09FFA10BB9F
:102F200004F1440004F09AFAE8B904F1480004F00E
:102F300095FAC0B904F14C0004F090FA98B904F184
:102F40000C01FFF734FD70B904F1180004F086FAA3
:102F500048B904F11C0004F081FA20B904F12800FA
:102F600004F07CFA00B110BD04F10800BDE8104087
:102F700004F074BAB0B5054608680C46002104F0A8
:102F800097FA18B9A96A00F044F900B1B0BDA96A6E
:102F9000A068BDE8B04004F081BA2DE9F041984640
:102FA00016460F46054600F01EF898B905F12004B4
:102FB0003968E86A224604F01BFB58B97968286B27
:102FC000224604F015FB28B92A68E86A314604F065
:102FD00079FA08B1BDE8F0812A68286B4146BDE85E
:102FE000F04104F06FBA70B505460C468968C06AB6
:102FF00005F12006324604F023FBD0B92268D5E95A
:103000000B1000F0D5F8A0B96268E96A686B00F0AF
:10301000CFF870B9A268E96AA86B00F0C9F840B9A6
:10302000296B206804F03AFA18B9696B00F0F1F8DE
:1030300000B170BDA96BA068BDE8704004F02EBA65
:10304000B0B50C4605460168206804F027FA18B9A7
:10305000696800F0DEF800B1B0BDA968A068BDE8FD
:10306000B04004F01BBAF8B50E4601680746184692
:103070001C46154604F0DCF950B93968201D04F0EF
:10308000D7F928B9396804F1080004F0D1F900B182
:10309000F8BD384631462A46234601B0BDE8F04027
:1030A000FFF7E0BE2DE9FF4D074600208846154694
:1030B00000219B4603908DF80B00106803AA04F0D2
:1030C00019FA38BB0398D0B1286801A904F0D0F9E7
:1030D00000BB02204FF0FF310DF10B043865019861
:1030E00001EBC006002001280FD028683146224697
:1030F00004F00CFA70B99DF80B00013EF3E7384676
:103100005946FFF737FF28B9DEE740465946FFF733
:1031100097FF10B104B0BDE8F08D01200DF10B0A4E
:10312000C7E91406002E20D4384659465A46FFF700
:103130004FFC0028EED1386D3146524640003865CC
:10314000286804F0E3F90028E4D19DF80B0050B1A1
:103150003846594642465B46FFF7A5FC0028D9D1C0
:10316000386D01303865013EDCE70020D2E7000011
:10317000BCB50C46016899423CBF0C48BCBD054635
:10318000CA20286501A804F05DF900B1BCBDB320D8
:10319000069B2146286501AA2846FFF783FF0028E1
:1031A000F4D101A804F05AF9BCBD00BF014E4B5A3E
:1031B000334604F029BA2B4604F026BA33460A46B1
:1031C00004F022BA2A46014604F006BA204650F816
:1031D000341B04F02DB9204650F8481B04F028B9E0
:1031E000204650F8401B04F023B9204650F8381B05
:1031F00004F01EB9204650F8301B04F019B92046DF
:1032000050F8441B04F014B9204650F83C1B04F05D
:103210000FB9606804F042B9B0B5C26890E81A000E
:103220005FEA52054FEA3402E407C560DD0744EA6D
:10323000530445EA51054460154C05602140154C86
:10324000234019440C0C44EA034443EA1343214449
:103250000C0A44EA036483EA132361400C0944EA3C
:10326000037483EA131361408C0844EA837483EA8D
:10327000930361405FEA53034FEA3103594001F081
:10328000010182EAC132826008460021B0BD00BF60
:1032900001208000400008402DE9F8450C46054615
:1032A0004FF0000A4FF000080027A74215D2284629
:1032B000FFF7B2FF06462846FFF7AEFF10EB4600C9
:1032C0008107F2D500F001004FEA4801013740EADA
:1032D0004A0041EADA788246E7E750464146BDE8CF
:1032E000F8850000B0B5094A094B0446A025002026
:1032F0004FF6FF71C4E90210C4E9003225B120463F
:10330000FFF78AFF013DF9E7B0BD00BF10F0FCFFF9
:1033100002FC01182DE9F041204F224E05460C46D3
:103320000020B8461E4F7E44F8B928463E21B047DB
:10333000C4E9000128464021B047C4E902012846FB
:103340004021B047C4E9040128464021B047C4E900
:103350000601D4E900013A46C01B404671EB080063
:103360004FF0000038BF0120DEE7D4E900010E4D28
:103370007D44A847C4E90001D4E90201A847C4E993
:103380000201D4E90401A847C4E90401D4E9060113
:10339000A847C4E90601BDE8F08100BF4E4B5A3092
:1033A0002221584F6FFFFFFF390000000ABA01BA0F
:1033B00010467047C030FFF7ADBF00002DE9F04167
:1033C000ADF5906D0446C0301E4617460D46FFF71A
:1033D00089FF2C49E8464FF490624046794404F056
:1033E000F1F90020257366612146C4F8D000781CED
:1033F000C4E90170306804F03BF830B9204650F859
:10340000D46B314604F014F818B10DF5906DBDE899
:10341000F081A0680025854230D204EB8507314653
:1034200007F1180004F004F80028EED107F1D800E5
:10343000314603F0FDFF0028E7D10027A06887424E
:103440001AD205FB00703146334600FB068204EBBE
:103450008000303003F0F6FF0028D6D1A068626902
:1034600005FB007004EB8000006B014604F0B4F82B
:1034700001370028E2D0C8E70135CCE70120206100
:103480000020C2E7245400002DE9F04D8CB0064620
:103490000069012840F0B480B0691F46924604F0EC
:1034A00007F8002840F0AD8006F10C0006F118087E
:1034B00006F1C00B01900020442800F0AE80346873
:1034C000CDE9020A4FF0000AB068824524D204AD6B
:1034D00058462946FFF71EFFD6F8D800294622464F
:1034E00003F0D0FF002840F08C80D6F8D800726935
:1034F000014604F071F8002840F08380726958F8A2
:103500002A00D6F8D8101368024604F00BF80AF126
:10351000010A0028D8D074E00299042901D3402977
:1035200023D3DDF80CA0002484422BD258F82410B9
:103530007369D6F8D8000A4604F066F8002860D10E
:10354000D6E9361073690A4604F05EF8002858D1AF
:1035500058F824007369D6F8DC20014604F054F8CA
:1035600000284ED1B0680134DEE7D6E90510019A93
:1035700001230091014604F053F8DDF80CA0002867
:103580003FD1B0680025854229D206EB8504002191
:1035900054F8D80F03F08CFF98BB03950025B06852
:1035A000854219D20399736901FB005058F8251020
:1035B00006EB8000026BD6F8D40004F025F800BBBF
:1035C00071692068D6F8D4200B68014603F0AAFF81
:1035D00001350028E3D014E0039D0135D3E7002432
:1035E00084420AD206EB84018869D1F8D81003F02E
:1035F00055FF30B9B0680134F2E7029801305BE75B
:1036000008480CB0BDE8F08D58F8041B5AF8040BBC
:1036100003F044FF013F0028F3D1002FF4D1002034
:10362000EFE700BF024E4B5AF0B5D9B00E46074641
:1036300058A840211C46154603F0FAFED8BB1F4986
:1036400068461D22794404F0BDF808A809214022EB
:1036500003F084FC78BB08A869461D2203F083FCB4
:1036600048BB08A83946324603F07DFC18BB08A8C1
:103670002946224603F077FCE8B908A848AE31464F
:1036800003F067FCB8B9DDE95E4500203F21202842
:1036900002D000F0DDF8FAE7589848A9402203F07C
:1036A000F1FE40B958992846224603F05FFF10B951
:1036B00058A803F0D3FE59B0F0BD00BF3C5600003F
:1036C000BFB505466F2000F0B7F846F6720000F06F
:1036D000BAF803A8FFF7A8FF04B0B0BDBFB5054610
:1036E00065200C46CDE9002305218DF80C00044827
:1036F0002A462346029002A8FFF796FF04B0B0BD09
:103700006E6F6E63BFB50546672000F095F847F20F
:103710006D3000F098F803A8FFF786FF04B0B0BD45
:10372000BFB505466D2000F087F846F6637000F0DF
:103730008AF803A8FFF778FF04B0B0BDF8B51D46BE
:10374000044603F00BFC38B9DDE90627089E204645
:10375000294603F008FC00B1F8BD20463946324640
:10376000BDE8F84003F0FFBB70B58CB004466F2095
:103770001D221D268DF82E0046F67200ADF82C0095
:1037800003AD05492846794404F01CF80BA900F064
:1037900049F80CB070BD00BFFA54000070B58CB091
:1037A00004466D201D221D268DF82E0046F66370FE
:1037B000ADF82C0003AD05492846794404F002F821
:1037C0000BA900F02FF80CB070BD00BFC65400006C
:1037D00003F0C9BBF0B591B00C46074610A84021D4
:1037E000154603F025FED8B96E463846314603F03B
:1037F000B0FBA8B900203F21202802D000F028F813
:10380000FAE710986946402203F03CFE40B910994F
:103810002846224603F0AAFE10B910A803F01EFEA7
:1038200011B0F0BD032040222B46CDE9006102908B
:1038300020460921FFF782BF0C46CDE90023032172
:103840008DF80E0070472A462346ADF80C007047ED
:10385000325C735C33547254013901307047F0B5F7
:103860009DB01546229AC8B3C1B3BDB31C46ABB3D5
:103870000AB1002111700178B02931D14178A7290E
:1038800031D0062936D0012931D1817879BBC07871
:1038900068BB206800212160032821D30126C71EB0
:1038A00026602E7020683A1A2844411C012003F03B
:1038B00025FF00F03FF820603A1A2844411C0220FE
:1038C00003F01CFF00F036F8411C21602E5403F079
:1038D0000DFF21684A1C2260685428E014781EE01D
:1038E00046F685141BE0817809B9C078D0B14FF451
:1038F000DC4414E0002121608378027902ADCDE937
:103900000015411D1846002303F0C4FE0446284656
:103910006C2103F065FF002C08BF4FF410442046D3
:103920001DB0F0BD002020600AB1012010704FF4DE
:103930001044F4E721684A1C226068542168084456
:10394000704780B5C078202807D1012003F02BFBF9
:1039500003F038FB03F01DFB0021084680BD00008A
:10396000B0B50A46014606480023002509EB0004CD
:10397000607803F0EDFE0349657049448D71B0BD78
:10398000760800006E080000FEB5664E0021054670
:10399000002201238DF80B1040F2111109EB0600F3
:1039A00003F0E2FE04460128C0F2AB8019F80600DD
:1039B000A0F11001162905D8012202FA01F15A4A94
:1039C000114206D1411E022967D3302818BF402872
:1039D00077D1564F09EB0701487003F06BFEAA2818
:1039E00003D103F070FEAA2845D109EB0600407808
:1039F000B0282CD140F21110611E01900DF10B0086
:103A000000904B4801AB09EB000509EB06000130C3
:103A10002A46FFF724FF0024019909EB0706B0F5B9
:103A2000104F18BF2146020A00236A546A185070CA
:103A3000881C2946019082B2707803F089FE9DF8B7
:103A40000B10747001296AD000EAE07459E009EBA8
:103A500007004078102843D0402843D0212843D085
:103A6000222837D0232837D0302837D0202814BF39
:103A70000020012039E02E4855210222002309F8B8
:103A8000001009EB00011520487009EB0700407891
:103A900003B0BDE8F04003F05BBE274F4E44013C4D
:103AA000711C224609EB070003F08CFE70781A287F
:103AB0000AD109EB0700214603B0BDE8F040FFF74B
:103AC00040BF42281DD028E0EDB10020002403F0C3
:103AD00057F816E0042008E0072006E0022004E082
:103AE000062002E0032000E005201249013C2246A6
:103AF000494488710E4809EB06010131484403F03E
:103B000061FE2046FEBD19F807001528DDD8012109
:103B100001FA00F009490842D7D00024F1E7FF205C
:103B200003F0F8FD5D07000001007F00760800004B
:103B30004C0600006E080000F40900002050200030
:103B400070B58AB00B4D0026182109EB05004670B0
:103B500001AC204603F040FE1120ADF82460ADF822
:103B60001C00204603F0E0FD012009F805000AB022
:103B700070BD00BF7608000070B50546007848B1FA
:103B8000194809EB00018A7B52B14844817E51B14A
:103B9000002426E0144809EB00040020A07004E093
:103BA00001F10C0401E000F1180400202646A06099
:103BB000206046F8040F686803F0EEFBA0602878E8
:103BC00005F108022070094B7B4420B130460721E3
:103BD00003F0F3F904E03046072103F0E9F900208F
:103BE0006070204670BD00BF78080000250000000E
:103BF000B0B590F83E20114802235C1C1DD0DCB209
:103C000009EB000504EB440405EB84056D78AA423A
:103C100005D109EB000505EB8405AD780DB9013B35
:103C2000EBE709EB000202EB840292682AB14844F8
:103C300000EB8400BDE8B0401047B0BD780800003C
:103C400070B500284DD00D4649780446C80722D0EB
:103C50006178022003F0C5F92A786978234B244E55
:103C6000002A7B447E44024608BF1E4602F8216FAC
:103C7000330ED370330C9370320A80F822206268BE
:103C8000A37842F823000322C2770422827500221F
:103C90004272581CA07088074FF0000623D5617847
:103CA000022003F09EF92978124A134B00297A4426
:103CB0007B44014608BF134601F8213F1A0E4672A5
:103CC000CA701A0C8A70190A80F822106168A278EA
:103CD00041F822000321C17706218175501CA07094
:103CE00001E04FF0FF36304670BD00BF263D0000BA
:103CF000403D0000E83C0000CA3C0000002800F005
:103D000043812DE9F04D88B00E46417805460120EB
:103D100017461C4603F065F980460320002F08BFB4
:103D20000120697888F8200003F060F94146020E0E
:103D30004FF0720A4FF0000B049701F8220F88F839
:103D400004A088F805B0CA70020C000A88F82300A5
:103D50008A700420697803F044F907460320F87755
:103D6000304603F019FB0146082087F805B087F8B4
:103D700004A00394002C08BF0A2087F82200052223
:103D80000B0E87F820203A4602F8261FD3700B0C42
:103D900093700A0A012387F82720722203F03AF968
:103DA0000646052805951DD33E46042001210DF148
:103DB0001E0516F826CF7278B378F47806F8010C51
:103DC00016F8040C01910095059D4CEA022143EA86
:103DD0000422042300F078FCBDF81E003071000AB4
:103DE0007071042600F078FC8346C07997F824109F
:103DF000049C06FB00FA41F001014FEA1A2087F803
:103E00002410022187F806A0F8714046B975002CED
:103E100010F8221F42788378C07841EA022143EAF1
:103E2000002041EA0040076000F0108103986978A3
:103E3000022840F0AB800520052503F0D2F80026CB
:103E4000074680F821600120ADF81A60ADF81860CF
:103E500000F051FC204603F09FFA01460E20FE714F
:103E6000BD75B87108200A0E87F82300384600F89F
:103E7000251F00F020FC652840F2D880BB4697F84B
:103E8000265097F8230001241BF8251F9BF80220D9
:103E90009BF8033041EA052106AECDE9006442EA11
:103EA00003220DF11A0341EA0241662203F0ADF844
:103EB000BDF81800BDF81A600C303871000A78712E
:103EC0006D48132E28BF13269BF800109BF8022084
:103ED0009BF8033009EB000497F8260041EA002024
:103EE00042EA0321324640EA0141204603F06AFCDF
:103EF00000252046A55503F04FFA01218BF800005C
:103F0000BD76059D7976010E8BF80310010C000A31
:103F100087F826008BF80210404610F8221F4278DE
:103F20008378C07841EA022143EA002041EA004058
:103F30004760BDF81800002800F0868069780520E9
:103F4000052603F04EF80025074680F82150012091
:103F500000F0D1FB049803F01FFA0E21FD71B97136
:103F6000082187F82310BDF81A100144384600F8DC
:103F7000251F0A0E00F09FFB0C300F21BE75387113
:103F8000000A7871022057E000F0B2BB00F0A1FBFC
:103F900003260746C677204603F0FEF90146722045
:103FA0000024012338710A200A0E7C7187F8220050
:103FB00000F061FB04281ED33D4615F826CF05F816
:103FC000016C15F8040C95F801E0AB78E97807AAC4
:103FD00000920122019243EA01214CEA0E220323BE
:103FE00042EA0141722203F024F8BDF81C00287156
:103FF000000A687103200399002908BF06469BF850
:104000000700BC76BC7506FB00F106FB00A0B97189
:10401000090AF971022100F1020A7976052187F86F
:104020002010414600F03AFB4F600FE00C300821B1
:104030003871000A78710120002279764146BA76FB
:1040400000F02CFB41F820700AF12C0A6868A9786E
:10405000052288F816204FEA1A2240F82180002015
:10406000013188F806A088F8072088F81F00A97099
:1040700008B0BDE8F08D00BF9C08000000284FD0BC
:104080002DE9F04D0C46054600274FF0050B4FF08B
:1040900003084FF0000A207982453ED26079032858
:1040A00002D3811E514535DC0230504532D3697848
:1040B00000F00FFB216806465FFA8AF088476179B5
:1040C0000A228A4508BF082286F82220F7717771F4
:1040D00086F820B086F8217086F816B086F81F8022
:1040E0003246030E02F8260FD370030C000A9370B9
:1040F00086F827006868AA7840F822600C20B07122
:1041000072203071AAEB0100010900017076501C89
:10411000B176A8700AF1010ABDE70020BDE8F08D74
:1041200000F0E6BA002800F0DC802DE9F04D86B002
:104130000D4641788246012002F053FF9AF80110A3
:1041400080460320032702F051FF4146020E4FF044
:10415000000B049501F8220F88F820B0CA70020CF9
:10416000000A8A7088F82300A868C0B39AF8011082
:10417000022002F036FF0646C777A86803F00CF964
:104180003146020E86F813B086F809B001F8210F07
:10419000CA70020C8A70010A86F82210314601F8B2
:1041A00012BF81F803B081F802B0414611F8222F06
:1041B0004F788C78CD7811F8023C44EA052442EA25
:1041C0000722049D42EA044242F823600222B275AB
:1041D0005A1C01F8022C8178C07841EA002B28682B
:1041E000002800F0A5809AF8011000F072FA074646
:1041F0000320F877286803F0CFF8014672200024E6
:10420000387105200A0E7C7187F82000384600F8C6
:10421000261FC2700A0C8270080A87F8270097F8D8
:1042200024006A7B40F0010087F824000820002A5F
:1042300008BF0A2087F822007222012302F0EAFE5A
:10424000064605281ED33D46042001210DF1160423
:1042500015F826CF6A78AB78EE7805F8010C15F8DA
:10426000040C0191009400244CEA022143EA062246
:10427000042300F029FABDF8160004262871000A6C
:104280006871049D00F028FAC07987F821407043D6
:10429000010AB871F971A96829B3414611F8222FB2
:1042A0004C7811F8023C8D78C97842EA042245EA3C
:1042B000012142EA01413A4601EB830151F8041C15
:1042C00002F8121F0B0ED3700B0C090A517000215B
:1042D00093701172032E38BF01218900D17108211A
:1042E0000AE000F005BA696819B100F0F9F9022195
:1042F00002E000F0F5F9052111714146584411F82A
:10430000222F4C788D78CE7811F8023C42EA0422B4
:1043100045EA0624049D42EA044242F823705A1CEE
:1043200001F8022C797EBA7E41EA022100EB010BF2
:104330006868002871D09AF801100420CDF80CA00C
:1043400002F04FFE03240746C477686803F024F8A0
:10435000014600200123787172200A0E38710A206C
:1043600087F82200052087F8200000F084F98246B3
:1043700004281CD33D464FF0010C15F8261F05F804
:10438000014C6A78AB78EC7815F8040C05AECDE9F1
:10439000006C41EA022143EA0422032300F094F96D
:1043A000BDF814004FF0030A2871000A687100F08C
:1043B00093F9414611F8223F4C788D78CE7811F868
:1043C000022C43EA042345EA06243D4643EA04431B
:1043D00003EB820454F8044C05F8124F260EEE70DD
:1043E000260C240AFC74AE7043F8227002230024C9
:1043F00001327B760823BC7687F82140C079BB75F3
:104400000AFB00F30AFB00B0DDE903A5BB711B0A40
:1044100001F8022C00F1020BFB71287B022100281D
:1044200008BF052188F81610DAF804009AF802107F
:10443000722240F82180002088F804204FEA1B22D5
:10444000013188F806B088F8190088F81A0088F851
:10445000050088F81F0088F807208AF8021006B0C7
:10446000BDE8F08D2DE9F845002800F084800D4668
:104470004178044600F02DF94FF00308064680F815
:104480001F80286802F088FF014672200027012360
:10449000307108200A0E777186F82200052086F810
:1044A0002000304600F8261FC2700A0C8270080AED
:1044B000722286F8270096F8240040F0010086F862
:1044C0002400082002F0A6FD012854D896F8220006
:1044D00002F096FD6168A278B776F77141F8226024
:1044E000B071022086F81980B075501CA070686801
:1044F00000284ED0617800F0ECF806460320F077F3
:10450000686802F049FF722137464FF000084FF00B
:10451000050A31710A2107F8260F86F8058086F80A
:1045200020A086F82210010EF970010C000A86F80E
:1045300027000A20B97002F063FDC10996F8272010
:10454000BB784000F17196F82410B07196F8220003
:1045500041F0010186F824103978FF7841EA022100
:1045600043EA07220123012741EA0241722202F0B5
:1045700051FD022802D94FF0FF365CE06068A17857
:1045800086F81A8086F816A040F82160481C7776D5
:10459000A0706178052002F024FD002607464FF048
:1045A000030A4FF0080880F82160012087F820A056
:1045B00087F81FA087F8238087F82200287A1F4AEF
:1045C0001F4901287A44794408BF11463A460B0E28
:1045D00002F8251FD3700B0C93700A0A87F8262067
:1045E00001283846174A184D7A447D4418BF2A4698
:1045F00000F82E2F130EC370130C8370100A87F867
:104600002F00082002F010FD6168A2786B78BE765A
:10461000FE7187F8168041F822700C2187F819A0E6
:10462000B971297841EA03210844511C0A303871D4
:10463000000AA17078713046BDE8F8855835000051
:10464000253600001B3300000333000020B180B585
:1046500002F0B8FC002080BD00F04AB848B110B5A7
:104660000446007810B1607802F0B1FC0020A07020
:1046700010BD00F03DB8384600F8261FC2700A0C85
:104680008270080A722287F8270097F8240040F009
:10469000010087F824000A2002F0BCBC11F8222F88
:1046A0004B788D78C97845EA012142EA0322059DBD
:1046B00042EA01417047C2700A0C8270080A87F80A
:1046C0002600082002F0B0BC41EA0241722202F04A
:1046D000B0BC042002F085BC97F8220002F08BBC2D
:1046E00000213A4602F8121FD17091705170704744
:1046F0004FF0FF30704787F82200032087F8200032
:10470000F87770472DE9F8450E460A9905460020CE
:104710009A46174600F030F848B3DDF8208004468A
:1047200046610FB100F0E1FA0A20B8F1000F19BF9D
:104730004146032251460422722302F070FC09997B
:1047400020702A0746BF013860706078C4F80C807A
:10475000C4F804A084F83010C5F38011617405F02A
:1047600003012174C1B2204600F02CF800E00024BF
:104770002046BDE8F885000070B5044610480D4697
:1047800051B1002190290AD009EB00020A44D2F865
:10479000882032B14831F5E709EB000605E0002634
:1047A0000BE04844084400F148063046482103F035
:1047B00013F886F8455086F84440304670BD00BF77
:1047C000B00800002DE9F04591B0044640780E464F
:1047D00088421CD2A568207866700138B04231DD6D
:1047E000E0680121032308AACDE900212946002819
:1047F00008BF04230A20722202F01BFCBDF820101F
:104800006818A060695C0A291ED101301BE0E568C8
:10481000002D74D000274FF001080DF1200ABE4290
:10482000D9D020780138B8420ADD0A202946722200
:104830000323CDE900A802F0FCFBBDF820000544ED
:104840000137ECE70020A0604F4804F134027844BF
:1048500004900020ADF80A0094F845008DF80C0093
:1048600007CA05AB07C303A8FFF786F9277894F8B2
:1048700001A006462064207C3946524600F0FCF830
:1048800080468DF80B00E06888B1012F15D1616872
:10489000082072220023002602F0BCFB022848D325
:1048A0006168182004F11802CDE9002021E094F895
:1048B000303030462946002255E00AF10100636895
:1048C0002421CDE9000708AF304A38467A4402F087
:1048D000D1FB08203946722200234FF0000A02F073
:1048E00099FB04F1180C02282CD31820CDE900C044
:1048F00008A908207222012302F0A0FB2DE06568C0
:1049000000274FF001080DF1200ABE423FF463AFCB
:1049100020780138B8420ADD0A2029467222042391
:10492000CDE900A802F085FBBDF820000544013761
:10493000EBE7616804F11800172202F043FF84F8E6
:104940002F600AE04FCFACE84F0084F82FA03888E2
:10495000ACF80000B8788CF8020094F83030206C85
:1049600004F118012A46FFF7C9F9B8F1000F04D085
:10497000206C0DF10A01FFF763F900F0E9F902F08C
:1049800008FB11B0BDE8F085BB010000513100000B
:104990002DE9F04587B00D46824602A800F0D3F914
:1049A00019480E99784400F0C5F968B1044645618C
:1049B0000FB100F053F900F0CEF907D0022807D06C
:1049C000012808D1022004E0002418E0032000E0C0
:1049D0000120002500E000208DF8070002A8FFF765
:1049E000CBF841462064FFF79DFB25B9206C0DF103
:1049F0000601FFF725F900F0ABF902F0CAFA2046EC
:104A000007B0BDE8F08500BF6500000010B50C469A
:104A100000F0F0F878B3042C06D0012C08D054BB79
:104A20004178D9B1013909E0426922B304211FE07C
:104A300002784178013A8A4205DD0131C9B2BDE808
:104A40001040FFF7BFBE017C41F00201032901D0F5
:104A5000417C81B1426972B1012109E0017C01F020
:104A6000FE01022901D0417C29B142691AB100211D
:104A7000BDE81040104710BD0346022908D3013994
:104A80001046002A18BF0120914288BF023000E082
:104A90000020032B0AD0022B04BF40F00100704716
:104AA000012B04BF40F0020070477047032070479D
:104AB000F8B50F460646022019461546FFF75CFE7C
:104AC00070B104460FB100F010F9287920726879AE
:104AD00060722868C4E90060204600F005F800E034
:104AE00000242046F8BD0000B0B586B00446002082
:104AF000019004F1340219487844029094F845007A
:104B00008DF8040007CA03AB07C301A8FFF734F808
:104B1000251D20642946FFF7B1FA207A022816D312
:104B20000121ADF80210697900290A4618BF012257
:104B300001388DF80320884203D9901C8DF80300BA
:104B400000E021B1206C0DF10201FFF779F800F0CF
:104B5000FFF802F01EFA06B0B0BD00BF2101000050
:104B60002DE9F04587B00D46824602A800F0EBF82B
:104B700019480E99784400F0DDF868B104464561A3
:104B80000FB100F06BF800F0E6F807D0022807D06C
:104B9000012808D1022004E0002418E0032000E0EE
:104BA0000120002500E000208DF8070002A8FEF794
:104BB000E3FF41462064FFF755FC25B9206C0DF159
:104BC0000601FFF73DF800F0C3F802F0E2F92046D5
:104BD00007B0BDE8F08500BF95FEFFFF38B110B506
:104BE0000446006CFFF73AFD0021216410BD4FF030
:104BF000FF307047084A0021D82904BF00207047C1
:104C000009EB02030B441B6C834201D04831F3E7EC
:104C100009EB020008447047B008000010B50C46CC
:104C2000FFF7E8FFC8B1042C06D0012C0AD0A4B9C4
:104C3000417A91B101390BE0417A02680846BDE83A
:104C400010401047027A417A013A8A4205DD01316B
:104C50004172BDE81040FFF747BF10BD3878797842
:104C6000BA78FB7842EA032240EA012040EA024097
:104C70006063384610F8082F797A42EA0121827879
:104C8000C37842EA032241EA0241E163394611F85E
:104C9000043F7A7943EA02228B78CD7843EA0523F0
:104CA00042EA0342A2633A787B78BD78FE7842EA12
:104CB000032245EA0625037842EA05428578C07852
:104CC00004927A7A45EA002043EA02228B7842EA8B
:104CD00000400A78C9780690787943EA012142EACF
:104CE000002040EA01400590704738787978BA781A
:104CF000FB7840EA012042EA0322394640EA0240BA
:104D000011F8082F6063787A42EA00208A78C9781F
:104D100042EA012140EA0140E063787917F8041F74
:104D200041EA0020B978FA7841EA022140EA0140DC
:104D3000A06370478DF8081003900020ADF80600BE
:104D40000120FFF719BD14219846174602F044BD13
:104D5000206CFFF77BBC01250AF0030003282570B7
:104D6000207470472DE9F0410746104801F00DFD11
:104D7000C4E90F766564069D284602F00DFBA06429
:104D8000079802F009FB0999B8F1FF0F61650899CE
:104D9000C4E9130118BF002D03D1BDE8F04100F0B4
:104DA00043B84046BDE8F04100F002B88809000071
:104DB000F0B58FB0044601A8382102F00DFD194E60
:104DC00009EB060090F82C000F281EBF09EB060027
:104DD0000E2180F82C1009EB06000121002780F835
:104DE000341001AD09EB0600806C017A8F420ED2BF
:104DF00079B22A4600F0E8FC00F040FD09EB06011C
:104E0000013791F83420104481F83400EAE709EBC7
:104E10000600002180F83540002000F039FF0FB077
:104E2000F0BD00BF8809000010B5214809EB000162
:104E300091F82C100D2909D00E2914D109EB00018D
:104E40000A6D0221002A08BF01210DE009EB0002D2
:104E50000221146D936C002C08BF012182F83510DB
:104E600033B1013100E0002109EB000282F8351076
:104E700009EB00020C21D2E9123482F82C10032134
:104E8000002B08BF022182F8341024B1013109EB54
:104E9000000282F8341009EB0002126D1AB1484486
:104EA000013180F834100020BDE8104000F0E0BF70
:104EB000880900001FB514460A4601460898039069
:104EC000079802900698CDE900300220234600F0B2
:104ED00001F81FBD2DE9F0410746114888464021E1
:104EE0001D46144601F04BFC089830650798F064A5
:104EF0000699C6E91045B1640999C6F8308086F86C
:104F00002C70F1630421002808BF0321207A084493
:104F100086F834000020BDE8F04100F0D1B800BFB1
:104F2000880900002DE9F04D88B017460A46DDE9F2
:104F300013A1DDE910540646BAF1000F13D0DAF8D8
:104F400000000791CDE90554082818D0E0B9DAF837
:104F5000140028B9DAF8180010B9DAF8280010B1EE
:104F60009846154614E0CDE90035CDE9024102200E
:104F700031463B46FFF7AEFF08B0BDE8F08D9846DE
:104F8000154646F0800603E09846154646F0400672
:104F9000DFF86CB02C2109EB0B04204602F01CFC5E
:104FA00002202A46A560069D3B46E760059F4146D4
:104FB000C4F81080DDF81C80666009F80B00DAF890
:104FC00028006761C4E9065AC4F8208020B108B0FF
:104FD000BDE8F04D00F016B89AF8000010F0160F7A
:104FE00002D1DAF8140020B108B0BDE8F04D00F0AD
:104FF00015B8CDE9001702203146CDE90258B9E7CE
:105000008809000004480121484480F828104FF422
:105010004071C18401F018B88809000004480021DB
:10502000484480F828104FF40071C18401F00CB896
:1050300088090000B0B586B0064D0D9C7D44CDE9D1
:1050400003540B9C01940A9C0094FFF76BFF06B07D
:10505000B0BD00BF643C00002DE9F845DFF85C807E
:105060000C46074640219A46164609EB080505F10D
:105070002C0002F0B1FB04206F6585F82C00089825
:10508000C5E9116AE8640999E9630521002808BFA8
:10509000042185F834105CB1204609EB080502F0C4
:1050A0007BF9286495F83400217A084485F83400A7
:1050B0000020BDE8F84500F003B800BF88090000F3
:1050C000F0B58BB05D4E0446002001220227CDE9E9
:1050D0000900CDE9070009EB06039863D86C0028A6
:1050E00008BFFF2208BF012793F9351093F8343029
:1050F0009D1EEDB2A94206DAB9420BDA002941D071
:105100008A4244D044E010D108A90AAA012001F043
:1051100067F83DE009EB0600456D8DB1B9420FD14E
:105120000995474878440A9033E0581EC0B281423E
:105130002ED108A90AAA0020002501F051F828E084
:1051400009EB060090F83020D20635D590F85D00C6
:1051500090BBB94205DC09EB060090F85E00082818
:105160002AD100200690CDE9040009EB060090F852
:105170005C2004F00800012A01D0012943DB40F043
:10518000030042E009EB0600D0E9111008910A90F3
:10519000002500200A9A08992E4EC0B200230290E2
:1051A00020467E44CDE900632B4600F075F80BB035
:1051B000BDE8F04001F0EDBE002209EB0600CF1B78
:1051C0000DF10C0C80F85D208DF80C20006C08AB04
:1051D00007AA002D8DE80C1018BF013F0AAAF9B2EA
:1051E00009AB00F0D9FC079840B109EB060080F844
:1051F0005F70174979448163012002E09DF80C003B
:105200004000099DC6E740F001000E4900227944A4
:1052100003910D4979440591002100910B4903AB9D
:105220007944FFF7B5FB09EB060401F0B2FE01205B
:1052300084F8367084F85D000BB0F0BD880900007A
:10524000612B00004F280000A0260000451100003F
:1052500029120000EF1200007FB505460C484021DE
:10526000144601F08CFA0920B4632A46002386F81C
:105270002C00012086F83400002006490290794471
:10528000CDE900104020002100F006F87FBD00BFEE
:10529000880900009F0100002DE9F04D9AB0884672
:1052A00004460CA838211D46164602F095FA002740
:1052B000CDE90A775648784402F06EF8DFF84CB131
:1052C00040F6B8310997CDE9070109EB0B0090F8DA
:1052D000340002280BD309EB0B0191F9351029B1E9
:1052E00001380327884208BF022700E0012709EBA5
:1052F0000B0047EA040290F85C101446012988BFAD
:1053000044F00204816D002908BF144690F82C0077
:10531000062840F0080118BF144609290CBF0DF1FA
:105320001C0A4FF0000A0A2805D109EB0B00006D9A
:1053300008B1FFF753FC239FB6B12299B8F1000FD3
:105340002CD12498022829D001223346012808BFF5
:1053500002222046002D08BF2A46CDE900520297BE
:105360005246FFF7CFF943E009EB0B0090F8350008
:1053700003A90CAA00F0CCFB30B3017800240A2961
:1053800024D0092935D101F00EFA224979440A9135
:10539000417980798DF82D00481C20E0002003968B
:1053A000CDF81480049552468DF8180009EB0B00D7
:1053B000806B284318BF01208DF81900009703ABBC
:1053C0002046FFF7E5FA13E0002412E001F0EBF9C4
:1053D0008DF82D401049007A794401300A918DF8FA
:1053E0002C0051463B460D480AAA7844FFF760FB63
:1053F000044609EB0B0090F82C000A2804BF09EBC7
:105400000B0004651AB0BDE8F08D00BF88090000EC
:1054100067130000A112000055120000A71200003F
:1054200041F00400042801D0012904D10248484475
:10543000806B00B100477047880900000A4698B1A8
:10544000012816D0022819D003281CD004281FD008
:10545000072822D0062825D0052818BF70471548F0
:1054600000217844FFF7F8BE134801217844FFF784
:10547000F3BE124800217844FFF7EEBE1048012128
:105480007844FFF7E9BE0F4800217844FFF7E4BEF7
:10549000074801217844FFF7DFBE0C48002178441B
:1054A000FFF7DABE084801217844FFF7D5BE00BFF8
:1054B00094250000E8250000702600003C2800002C
:1054C000CF260000D4270000F42500002E2700007E
:1054D00070B58CB05A4D00210446CDE90A11CDE9D2
:1054E000081109EB0500816390F82C00062815D0FF
:1054F00005283DD109EB050201210223D06C0028CB
:1055000008BFFF2108BF012392F9352093423BDDFC
:10551000D3B2002B63D0914266D066E009EB050060
:1055200090F93510006C027A91422DDA09EB0502F0
:10553000936DCBB392F85D20B2BB09EB050292F8F4
:105540005C20012A07D8002905DC09EB050393F844
:105550005E30082B28D100200790CDE9050004F02B
:105560000800012A01D0012950DB40F003004FE080
:1055700009EB050090F8350080B109A90BAA0020BD
:10558000002500F02DFE31E009EB0500C16B00297C
:1055900053D001200CB0BDE87040084709A90BAA00
:1055A000012000F01DFE20E0002309EB0502C9B236
:1055B00082F85D308DF80F3009AB08AD0DF10F02A8
:1055C000CDE9005302920BAA0AAB00F0E5FA089865
:1055D000002812BF01259DF80F00450006E009EBE9
:1055E0000500D0E9111009910B9000250B9ADDE917
:1055F0000913174EE8B20025029020467E4401F0C0
:10560000D5F80CB0BDE8704001F0C3BC40F001001B
:105610000C490022794404910B49794406910021F8
:1056200000910A4904AB7944FFF7B2F909EB05048C
:1056300001F0AFFC012084F85D000CB070BD00BF2C
:1056400088090000492400009A2200003F0D000054
:10565000011100001FB5079C029400240194069CD0
:10566000009400F001F81FBD2DE9F845DFF86C80CB
:105670000C46054640219A46174609EB080606F1F6
:105680002C0002F0A9F80998032270650A99316587
:105690000899C6E9117AC6E90F54F164082186F821
:1056A0002C10002F4FF0030118BF0421002D08BF5C
:1056B0001146002C08BF022186F8341040B102794F
:1056C000032A05D1007A09EB0802084482F8340065
:1056D0000020BDE8F84500F003B800BF88090000CD
:1056E0007FB5334B002409EB03010A6C6AB109EB67
:1056F0000301C96B31B109EB0301496C11B10221FE
:10570000012504E00121002501E00025002109EB2D
:105710000306B46396F8356074B2A14208DDEEB1B9
:10572000711EB1FA81F14909294001291CD030E0EC
:1057300008D1204A09EB03017A448A638A6C1E4926
:1057400079440FE04A1CA24212D11C4A09EB030122
:105750007A448A63CA6C1A49794403E009EB03016D
:10576000C96B09B1002317E009EB03014B6C12E090
:1057700009EB0302526D62B11379032B09D1611A4F
:105780006FF00703D2E9034203EB810153586258DB
:1057900001E00022002300210A4D002402947D44F0
:1057A000CDE90054FFF778FDBDE87F4001F0F1BB83
:1057B00088090000E90F000085220000E50F0000C5
:1057C00014220000AB0F0000F0B587B00D4606466E
:1057D00001A81821144601F0FFFF002D28D4307ACB
:1057E000854225DA307838B314B32046382101F0E9
:1057F000F3FF21484844426D42B3E8B201AD294667
:105800009047A8B19DF804000A28207023D00328EF
:1058100008D0042825D0072829D0082802D0092834
:1058200019D028B9281D211D90E86C006CC100E03A
:105830000024204607B0F0BD7168C5EBC50001EB40
:10584000C00007B0BDE8F04001F0A6BD7268E8B244
:1058500021469047EDE7281D211D90E82C002CC122
:10586000E7E7281D211D90E8EC00ECC1E1E7DDE948
:105870000201C4E90101DCE7880900000278012186
:10588000A2B1032A12D00A2A07D0072A07D0082A71
:1058900007D0092A07D0042A07D1017B06E0017A44
:1058A00004E0017C02E0417A00E0002108467047F4
:1058B00070B58AB00D46044604A8182101F08CFF8B
:1058C000204800F051FF14DD04A9284600F046F8F6
:1058D0009DF8100018B39DF82430DDE905121E482C
:1058E0007844002B0090204618BF012300F0D8F820
:1058F00023E04844816D8163C16C134A00297A44D6
:1059000018BF0A46059290F82C001049104A032847
:105910007A44794408BF0A460792002002E09DF8C5
:1059200025004000DDE9052307990A4EC0B2002595
:10593000029020467E4400F039FF01F02AFB0AB0B5
:1059400070BD00BF88090000822300005A200000BB
:1059500016200000B90100000D020000F0B593B060
:10596000064600200C4638218DF84B0004AD284631
:1059700001F032FF474F0DF14B012A4609EB0700BA
:1059800000F00DFF00287AD0054600780A2811D0D3
:1059900003282CD0042835D0072845D0082860D00B
:1059A000092807D000286AD1686801F0F5FC60601A
:1059B000A86819E0281D09EB070601F0EDFC006856
:1059C00001F0EAFC96F82C100546F06B102900D186
:1059D00018B90F2955D1002853D001F0DDFC6060C3
:1059E0009DF84B0055F8200001F0D6FC46E0A86871
:1059F000294E7E44B047E0606868B0476060E86860
:105A0000B0473BE004F115009DF84B1004F10C0287
:105A100004F11003CDE900320290281D221D04F18B
:105A2000080300F0B9F82AE001204F4420706868AC
:105A300001F0B2FC19497944B9639DF84B1001EBB0
:105A4000410150F8212000EB810062604168A160B3
:105A5000007A411E18BF0121002E08BF01462175A2
:105A60000DE0686801F098FC9DF84B6050F8260046
:105A70006060A86801F090FC50F82600A06013B0A8
:105A8000F0BD9DF84B0055F8200001F085FC6060EA
:105A9000F5E700BF88090000A3190000A701000076
:105AA000F0B585B0114CDDF828C0002609EB0405DF
:105AB00095F834700025022F0AD34C4494F93540F0
:105AC0002CB1013F0326A74208BF022600E00126B1
:105AD000CDE902128DF810300095304302AB6146DB
