:02000004C0DE5C
:1000000010B5044662B607F0D3FA3CB12068B0F5EB
:10001000807F07D1204607F055F801E007F01CF873
:10002000002010BD07F00DF870B58AB00C460546EB
:1000300068462021164607F06FFF14B9012007F02B
:100040004DFA142E0AD3402001210990681C6D46F8
:10005000089008A82A4607F0FBF908B1002006E03E
:1000600005F10C012046142207F04CFF01200AB0D4
:1000700070BD1FB5044610B9012007F02FFA207893
:10008000E02860D100200390CDE9010060780228CB
:100090005CD0202864D004286CD0052876D00628AF
:1000A00000F08A80072800F09580082800F09C80E6
:1000B000092800F0A3800A2800F0AA800B2800F08D
:1000C000B1800C2800F0B8800D2800F0BF800E2809
:1000D00000F0C6800F2800F0CD80102800F0D480FA
:1000E000112800F0DB80122800F0E180132800F0D6
:1000F000E780142800F0ED80152800F0F380172821
:1001000000F0F980182800F0FF80192800F00B811A
:100110001A2800F010811B2800F015811C2800F01F
:100120001A811D2800F01F81032840F02481A07847
:10013000002840F03581E078002840F03181BDE8AA
:100140001F4000F0F0B94FF4DC402BE1A06800281C
:1001500000F0238100F032F901A801F06DF91AE1F5
:10016000A068002800F0198100F028F901A801F02A
:1001700035FB10E1A078002840F01281E0780028DB
:1001800040F00E81BDE81F4000F066B9A17801295A
:1001900000F20681E078002840F00281A068002883
:1001A00000F0FB80019020790029029018BF012106
:1001B00001A800F065F9EEE0A178002900F0DE80EA
:1001C000032900F2ED80E07840F08002802A00F000
:1001D000D980E5E0A068002800F0DF8000F0EEF8AC
:1001E00001A800F0ABFAD6E0A068002800F0D580A6
:1001F00000F0E4F801A800F068FACCE0A06800285C
:1002000000F0CB8000F0DAF801A800F0FDFAC2E0BF
:10021000A068002800F0C18000F0D0F801A800F02C
:1002200057FCB8E0A068002800F0B78000F0C6F8DE
:1002300001A800F0B3FBAEE0A068002800F0AD809C
:1002400000F0BCF801A800F0EAFBA4E0A0680028D8
:1002500000F0A38000F0B2F801A800F059FB9AE08A
:10026000A068002800F0998000F0A8F801A800F02C
:10027000A3FC90E0A068002800F08F8000F09EF8BA
:10028000BDE81F4000F078BAA068002800F0858023
:1002900000F094F801A800F045FD7CE0A06800287B
:1002A0007BD000F08BF801A800F0F1FD73E0A068AE
:1002B000002872D000F082F801A800F0B0FE6AE0D9
:1002C000A068002869D000F079F801A800F0F8FED5
:1002D00061E0A068002860D000F070F801A800F08C
:1002E00025FF58E0A068002857D000F067F801A863
:1002F00000F060FF4FE0A06800284ED000F05EF8EC
:1003000001A801F045F946E0A078012848D8E07836
:10031000002845D1A06800283FD000F04FF801A880
:1003200001F0FEF837E0A068B8B300F047F801A884
:1003300001F074F92FE0A06878B300F03FF801A84D
:1003400001F096F927E0A06838B300F037F801A86B
:1003500001F0D4F91FE0A068F8B100F02FF801A86F
:1003600001F0E0F917E0A068B8B100F027F801A8A3
:1003700001F0EEF90FE04FF4DA4013E0E078802866
:100380000ED18020A26842B1019222790292C20964
:1003900001A800F0DFF804B010BD46F6872001E0A8
:1003A00046F6862004B0BDE8104000F000B880B5E5
:1003B00002460020002106F0EBFD80BD019020796F
:1003C00002907047BFB506F0C5FD1E4819F8000041
:1003D00008B901F089FC1C484FF43C71484407F00F
:1003E000A9FD1B48784407F08BFA807801280DD0CE
:1003F00001208DF802000020ADF800001548784477
:1004000007F07EFA6946032207F0AAFA0F4D01AC05
:1004100006F0A8FD002814D4024609EB0501204689
:1004200006F0A0FE30B12046FFF723FEB0F1FF3FFB
:10043000EEDC06E00020002146F6872206F0A8FD4B
:10044000E6E7BFBD5C0B0000000000009406000062
:1004500018920000FE910000F8B50848784407F0B3
:100460004FFA00214FF4104203910721CDE9010119
:1004700001A8012106F08CFD04B080BDBA80000007
:10048000F0B585B0234F0C4605464FF43C7109EB9F
:100490000706304607F04EFD002006F53B7109F8CF
:1004A000070086F8C002284606F020FB08B309EBD7
:1004B000070090F8EC2200F53171284606F069FB40
:1004C000B8B109EB07000021052290F8EC32CDE924
:1004D0000221049100F1490500F1080600F531728E
:1004E00000202121CDE9006506F014FC40B180B266
:1004F00001E046F6872005B0BDE8F04000F00CB8FA
:10050000002C05B0BDE8F04008BF01F0B3B901F020
:10051000CFBC00BF0000000080B5024600200021D3
:1005200006F036FD80BDF8B5002001214FF41042E1
:100530008DF802008DF80100039003208DF8031060
:10054000012102900DF10100019001A806F020FDAB
:1005500004B080BD70B586B0544E044691B109EB2D
:10056000060090F8C00201282CD109EB06001546C0
:100570006268D0F808021118B1F5FF7F25D94BF257
:10058000040039E009EB06054FF43C71284607F0FA
:10059000D1FC002005F53B7109F80600012085F823
:1005A000C002204606F0A2FA48B109EB060090F816
:1005B000EC2200F53171204606F0EBFAB8B946F6A8
:1005C000872019E04BF2070016E009EB060108440A
:1005D00000F10801204606F006FB58B109EB0601C0
:1005E0006268D1F808021044C1F808024DB14FF416
:1005F000104001E04BF2050006B0BDE8704000F08D
:100600005DB80021CDE9020109EB060000F1080107
:10061000019100F5047101A801F086FA012814D1B6
:10062000012009F8060009EB0600D0F8081200F5D1
:100630000E72059100F10801049104A8012106F051
:1006400007FF40B14BF2060001E04BF2050000F05D
:1006500035F806B070BD164819F80000A0B115486D
:1006600019F80010F9B909EB0604012109F8001086
:1006700004F506741FCC009401F016FA10B10120A5
:1006800001F0DCFA0020E4E709EB0600D0F82C02C8
:100690000949794407F092FC10B101F0FAFCD8E75F
:1006A00001F0F4FCD5E7FF2007F0F0FA00000000AD
:1006B0005C0B00005D0B0000787B000080B50246FB
:1006C0000020002106F064FC80BD10B5D0B00446C7
:1006D000406820280BD1206840A9202201F0DCFCD2
:1006E00088B940A8402100F017F800200DE06846C6
:1006F0000921402206F0DAFE28B9D4E90012684642
:1007000006F0D9FE18B101F085F850B010BD68466A
:1007100040A906F0C6FEE3E7F8B5002201AB07C327
:1007200001A801214FF4104206F032FC8FBD80B5C4
:1007300002460020002106F02BFC80BD10B5F2B06F
:10074000044668460621202206F0B0FE50B9D4E9DE
:100750000012684606F0AFFE20B968466AA906F0A6
:10076000A0FE18B101F056F872B010BD6AA801F0F1
:1007700070F80020F8E7000010B5A4B001F046F8CA
:1007800090BB14AC1D4920222046794407F0BAFBE7
:100790000CA81B492022794407F0B4FB04A819498E
:1007A0002022794407F0AEFB03A82021224601F065
:1007B0003EF8C8B902A80CAA01F02FF8A0B901A808
:1007C00004AA01F02AF878B9684601F02DF858B962
:1007D000DDE90213DDE9000207F058F920B90098BD
:1007E0001CA901F01EF818B101F014F824B010BDD6
:1007F0001CA801F02EF80020F8E700BFF27E0000F0
:10080000667E0000DA7F00002DE9F041ADF5087D3D
:10081000044660A83C49A022794407F073FB00F02D
:10082000F5FF60BB002048A9FF22602802D00A54CF
:100830000130FAE735496D4620222846794407F011
:1008400061FB09A820212A4600F0F1FFB8B908A8E9
:100850006A4600F0E2FF90B90AA8202107F05CF98F
:1008600068B909990AA807F061F940B90DF1300893
:100870000AAB05210522404602F0CEFE28B100F069
:10088000C9FF0DF5087DBDE8F081002760AE0D9829
:10089000874212D208EB870531462022E86907F02B
:1008A000A5F80028EBD1E869119A014607F048F94C
:1008B000013720360028EAD0E1E708AA40460021A7
:1008C000012302F00FFF2068119A007808EB8004E2
:1008D00054F8180F014607F03FF90028CFD12068DF
:1008E00048A900F09EFF0028C9D148A86021FFF761
:1008F00013FF08A807F066F80028C0D107F044F8F5
:100900000028BCD10020BCE744800000A07F00008C
:1009100070B5D0B0044600F079FFA0BB48A81D49CF
:100920002022794407F0EEFA01AD1B492022284627
:10093000794407F0E7FA09A820212A4600F077FF5A
:1009400008BB0AA8202107F0E7F8E0B909990AA82E
:1009500007F0ECF8B8B90CA80AAB0521052202F0A3
:100960005BFE80B9206806780CAC48AD2EB12046FD
:10097000294602F04DFE013EF8E748A800F069FF65
:1009800007F002F818B100F045FF50B070BD00202C
:10099000FBE700BF9A7C0000AC7E0000B0B5ADF56F
:1009A0001A7D01680022FF230D785AACB2F5807FD2
:1009B00002D0A3540132F9E7406801311AAA013884
:1009C00028B111F8013B013802F8013BF8E700F0CB
:1009D0001DFFE8B904A800F042FFC8B904A801A9A6
:1009E00002F0FEF8A0B904A81AA901AA01F08AFB36
:1009F00070B904A804F1200301A900F02DFF38B953
:100A0000049841005AA8FFF787FE06F0BDFF20B109
:100A100000F000FF0DF51A7DB0BD0020FAE7F0B53B
:100A2000ADF52B7D064600680021FF2205786BACF2
:100A3000B1F5807F02D062540131F9E7716801306D
:100A40002BAA013929B110F8013B013902F8013B09
:100A5000F8E700F0DBFEA0BB30680AAA002102AB79
:100A6000202907D046187778575496F821605E54AD
:100A70000131F5E715A800F0F2FE10BB15A812A988
:100A800002F0AEF8E8B915A82BA912AA01F03AFBBA
:100A9000B8B915A804F1200312A900F0DDFE80B951
:100AA0002020CDE9000415A80AA912AA02AB01F082
:100AB00051FB30B96BA86021FFF72EFE06F064FFF2
:100AC00020B100F0A7FE0DF52B7DF0BD0020FAE768
:100AD0002DE9F045EBB0054600680DF1AB04FF21B0
:100AE00006780020B0F5807F02D021540130F9E76C
:100AF00000F08CFE002854D114AF3146384602F085
:100B0000EFF900284DD107F10C060DF2AB12384673
:100B1000314602F08EF9002843D19DF8AB114CF616
:100B2000012001293DD122490DF1240A20225046FD
:100B3000794407F0E7F901AF1E492022384679448D
:100B400007F0E0F90DF1440814A851463A4643462F
:100B500002F0B7FB28BB14A80DF2AB12314602F02D
:100B600068F9F0B99DF8AB0101284CF6012018D1C5
:100B7000D5E90001CDF80080421C4B1E14A8314677
:100B800002F024FC68B914A804F1400311A900F094
:100B900063FE30B90DF1AB0000F053FE06F0F4FE39
:100BA00020B100F037FE6BB0BDE8F0850020FAE719
:100BB000CC7C0000DE7C0000F0B5EFB0054640685C
:100BC000412801D8022802D246F6872015E028687D
:100BD000FF21067800202FACB0F5807F02D0215491
:100BE0000130F9E700F012FE20B919A8314602F0F1
:100BF00077F920B180B2FFF79AFD6FB0F0BD022EF9
:100C00000CD0012E28D10BAE424920223046794427
:100C100007F078F903AF4049794409E00BAE3F494A
:100C200020223046794407F06DF903AF3C497944FE
:100C30003846202207F066F919A816AB31463A4625
:100C400002F03FFB0028D5D119A80BA903AA13ABCA
:100C500002F037FB0028CDD100200DF10B028DF8FA
:100C60000B0019A816A902F0E4F80028C2D19DF8DB
:100C70000B00012842D119A813AE0DF10B02314629
:100C800002F0D7F80028B5D19DF80B00012838D123
:100C90001A980DF10B0106F035FF0028AAD19DF836
:100CA0000B00012830D11B980DF10B0106F02AFF33
:100CB00000289FD19DF80B00012828D1D5E900011B
:100CC0000096421C4B1E19A816A902F07FFB0028B3
:100CD00090D119A804F1200313A900F0BDFD00284C
:100CE0007FF488AF06F050FE00287FF483AF199898
:100CF00041002FA8FFF710FD00207EE74CF60120F1
:100D000079E74CF6022076E74CF6032073E74CF6C1
:100D1000042070E70E7A0000847A0000187A000040
:100D20004E7900002DE9F04DADF5047D05460068D3
:100D3000FF220478002044A9B0F5807F02D00A5435
:100D40000130F9E700F062FD28BB0DF1B80821463B
:100D5000404602F0C5F8F0B927A800F065FDD0B90B
:100D6000286800210FAA0130602903D0435C535446
:100D70000131F9E70FAA00212BAF0C1D102C10D068
:100D800078182021202302F1200506F00FFE00280C
:100D90002A462146F1D000F03DFD0DF5047DBDE869
:100DA000F08D08F10C004FF0000A01260DF10C0B3C
:100DB000019044ADBAF10C0F3BD028A8202100EBE4
:100DC0000A04204606F0E8FD0028E4D120683146F8
:100DD00006F022FE0028DED14046594601F000FF11
:100DE0000028D8D1029607EB0A06019940465B46D7
:100DF000324602F085FA0028CDD12068294600F05D
:100E000010FD0028C7D1306805F1200100F009FD70
:100E10000028C0D14046594602F013FA029E4035E0
:100E20000BF10C0B0AF1040A2BAF01360028C1D0DC
:100E3000B1E72798032300902EA828A92BAA01F038
:100E400040FB0028A7D1279844A92022C03106F0F2
:100E5000EDFD00289FD12EA827AA03AB019902F02F
:100E60004FFA002897D144A800F1E0022EA803A968
:100E70000FAB02F0C0F900288DD144A800F0E1FCCE
:100E800006F082FD00287FF486AF002085E72DE97B
:100E9000F04DADF50A7D04460068FF22057800207C
:100EA00048A9B0F5807F02D00A540130F9E700F07C
:100EB000ADFC90BB32A800F0D2FC70BB20680022D1
:100EC0001AA90230202A03D0835C8B540132F9E73F
:100ED0006268023ACDE9880201F1200288A8012166
:100EE00006F0C3FAC8B91AAA002117AC0D1D102DBF
:100EF0000BD060182021202302F1200606F056FDB9
:100F0000002832462946F1D007E00AA800F08CFC00
:100F100018B909A800F088FC28B100F07BFC0DF599
:100F20000A7DBDE8F08D4FF000080DF5907B0BAE0B
:100F30000DF1C80A0024B8F1100F4DD005A82021EA
:100F400000EB0807384606F027FD0028E5D101A888
:100F5000202100EB0805284606F01EFD0028DCD104
:100F60000998214606F058FD0028D6D12868214668
:100F700006F052FD0028D0D15046314601F030FE37
:100F80000028CAD1DDE9093002220090504617A995
:100F900001F0D9FA0028C0D138680A9906F032FD6C
:100FA0000028BAD15046314602F04BF90028B4D19E
:100FB0000998594600F035FC0028AED10A980BF18B
:100FC000200100F02EFC0C3601340BF1400B08F12F
:100FD00004080028AFD0A0E700210C1D102C07D07A
:100FE00017A8084406F0EEFC00282146F5D094E747
:100FF0000A980323009001A8011D05A8021D32A82C
:1010000001F05FFA00287FF488AF48A800F019FCCF
:1010100006F0BAFC00287FF480AF00207FE7B0B56F
:10102000D8B0044600F0F2FB002842D120680178D5
:1010300002A801F055FFE0BB01A800F0F5FBC0BB22
:1010400000F0F8FB02F06AFC98BB019818AD202272
:10105000294606F0EBFC60BB00F0ECFB02F06CFCF8
:1010600038BB019805F1200100F0DBFB08BB00F064
:10107000E1FB02F075FCE0B9019805F1400100F0D8
:10108000D0FBB0B900F0D6FB02F078FC88B901982B
:1010900005F1600100F0C5FB58B9049805F1E001C5
:1010A00000F0BFFB28B918A800F0CBFB06F06CFCE1
:1010B00018B100F0AFFB58B0B0BD0020FBE7000056
:1010C00010B5ADF5507D044600F0A0FB10BB2068C4
:1010D00001787AA801F004FFE0B979A800F0A4FB38
:1010E000C0B901AC10494FF4F0722046794406F0C3
:1010F00009FF799B7AA82146032201F0B5FA48B985
:10110000799890A92022203106F090FC10B906F0C1
:101110003BFC20B100F07EFB0DF5507D10BD90A88A
:1011200000F097FB0020F7E71078000070B5ADF5F0
:101130006A7D044600F06AFB68BB2068017894A8C9
:1011400001F0CEFE38BB94A891AC214601F048FDD9
:1011500008BB19AD15494FF4F0722846794406F0E2
:10116000D1FE01AE124960223046794406F0CAFE33
:10117000009494A829463246032301F0F2FA50B9AC
:10118000AAAA94A891A902F1200302F034F810B998
:1011900006F0FAFB20B100F03DFB0DF56A7D70BD55
:1011A000AAA84021FFF7B8FA0020F6E780790000EE
:1011B000527B00002DE9F045ADF2D44D044600F01D
:1011C00025FB002840F0198120680178DFA801F094
:1011D00087FE002840F01181DEA800F025FB0028E2
:1011E00040F00B81DFA8DBAD294601F0F9FC0028B7
:1011F00040F0038163AC85494FF4F0722046794496
:1012000006F080FEDE9BDFA82146032201F02CFAC7
:10121000002840F0F2800DF57578DE982022202617
:10122000414606F003FC002840F0E78078490DF5C0
:10123000B67A20225046794406F064FE53A87549D8
:101240002022794406F05EFE4BAC734920222046F2
:10125000794406F057FE08F120078DE8D000DFA89A
:1012600063AA5146032301F0EDFA002840F0C5803F
:101270000095DFA863A93A46032301F072FA00281B
:1012800040F0BB80DFA808F1800208F1A003DBA9D1
:1012900001F0B1FF002840F0B0803BAD5F49402233
:1012A0002846794406F02EFE33A85D4920222024EA
:1012B000794406F027FEDE982A46CDE90040DFA8F3
:1012C000DBA953AB01F04AFB002840F09680DE9882
:1012D00008F1C00100F0A5FA002840F08E8029A88E
:1012E00050492022794406F00DFE32A800F09CFA05
:1012F000002840F0828031A829AA00F08EFA002848
:101300007BD1DE99DDE9312006F0E4FB002874D1C1
:10131000329808F1E00100F084FA00286DD121AC88
:10132000414920222046794406F0ECFD19A83F49A6
:101330002022794406F0E6FD11A83D492022794497
:1013400006F0E0FD09A83B492022794406F0DAFDC9
:1013500008A82021224600F06AFA00284DD107A8EB
:1013600019AA00F05AFA002847D106A809AA00F0E5
:1013700054FA002841D105A811AA00F04EFAE0BBAA
:1013800003A833AA00F049FAB8BB04A800F04CFA4D
:1013900098BB319B0799DDE9032006F08FFB60BB0A
:1013A000319BDDE90521079806F088FB28BBDDE9C4
:1013B0003132DDE9060106F081FBF0B9319B069A76
:1013C000DDE9030106F062FBB8B9319B089ADDE95B
:1013D000031006F05BFB80B9319A0499DE9806F0A1
:1013E00079FB50B9DE98F5A900F01BFA28B9F5A8E9
:1013F00000F027FA06F0C8FA28B100F00BFA0DF257
:10140000D44DBDE8F0850020F9E700BF1E7B000049
:1014100086740000FA720000CC7400005A7C000050
:101420002C74000098730000B6720000CA730000AC
:10143000FE740000527200002DE9F04DADF5876D8D
:10144000044600F0E3F9002854D120680178B8A8D8
:1014500001F046FD00284DD12A490DF580784FF462
:10146000F0724046794406F04DFD27490DF1E00A3F
:1014700020225046794406F045FD24490DF1C00B69
:1014800020225846794406F03DFD28AC2049202210
:101490002046794406F036FD18AF1E4940223846F2
:1014A000794406F02FFD10AD1B49202228467944CF
:1014B00006F028FD08AE194920223046794406F08E
:1014C00021FD0321CEA8CDE900B4CDF810A02A4615
:1014D0003B46CDE9028120210790CDE90516B8A849
:1014E000012101F095FA28B9CEA800F0B2F906F072
:1014F0004BFA28B100F08EF90DF5876DBDE8F08D3F
:101500000020F9E7B8780000C870000058710000AA
:101510006A7200005C7A00008E730000E0700000C8
:10152000B0B5AAB00068FF21057800201AAC4028A9
:1015300002D021540130FAE700F068F9F8B904A8A4
:1015400000F08DF9D8B904A801A901F049FBB0B9A0
:101550000E4809EB000104A801AA00F0D3FD70B900
:1015600004A804F1200301A900F076F938B9049821
:1015700041001AA8FFF7D0F806F006FA18B100F0FB
:1015800049F92AB0B0BD0020FBE700BF50030000BE
:1015900070B5BCB005460068FF210478002024AE79
:1015A000602802D031540130FAE700F02FF968BB0F
:1015B0002868002103AA0130202903D0435C53543A
:1015C0000131F9E70EA8214601F08AFCF0B90EA816
:1015D0000BA901F005FBC8B90F4C0EA80BAA09EB2B
:1015E000040100F08FFD88B9202009EB0401CDE94A
:1015F00000060EA80BAA03AB00F0ACFD30B924A87E
:101600006021FFF789F806F0BFF918B100F002F980
:101610003CB070BD0020FBE750030000B0B50446AD
:1016200010484022D4E90015484406F06BFC0E48EF
:10163000216820224844403106F064FC0B482168B0
:1016400020224844603106F05DFC00F0FEF8802D59
:1016500004BF0020B0BD46F68720BDE8B040FFF7CC
:1016600066B800BFF0020000300300005003000025
:1016700070B5BCB0044600F0C9F8A8BB206801787A
:1016800006A801F02DFC78BB06AD6E462846314613
:1016900001F0A6FA06F10C042846214601F0A0FA52
:1016A0001448334609EB0001134809EB00022846B1
:1016B00000F0A9FFC0B91CAD06A8694605F12003DA
:1016C0002A4601F098FD78B905F1400205F1600362
:1016D00006A8214601F08FFD30B91CA88021FFF734
:1016E0001BF806F051F918B100F094F83CB070BD49
:1016F0000020FBE7500300007003000010B508490C
:1017000000F0B0F806F0FEFB00F09FF8F02C04BFEC
:10171000002010BD46F68720BDE81040FFF707B84F
:10172000B003000010B5094900F09CF8F03106F054
:10173000E9FB00F08AF8F02C04BF002010BD46F64B
:101740008720BDE81040FEF7F2BF00BFB0030000E5
:10175000B0B5B6B000F05AF850BB10A8022101F0A5
:10176000BFFB28BB08AC1C49202220252046794419
:1017700006F0C8FB13484844C17F26A8CDE90554AC
:1017800007902EA80490032003900F48484402902D
:101790000E48484400F12002CDE900020C4809EB54
:1017A00000020C4809EB000310A801F031F918B150
:1017B00000F030F836B0B0BD26A800F04AF800209E
:1017C000F8E700BF30030000B00300007003000022
:1017D00050030000F00200002E6E000010B50A4910
:1017E00009EB0102D0E900141046402206F08AFB02
:1017F00000F02BF8402C04BF002010BD46F68720D7
:10180000BDE81040FEF793BF7003000020200021C8
:1018100006F0B0B880B2FEF78ABF2021202306F080
:10182000C5B8202206F002B9202106F0B5B8202361
:1018300006F0BCB8D4E90001019B049A01300139DB
:1018400070474FF48071FEF767BF4FF41040FEF70A
:101850006EBF2021FEF760BF224601F0CCBC2946B6
:1018600001F03EBB09EB0102D0E900141046F02262
:1018700070470000B0B59AB041200DF10504412237
:101880008DF805000B4809EB0005601C05F1080107
:1018900006F038FB202005F1490120228DF8470091
:1018A00004F1430006F02EFB2046632100F004F80B
:1018B0001AB0B0BD00000000F8B5002201AB07C3AC
:1018C00001A801214FF4104205F062FB04B080BD75
:1018D000F0B599B00DF102046121651C284606F0AF
:1018E0001BFB084800F010F88DF8026006F00AFBB8
:1018F00097F8B91230194170B11C2046FFF7DCFF90
:1019000019B0F0BD0000000009EB0007284697F869
:10191000B86207F51671324670472DE9F041BCB048
:1019200004460020A568A061002D4DD02069002844
:101930004AD006F04DFB282846D1207B4FF0000806
:1019400039956121CDF8EC803A9015AD284606F026
:10195000E3FA39AE0DF1E301304605F0C7F89DF822
:10196000E3202EAF3046394605F013F9052005F186
:1019700041019DF8E3303A46CDF81080CDE90051A1
:10198000CDE902080020212105F0C4F9E0B910AD2D
:101990001421284606F0C0FA15A829461422FEF79D
:1019A00043FB05AE2921304606F0B6FA284614213D
:1019B0003246292305F08CFA21693046292206F0A7
:1019C0000FFB08B90120A0613CB0BDE8F081000028
:1019D00070B58CB004AC06461E21204606F09CFA79
:1019E00006F10E053221284606F096FA0020317BDA
:1019F000CDE90200B06802AA05F056FC78B10320D8
:101A0000DDE902231E210090204605F01AFA009419
:101A1000284632211E23034A7A4405F0DFFD0CB02C
:101A200070BD00BF386A0000F0B593B08569ADB3F2
:101A30000446284606F0CCFA28282FD1A7686FB3B1
:101A40006E464821304606F067FA06F1180000217C
:101A5000282909D06A5CA2F16103DBB21A2B38BFD6
:101A6000203A42540131F3E7217B06F1080238465F
:101A700005F01AFC90B1217D206906F1100205F0F5
:101A800013FC58B101248DF8004005F09BFD05487A
:101A900069464822484406F035FA00E00024204612
:101AA00013B0F0BD9005000070B58CB01D4E19F854
:101AB00006402CB309EB0604D4E9024569406040B6
:101AC000084321D109EB0600D0E9040159405040F8
:101AD00008431DD101AD109C2921284606F01CFAAF
:101AE000204614212A46292305F0F2F909EB0600C5
:101AF0002946183006F062FA70B901200CB070BDAA
:101B00004FF44040FF210AE04FF44040012106E03D
:101B10004FF44040032102E04FF4404002210022F4
:101B200005F089FB9005000070B50D46044610B91C
:101B3000012005F0D3FC15B9012005F0CFFC606849
:101B4000B0F5FF7F01D9F9204BE02046294600225D
:101B500004F0E2FF30B32068A16808441421A861B2
:101B6000204604F0B8FFF8B105F108012046002234
:101B7000002604F0D1FFC8B105F120012046C5E9D7
:101B8000046604F0E9FF296A90B9686A5FEA5000C8
:101B90004FEA31020023D2F1E80273EB000007D2D2
:101BA000FC201EE0FF201CE0FE201AE0FD2018E0D3
:101BB0002068A2681044E861204604F08CFF68B1F8
:101BC00005F11C030DCB00F00EF848B1D4E9011269
:101BD0006FF006008A4208BF012002E0FB2000E00F
:101BE000FA2040B270BDF8B51C461546064610B93D
:101BF000012005F073FC002000230246401B19461B
:101C000073EB040006D2B756501C41F10003B7F144
:101C1000FF3FF2DC0020521BA14128BF0120F8BD8C
:101C200008B1FFF727BE46F6851000F000B880B572
:101C300002460020002105F0ABF980BD2DE9F041FE
:101C40008CB078B3DFF8948002200025202703228F
:101C500040F201640DF12C0C0DF1280E0B9509F8E2
:101C6000080060200A9009EB080090F8EC3200F5BB
:101C70000E7100F51676CDE9004200F531720020B4
:101C80000895CDE906C5CDE902172121CDE9046EFD
:101C900005F074F888B14BF2080009F80850FFF716
:101CA000C6FF17E00D48002109F8001046F6851020
:101CB0000CB0BDE8F041FFF7BABF0A9909EB080084
:101CC00080F8B8129DF82C1001F0010180F8B912CB
:101CD000FFF7FEFD0CB0BDE8F08100BF0000000082
:101CE000FF2005F0D3FF0000BFB5194C17487C4416
:101CF00009EB000500F0D8F8142169731549164A5C
:101D000079447A44C5E901210078287300F0CCF8C1
:101D1000152169761149124A79447A44C5E90421AA
:101D20000021407828760F480F4A104B78447A44B7
:101D30007B44CDE90032CDE902100022FF230C489C
:101D40000C497844794403F03BF9BFBDD805000045
:101D50000E790000FD650000646700006066000009
:101D6000CC640000B1FFFFFF1A7200000C7200008B
:101D7000D4670000FB620000BFB5224C152809F8AB
:101D8000042011D014282AD109EB04051E4C7C44F0
:101D900000F08AF80078B0FA80F0400928738DF8D6
:101DA0000F0000F081F815E01848784405F0A8FD10
:101DB0004078A8B109EB0405154C7C4400F074F898
:101DC0004078B0FA80F0400928768DF80F0000F0D6
:101DD0006BF801300DF10F01012205F0C1FDBFBD0F
:101DE0000C480D4978447944CDE900100B480C4962
:101DF0000C4A0D4B784479447A447B4403F076FDD9
:101E0000BFBD00BFD80500006E780000527800000A
:101E10004278000045000000B8650000C56300007E
:101E2000F06300008E64000074660000B0B586B0F8
:101E3000A8B1174C15487C4409EB000500F034F8B4
:101E40004078B0FA80F0400928768DF8170000F04D
:101E50002BF801300DF11701012205F081FD0B482F
:101E6000002119F800300B480B4A0C4C78447A4496
:101E70007C44CDE90042CDE902100022084809491E
:101E80007844794403F09CF806B0B0BDD805000052
:101E9000C677000071FEFFFFDA700000CC70000012
:101EA00096660000BD610000204605F029BD0000D7
:101EB00070B588B0224E09EB060119F8060091F8BA
:101EC000C01208432AD11F4D2B2109EB050006F053
:101ED00023F803AC1421204606F01EF809EB060097
:101EE000214614220830FEF79FF808B309EB0502DB
:101EF00003A814212B2304F0EBFF013018D0124863
:101F0000002400217844CDE9004009EB05000F4A88
:101F10000F4B7A447B4403F0CDF90EE0002009F822
:101F200006004BF2070008B0BDE8704000F012B8A0
:101F30004BF2020000F00EF80446204608B070BDD7
:101F400000000000F40500005D000000CA6200000F
:101F5000CA65000080B502460020002105F018F88F
:101F600080BD000010B50446FFF75AFE0720002C84
:101F700018BF062002497944BDE8104003F08CBB2D
:101F80006FFDFFFFF0B585B02D4F044609EB07004C
:101F900090F8C002012837D119F80700012833D181
:101FA000284E402109EB060000F13405284605F0D3
:101FB000B3FF09EB070014212A4640232D3004F01B
:101FC00087FF013026D0204909EB060002467944FC
:101FD00042F8141F0121C172017200F1340149F865
:101FE00006208161002119487844D4B1CDE902105E
:101FF000CDE9001109EB06010020154A154B7A4482
:102000007B4403F045F918E0002009F807004BF283
:10201000070001E04BF2020005B0BDE8F04000F01F
:102020001FB8CDE90011029009EB060100200A4A11
:102030000A4B7A447B4403F06BF8002005B0F0BDF6
:102040000000000020060000B664000085000000CB
:10205000DE610000F1640000AA610000BD640000C0
:1020600080B502460020002104F092FF80BD0000F0
:1020700010B50446FFF7E2FD034984F001007944FE
:10208000BDE8104003F008BB67FCFFFF0120FFF72D
:1020900079BF0020FFF776BF2DE9FC4D0C46CDE956
:1020A0000002684601210126224605F0DEF90546B8
:1020B00018BB207800F0F8002070E07F66F39F10D6
:1020C000E077D4E900010E4E7E44B04780468A4650
:1020D000D4E90201B04783460F46D4E90601B04770
:1020E000C4E90001D4E90401B04704F1080282E820
:1020F000030804F1140080E880052846BDE8FC8D43
:102100002503000070B592B01446026802AE054681
:1021100008463146FFF7C0FF00200021202809D0E3
:10212000325C4901130641EAD361315402F00701E0
:102130000130F3E72946284651F80C3B009402AAE7
:1021400001F044F918B92846214601F07AF812B096
:1021500070BD00002DE9F04DADF5467D0546CE98E9
:10216000202818D10E4682A928461F46924600F024
:1021700037FD88B92A6872AC30462146FFF78CFFDC
:1021800050B9DDF83CB300205AA9202808D0225CC1
:102190000A540130F9E794480DF5467DBDE8F08D0D
:1021A00012A80921402205F081F90028F4D104F198
:1021B000200112A8202205F07EF90028ECD112A8F7
:1021C0003946202205F077F90028E5D112A862AC43
:1021D000214605F066F90028DED13F2072A9421C95
:1021E00004D0225C013801F8012BF8E789A872AA13
:1021F0004021402305F0DAFB0028CDD187A84021FB
:1022000005F0CAFB0028C7D178490DF10808402223
:102210004046794405F076FE88A840214246402396
:1022200005F0C4FB0028B7D18999DDE9870205F0E4
:1022300051FC0028B0D187AA05F10C0182AB2846D9
:1022400001F05EF80028A7D182A9284600F0F9FF26
:102250000028A1D10BF1200382A928465A4600F09C
:10226000CAFF002898D1879852A9202205F0DEFBEA
:10227000002891D188A805F0A5FB00287FF48CAF39
:1022800089A805F09FFB00287FF486AF87A805F09A
:1022900099FB00287FF480AF284600F050FF00280B
:1022A0007FF47AAF05F120048AA800F0A5F8002891
:1022B0007FF472AF1F2062A9421C04D03A5C01383F
:1022C00001F8012BF8E78299919805F09BFB002813
:1022D0007FF462AF8399929805F094FB00287FF415
:1022E0005BAFDAF80010939805F08CFB00287FF4C0
:1022F00053AFDAF80410949805F084FB00287FF4BB
:102300004BAF959862A9202205F070FB00287FF45E
:1023100043AF95982246014605F012FC00287FF451
:102320003BAF82A9284600F070FC00287FF434AF50
:1023300085A8202105F030FB00287FF42DAF8AA866
:1023400085AA0021012301F0CDF900287FF424AFF4
:1023500085982246014605F0FFFB00287FF41CAF5C
:1023600086A85AAA2021202305F020FB00287FF40C
:1023700013AF01A8202105F00FFB00287FF40CAF5C
:1023800008F1200288A82021202305F00FFB002857
:102390007FF402AF889BDDE98512019805F08EFB82
:1023A00000287FF4F9AE859852A9202205F01EFB83
:1023B00000287FF4F1AE889B019ADDE9851005F0D5
:1023C00065FB00287FF4E8AE889ADDE9850105F019
:1023D00081FB00287FF4E0AE85980BF140012022BC
:1023E00005F024FBD8E600BF034E4B5A8E6D00006B
:1023F0000ABA01BA1046704705210522234601F0AA
:102400000BB92DE9F04585B00E46074603A82021FB
:1024100000F0DAFB88B902A800F0CFFB68B901A888
:1024200000F0CBFB48B90398012105F0F5FA20B97B
:102430000298012105F0F0FA10B105B0BDE8F08571
:10244000DDF830800DF1100A1EB338682946524677
:1024500005F0F8FA0028F0D10498B8B102983A686B
:102460002346014605F02AFB0028E6D13968019889
:102470002A46234605F016FB0028DED10398019A70
:102480002346014605F01AFB0028D6D10437013E49
:10249000DAE703994046224605F028FB0028CCD114
:1024A000029A40464146234605F008FB0028C4D165
:1024B00003A805F087FA0028BFD102A805F082FA28
:1024C000BBE72DE9FE450F46064602A820211C4623
:1024D000924605F061FA08B1BDE8FE8501A800F05A
:1024E0006CFB0028F8D10298002105F095FA00282D
:1024F000F2D1DDF828800025AC421DD0019857F8B4
:102500002520B368214600903846FFF77AFF00285F
:10251000E2D101985AF82520B368014605F0CEFAB9
:102520000028D9D1DDE90120B368014605F0AEFAF3
:1025300001350028E0D0CFE7B2680299404605F0A7
:10254000C9FABDE8FE852DE9FC410E460168074643
:1025500001A800F039FB08B1BDE8FC81DDF820805E
:1025600056F82510404605F04DFA0028F4D1043EF7
:10257000BB68019841467DB1224605F09FFA0028CC
:10258000EAD156F82520BB680199404605F07EFA4D
:10259000013D0028ECD0DFE71A4605F09BFA002841
:1025A000DAD10199404605F02DFA0028D4D101A8CE
:1025B00005F008FABDE8FC81F0B591B001AF0E4618
:1025C000054620211446384604F07AFF07F1200022
:1025D0003146202205F096FC2968684605F0DCF9B2
:1025E00078B9AA68009B01A8402101F0A5F940B97B
:1025F0002A680098214605F019FA10B9684605F0D6
:10260000E1F911B0F0BD2DE9F8451D4617460E461B
:102610000446FFF7D1FFF8B907F1200A20463146FA
:102620005246FFF7C9FFB8B9A04620463A4658F8C7
:102630000C3B0095414600F0C9FE68B9204629468A
:1026400000F0FFFD40B923680C3520464146524654
:10265000009500F0BBFE08B1BDE8F885204629468C
:10266000BDE8F84500F0EDBD2DE9F04DD6B00646C9
:1026700016A81C4615460F4601F0BEF910B156B01B
:10268000BDE8F08DCDE90476019406A84FF0000A6C
:102690004FF0020B042600240295A0F10108AC4281
:1026A00058D0059804EB840103910568049805FB54
:1026B0000A00294629B110F8012B08F80120013938
:1026C000F8E716A806A92A4601F0B0F90028D6D1E5
:1026D0000398049F431C059805FB0B710268501E6C
:1026E000154602FB0303FB5C2DB111F8017B08F8D2
:1026F0000570013DF8E706A90D5C45EAC3130B54CC
:1027000016A801F093F90028B9D10598049D026834
:102710000398C31C501E02FB065102FB0303EB5C33
:1027200015462DB111F8017B08F80570013DF8E759
:1027300006A90D5C45EAC3130B5416A801F076F9FF
:1027400005360134029D0BF1050B0AF1050A00283C
:10275000A5D094E70598816816A8019A01F068F958
:102760008DE72DE9F04D88B00D4605A91F4693462B
:10277000044600F035FA48B902A9204600F030FAC4
:1027800020B91099204600F023FD10B108B0BDE833
:10279000F08D05AE4FF000084FF0040A0195474553
:1027A00041D02268AAF10300334602FB0051AAF18E
:1027B000020002FB0052204600F082FC0028E5D116
:1027C0001099204632460B4600F09BFA0028DDD1D6
:1027D0002268AAF10100334602FB005102FB0A52B3
:1027E000204600F06DFC0028D0D1236858460DF13A
:1027F000080B31460546CDF800B003FB0802204621
:1028000000F0E4FD0028C1D1109920465A460B463D
:1028100000F077FAAB46019D0AF1050A08F10108BC
:102820000028BCD0B2E71099204600F00AFD00282D
:10283000ACD105A900F0D1F90028A7D102A900F078
:10284000CCF9A3E72DE9F04DF4B00E460168074638
:1028500073A800F0B9F9F0B9396872A805F09CF8CE
:10286000C8B9DDE97C01BA68739B01F079F890B9C9
:10287000729B384629462246FFF7F6FE58B93A6859
:10288000739812A905F0D2F828B93A68729802A98B
:1028900005F0CCF810B174B0BDE8F08D00200DF15A
:1028A000C80A0DF1880B4FF000080090444543D052
:1028B000396801A805F070F80028ECD1504601F005
:1028C00081F80028E7D1396830465A4600F066F9A9
:1028D0000028E0D1396812A85A4600F05FF90028B4
:1028E000D9D1396802A85A4600F058F90028D2D147
:1028F000396800985A4600FB015000F04FF9002853
:10290000C9D1B968019A504601F092F80028C2D1A5
:102910003A687E9802FB0801019805F087F80028C4
:10292000B9D101A805F04EF80028B4D1009808F1FB
:10293000010805300090B9E773A805F043F80028B6
:10294000A9D172A805F03EF8A5E7013A21B110F827
:10295000013B53540139F9E7704700002DE9F0417C
:10296000BCB00646429820284BD130461F4614463C
:102970000D4600F0E4FB002844D106F1200868462B
:1029800005210522434600F047FED8BB2968079879
:1029900005F038F8B0BB6968089805F033F888BBD3
:1029A00032680998214605F021F858BB099800F0D3
:1029B00007F938BB32680A9804F1200105F016F8CF
:1029C00000BB0A9800F0FCF8E0B90B9839462022C9
:1029D00005F00CF8B0B90B9800F0F2F890B9304659
:1029E000294600F012F968B9684643AA002101237C
:1029F00000F078FE30B943984246014605F0ACF845
:102A000000E002483CB0BDE8F08100BF034E4B5AE5
:102A10002DE9F04DC2B08046D87FDDE94EA64C9F2F
:102A2000CDE904129B4616AB00211F221EAC00F01C
:102A3000010020290FD00BEB010595F820505D54C3
:102A40001AF80250013A65549DF85850013145403A
:102A50008DF85850EDE73EA800F0AFF8002840F0A0
:102A600098803FAD4046294600F0BAF8002840F073
:102A7000908026A84D9BCDE900463A46029016A9C3
:102A80004046FFF7DFFE002840F08380009526AC2B
:102A90004D9B404639462246FFF763FE002878D119
:102AA0003E9820215A465346CDE900103FA94046A2
:102AB000FFF754FF00286CD100F08AF8002868D195
:102AC0000CA835492022794405F01CFA15A800F01D
:102AD00074F800285DD114A80CAA00F06AF8002848
:102AE00057D13E99DDE9142004F0F4FF002850D1BD
:102AF0004A9A0BA800F05DF800284AD14B9A0AA820
:102B000000F057F8002844D1509A09A800F051F875
:102B100000283ED108A8059A00F04BF8C8BB0498DD
:102B20002021202304EB4010A0F1200206A804F08D
:102B30003DFF70BB07A800F040F850BB149B0A99FA
:102B4000DDE9062004F0BAFF18BB149BDDE908217B
:102B50000A9804F0B3FFE0B9DDE91432DDE90901B8
:102B600004F0ACFFA8B9149B099ADDE9060104F052
:102B70008DFF70B9149B0B9ADDE9061004F086FFF7
:102B800038B9149A07993E9804F0A4FF08B900F0E8
:102B90001FF842B0BDE8F08DB65B00004DF808EDBF
:102BA000FFF7D3FE3A68504659465DF808EB00F04F
:102BB0003DBF2021202304F0F9BE202104F0ECBE0B
:102BC0004246014604F0BCBF1C46154604F0E4BE74
:102BD0003E985199202204F029BF204600F015B8F4
:102BE000B0B50D4601680446284604F0D5FE20B96C
:102BF0002168281D04F0D0FE00B1B0BD216805F1A8
:102C00000800BDE8B04004F0C7BE10B508460C4649
:102C100004F0D8FE18B9201D04F0D4FE00B110BD98
:102C200004F10800BDE8104004F0CCBEF8B50F4632
:102C30001446054643680968406B7A6804F026FF2D
:102C4000002854D1D5E90C0105F1200600F0E4FB81
:102C500000284CD13968686B00F0DEFB002846D1B3
:102C60007968A86B00F0D8FB002840D1A9696A6B8D
:102C7000E86B00F0CBFBD0BB6B68D5E90E21286C6C
:102C800004F004FF98BBB968A86C00F0C5FB70BBEA
:102C90006B68E86A296CAA6C04F004FF38BB6B68A7
:102CA000E96AD5E9122004F0FDFE00BB05F12C0213
:102CB0006B6807CA04F0F6FEC8B96B68D5E90B105B
:102CC000AA6B04F0EFFE90B92A6BE96C206800F063
:102CD0009DFB60B96B68D5E90D02E96B04F0E2FE7B
:102CE00028B96A6B296C606800F090FB00B1F8BDF0
:102CF000296CEA6CA068334601B0BDE8F04004F0EE
:102D000037BF2DE9F041064617460C4692688968A0
:102D1000C06A984606F1200500F07BFB00287DD1B3
:102D2000D6E90B102B460A4604F022FF002875D185
:102D30003A682168706B00F06CFB00286ED17A68ED
:102D40006168B06B00F065FB002867D1D6E90D1211
:102D5000F06C00F05EFB002860D1F269F06BF16C62
:102D600000F057FB002859D17368316BD6E90F206A
:102D700004F098FE002851D17368316BF26B706CCF
:102D800004F084FE002849D1D4E900127368B06CC5
:102D900004F07CFE002841D1D7E900127368F06C82
:102DA00004F074FED0BB306BD6E9121200F031FB98
:102DB000A0BB7368D6E90C12B06C04F073FE68BB5C
:102DC0007368B26BD6E9121004F06CFE30BBD6E922
:102DD0000B10F26C00F01DFB00BB326B316CD8F8AD
:102DE000000000F016FBC8B9B169D6E90C0200F08A
:102DF00010FB98B97368326BB16BF06C04F052FE43
:102E000060B9306B716CF26C00F003FB30B9D6E93D
:102E10000B12D8F8040000F0FCFA08B1BDE8F0810C
:102E2000D6E91012D8F808002B46BDE8F04104F0AE
:102E30009FBEF8B505460F46052009681446009068
:102E400005F12006E86A0A4600F0E0FA00B1F8BD94
:102E50007968286B00F0E0FA0028F8D1D5E90B1268
:102E6000686B00F0D3FA0028F1D1A969EA6AE86B2F
:102E700000F0CCFA0028EAD1E86B6B682A6B0146B7
:102E800004F004FE0028E2D1E9696A6B286C00F0C6
:102E9000BDFA0028DBD16B68AA6AA86B296C04F024
:102EA000F5FD0028D3D1A86B3246014604F054FE4C
:102EB0000028CCD1E86B3246014604F04DFE0028D4
:102EC000C5D1D5E90E016A4604F0BCFD0028BED18B
:102ED0000098B0FA80F0400920700020F8BD000092
:102EE0002DE9F04DD2B00446022922D0012940F04C
:102EF000CD802020202220604AAF6749384679449F
:102F000005F000F842AE654920223046794404F0CD
:102F1000F9FF63490DF1E80A20225046794404F094
:102F2000F1FF32AD5F4920222846794404F0EAFFE0
:102F30002DE02020202220602AAF5B4938467944CA
:102F400004F0E0FF22AE594920223046794404F0D3
:102F5000D9FF57490DF1680A20225046794404F000
:102F6000D1FF12A8534920220190794404F0CAFFEE
:102F700051490DF1280B20225846794404F0C2FF34
:102F800002AD4E4920222846794404F0BBFF04F1EB
:102F9000040820213A462023404604F007FD00287B
:102FA00075D120462A4650F8081B0B4604F0FEFC5B
:102FB00000286CD104F120052021284604F0ACFD46
:102FC000002864D1D8F80010284604F0AFFD00288E
:102FD0005DD1274657F8281B384604F0DDFC002851
:102FE00055D13868012104F017FD00284FD1386809
:102FF00000F016FA00284AD104F10C0720463946A1
:10300000FFF7EEFD002842D1019920465A463B4683
:1030100000F056F8D8BB2746324657F8181B3846FA
:103020000B4604F0C3FC90BB386800F0F9F970BBA4
:103030002646524656F81C1B30460B4604F0B6FC9A
:1030400028BB306800F0ECF908BB204650F82C1B78
:1030500004F0A2FCD8B900F0FBF9C0B900F0E4F923
:10306000A8B900F0F0F990B900F0FCF978B900F0D7
:10307000E5F960B900F0F1F948B900F0DAF930B9D2
:1030800054F84C1B204604F087FC00E0014852B085
:10309000BDE8F08D014E4B5A5E560000905800007E
:1030A00040580000325700009E580000F0570000C2
:1030B0006058000092580000A2580000F45600002A
:1030C000FEB506681C4617460A46054602A8314664
:1030D000334604F06BFC00B1FEBD01A831463A4610
:1030E000334604F063FC0028F6D16846314604F00C
:1030F00053FC0028F0D105F12006206802993246E1
:1031000004F01EFD0028E7D160680199324604F002
:1031100017FD0028E0D1A96AA06804F073FC00281C
:10312000DAD102A804F04EFC0028D5D101A804F0A1
:1031300049FC0028D0D1684604F044FCFEBD10B51F
:1031400004462C3004F03EFCD8BB04F1300004F0FF
:1031500039FCB0BB04F1340004F034FC88BB04F14A
:10316000380004F02FFC60BB04F13C0004F02AFCA2
:1031700038BB04F1400004F025FC10BB04F144000E
:1031800004F020FCE8B904F1480004F01BFCC0B9CD
:1031900004F14C0004F016FC98B904F10C01FFF79F
:1031A00034FD70B904F1180004F00CFC48B904F1C6
:1031B0001C0004F007FC20B904F1280004F002FC14
:1031C00000B110BD04F10800BDE8104004F0FABBE6
:1031D000B0B5054608680C46002104F01DFC18B97E
:1031E000A96A00F044F900B1B0BDA96AA068BDE8C1
:1031F000B04004F007BC2DE9F041984616460F4652
:10320000054600F01EF898B905F120043968E86A0F
:10321000224604F0A1FC58B97968286B224604F0D4
:103220009BFC28B92A68E86A314604F0FFFB08B124
:10323000BDE8F0812A68286B4146BDE8F04104F002
:10324000F5BB70B505460C468968C06A05F12006D5
:10325000324604F0A9FCD0B92268D5E90B1000F081
:10326000D5F8A0B96268E96A686B00F0CFF870B968
:10327000A268E96AA86B00F0C9F840B9296B206818
:1032800004F0C0FB18B9696B00F0F1F800B170BD33
:10329000A96BA068BDE8704004F0B4BBB0B50C46A3
:1032A00005460168206804F0ADFB18B9696800F0B4
:1032B000DEF800B1B0BDA968A068BDE8B04004F078
:1032C000A1BBF8B50E460168074618461C461546D0
:1032D00004F062FB50B93968201D04F05DFB28B989
:1032E000396804F1080004F057FB00B1F8BD384616
:1032F00031462A46234601B0BDE8F040FFF7E0BE64
:103300002DE9FF4D074600208846154600219B46C3
:1033100003908DF80B00106803AA04F09FFB38BBE4
:103320000398D0B1286801A904F056FB00BB022025
:103330004FF0FF310DF10B043865019801EBC00629
:10334000002001280FD028683146224604F092FB65
:1033500070B99DF80B00013EF3E738465946FFF778
:1033600037FF28B9DEE740465946FFF797FF10B10F
:1033700004B0BDE8F08D01200DF10B0AC7E9140679
:10338000002E20D4384659465A46FFF74FFC0028F5
:10339000EED1386D3146524640003865286804F059
:1033A00069FB0028E4D19DF80B0050B1384659461E
:1033B00042465B46FFF7A5FC0028D9D1386D0130A5
:1033C0003865013EDCE70020D2E70000BCB50C46C2
:1033D000016899423CBF0C48BCBD0546CA2028651F
:1033E00001A804F0E3FA00B1BCBDB320069B21465E
:1033F000286501AA2846FFF783FF0028F4D101A819
:1034000004F0E0FABCBD00BF014E4B5A334604F055
:10341000AFBB2B4604F0ACBB33460A4604F0A8BB56
:103420002A46014604F08CBB204650F8341B04F0B9
:10343000B3BA204650F8481B04F0AEBA204650F804
:10344000401B04F0A9BA204650F8381B04F0A4BA77
:10345000204650F8301B04F09FBA204650F8441B19
:1034600004F09ABA204650F83C1B04F095BA606804
:1034700004F0C8BAB0B5C26890E81A005FEA520515
:103480004FEA3402E407C560DD0744EA530445EA25
:1034900051054460154C05602140154C23401944EA
:1034A0000C0C44EA034443EA134321440C0A44EA63
:1034B000036483EA132361400C0944EA037483EA3A
:1034C000131361408C0844EA837483EA93036140D8
:1034D0005FEA53034FEA3103594001F0010182EAE8
:1034E000C132826008460021B0BD00BF01208000CB
:1034F000400008402DE9F8450C4605464FF0000A0B
:103500004FF000080027A74215D22846FFF7B2FF68
:1035100006462846FFF7AEFF10EB46008107F2D5BE
:1035200000F001004FEA4801013740EA4A0041EA51
:10353000DA788246E7E750464146BDE8F885000064
:10354000B0B5094A094B0446A02500204FF6FF718B
:10355000C4E90210C4E9003225B12046FFF78AFF12
:10356000013DF9E7B0BD00BF10F0FCFF02FC0118FF
:103570002DE9F041204F224E05460C460020B8466A
:103580001E4F7E44F8B928463E21B047C4E90001E9
:1035900028464021B047C4E9020128464021B047EF
:1035A000C4E9040128464021B047C4E90601D4E932
:1035B00000013A46C01B404671EB08004FF0000086
:1035C00038BF0120DEE7D4E900010E4D7D44A84755
:1035D000C4E90001D4E90201A847C4E90201D4E921
:1035E0000401A847C4E90401D4E90601A847C4E9D5
:1035F0000601BDE8F08100BF4E4B5A302221584FE2
:103600006FFFFFFF390000000ABA01BA1046704789
:10361000C030FFF7ADBF00002DE9F041ADF5906D72
:103620000446C0301E4617460D46FFF789FF2C4959
:10363000E8464FF490624046794404F063FC002071
:10364000257366612146C4F8D000781CC4E9017076
:10365000306804F0C1F930B9204650F8D46B3146D7
:1036600004F09AF918B10DF5906DBDE8F081A068ED
:103670000025854230D204EB8507314607F118005A
:1036800004F08AF90028EED107F1D800314604F0A1
:1036900083F90028E7D10027A06887421AD205FBEA
:1036A00000703146334600FB068204EB8000303068
:1036B00004F07CF90028D6D1A068626905FB00708F
:1036C00004EB8000006B014604F03AFA0137002851
:1036D000E2D0C8E70135CCE7012020610020C2E735
:1036E000A85900002DE9F04D8CB00646006901286C
:1036F00040F0B480B0691F46924604F08DF900286E
:1037000040F0AD8006F10C0006F1180806F1C00B80
:1037100001900020442800F0AE803468CDE9020A10
:103720004FF0000AB068824524D204AD58462946BD
:10373000FFF71EFFD6F8D8002946224604F056F9B6
:10374000002840F08C80D6F8D8007269014604F059
:10375000F7F9002840F08380726958F82A00D6F8FB
:10376000D8101368024604F091F90AF1010A002802
:10377000D8D074E00299042901D3402923D3DDF87D
:103780000CA0002484422BD258F824107369D6F878
:10379000D8000A4604F0ECF9002860D1D6E93610CA
:1037A00073690A4604F0E4F9002858D158F8240057
:1037B0007369D6F8DC20014604F0DAF900284ED10E
:1037C000B0680134DEE7D6E90510019A01230091C3
:1037D000014604F0D9F9DDF80CA000283FD1B0680B
:1037E0000025854229D206EB8504002154F8D80F24
:1037F00004F012F998BB03950025B068854219D2F0
:103800000399736901FB005058F8251006EB8000FE
:10381000026BD6F8D40004F0ABF900BB71692068E4
:10382000D6F8D4200B68014604F030F901350028A1
:10383000E3D014E0039D0135D3E7002484420AD28B
:1038400006EB84018869D1F8D81004F0DBF830B9B0
:10385000B0680134F2E7029801305BE708480CB029
:10386000BDE8F08D58F8041B5AF8040B04F0CAF8B0
:10387000013F0028F3D1002FF4D10020EFE700BF73
:10388000024E4B5AF0B5D9B00E46074658A8402113
:103890001C46154604F080F8D8BB1F4968461D2217
:1038A000794404F02FFB08A80921402203F0FEFD13
:1038B00078BB08A869461D2203F0FDFD48BB08A897
:1038C0003946324603F0F7FD18BB08A829462246C0
:1038D00003F0F1FDE8B908A848AE314603F0E1FD78
:1038E000B8B9DDE95E4500203F21202802D000F074
:1038F000DDF8FAE7589848A9402204F077F840B973
:1039000058992846224604F0E5F810B958A804F062
:1039100059F859B0F0BD00BFC05B0000BFB5054607
:103920006F2000F0B7F846F6720000F0BAF803A86E
:10393000FFF7A8FF04B0B0BDBFB5054665200C4633
:10394000CDE9002305218DF80C0004482A462346C2
:10395000029002A8FFF796FF04B0B0BD6E6F6E63D1
:10396000BFB50546672000F095F847F26D3000F0CE
:1039700098F803A8FFF786FF04B0B0BDBFB50546B1
:103980006D2000F087F846F6637000F08AF803A80F
:10399000FFF778FF04B0B0BDF8B51D46044603F04C
:1039A00085FD38B9DDE90627089E2046294603F043
:1039B00082FD00B1F8BD204639463246BDE8F840E8
:1039C00003F079BD70B58CB004466F201D221D2612
:1039D0008DF82E0046F67200ADF82C0003AD0549B7
:1039E0002846794404F08EFA0BA900F049F80CB08F
:1039F00070BD00BF7E5A000070B58CB004466D20CB
:103A00001D221D268DF82E0046F66370ADF82C00A1
:103A100003AD05492846794404F074FA0BA900F077
:103A20002FF80CB070BD00BF4A5A000003F043BD30
:103A3000F0B591B00C46074610A84021154603F09A
:103A4000ABFFD8B96E463846314603F02AFDA8B917
:103A500000203F21202802D000F028F8FAE7109833
:103A60006946402203F0C2FF40B910992846224619
:103A700004F030F810B910A803F0A4FF11B0F0BDA5
:103A8000032040222B46CDE9006102902046092107
:103A9000FFF782BF0C46CDE9002303218DF80E000D
:103AA00070472A462346ADF80C007047325C735CC1
:103AB00033547254013901307047F0B59DB015464A
:103AC000229AC8B3C1B3BDB31C46ABB30AB100213F
:103AD00011700178B02931D14178A72931D0062958
:103AE00036D0012931D1817879BBC07868BB206894
:103AF00000212160032821D30126C71E26602E70D5
:103B000020683A1A2844411C012004F0B3F800F060
:103B10003FF820603A1A2844411C022004F0AAF819
:103B200000F036F8411C21602E5404F09BF8216807
:103B30004A1C2260685428E014781EE046F685147A
:103B40001BE0817809B9C078D0B14FF4DC4414E0AF
:103B5000002121608378027902ADCDE90015411D75
:103B60001846002304F04AF8044628466C2104F065
:103B7000E1F9002C08BF4FF4104420461DB0F0BD01
:103B8000002020600AB1012010704FF41044F4E7C7
:103B900021684A1C2260685421680844704780B537
:103BA000C078202807D1012003F0A5FC03F0B2FC67
:103BB00003F097FC0021084680BD0000B0B50A461E
:103BC000014606480023002509EB0004607804F054
:103BD0007BF80349657049448D71B0BDBE08000093
:103BE000B6080000FEB5664E0021054600220123FE
:103BF0008DF80B1040F2111109EB060004F070F87B
:103C000004460128C0F2AB8019F80600A0F11001AB
:103C1000162905D8012202FA01F15A4A114206D1A9
:103C2000411E022967D3302818BF402877D1564F4C
:103C300009EB0701487003F0F1FFAA2803D103F054
:103C4000F6FFAA2845D109EB06004078B0282CD110
:103C500040F21110611E01900DF10B0000904B48D5
:103C600001AB09EB000509EB060001302A46FFF71E
:103C700024FF0024019909EB0706B0F5104F18BF87
:103C80002146020A00236A546A185070881C29468B
:103C9000019082B2707804F017F89DF80B107470E0
:103CA00001296AD000EAE07459E009EB0700407886
:103CB000102843D0402843D0212843D0222837D091
:103CC000232837D0302837D0202814BF00200120E7
:103CD00039E02E4855210222002309F8001009EB93
:103CE00000011520487009EB0700407803B0BDE8DB
:103CF000F04003F0E9BF274F4E44013C711C2246BF
:103D000009EB070004F0FEF870781A280AD109EBD5
:103D10000700214603B0BDE8F040FFF740BF42284E
:103D20001DD028E0EDB10020002403F0FBF816E0E0
:103D3000042008E0072006E0022004E0062002E05C
:103D4000032000E005201249013C224649448871C5
:103D50000E4809EB06010131484404F0D3F820462F
:103D6000FEBD19F807001528DDD8012101FA00F081
:103D700009490842D7D00024F1E7FF2003F086FF6D
:103D8000A507000001007F00BE08000094060000A7
:103D9000B60800003C0A00002050200070B58AB030
:103DA0000B4D0026182109EB0500467001AC20469A
:103DB00004F0B2F81120ADF82460ADF81C002046E4
:103DC00003F06EFF012009F805000AB070BD00BFC6
:103DD000BE08000070B50546007848B1194809EBE7
:103DE00000018A7B52B14844817E51B1002426E013
:103DF000144809EB00040020A07004E001F10C0459
:103E000001E000F1180400202646A060206046F87A
:103E1000040F686803F074FDA060287805F10802BB
:103E20002070094B7B4420B13046072103F06DFB25
:103E300004E03046072103F063FB00206070204659
:103E400070BD00BFC008000025000000B0B590F8AC
:103E50003E20114802235C1C1DD0DCB209EB00059A
:103E600004EB440405EB84056D78AA4205D109EB07
:103E7000000505EB8405AD780DB9013BEBE709EBD7
:103E8000000202EB840292682AB1484400EB8400ED
:103E9000BDE8B0401047B0BDC008000070B50028B4
:103EA0004DD00D4649780446C80722D061780220DB
:103EB00003F03FFB2A786978234B244E002A7B4489
:103EC0007E44024608BF1E4602F8216F330ED370AF
:103ED000330C9370320A80F822206268A37842F88B
:103EE00023000322C2770422827500224272581CEA
:103EF000A07088074FF0000623D56178022003F0F8
:103F000018FB2978124A134B00297A447B44014656
:103F100008BF134601F8213F1A0E4672CA701A0CE8
:103F20008A70190A80F822106168A27841F822008C
:103F30000321C17706218175501CA07001E04FF06C
:103F4000FF36304670BD00BF78420000B542000029
:103F50005D4200001C420000002800F043812DE972
:103F6000F04D88B00E4641780546012017461C46A4
:103F700003F0DFFA80460320002F08BF0120697894
:103F800088F8200003F0DAFA4146020E4FF0720A78
:103F90004FF0000B049701F8220F88F804A088F86E
:103FA00005B0CA70020C000A88F823008A70042049
:103FB000697803F0BEFA07460320F877304603F02D
:103FC0009FFC0146082087F805B087F804A00394F9
:103FD000002C08BF0A2087F8220005220B0E87F864
:103FE00020203A4602F8261FD3700B0C93700A0A61
:103FF000012387F82720722203F0B4FA0646052829
:1040000005951DD33E46042001210DF11E0516F82D
:1040100026CF7278B378F47806F8010C16F8040C01
:1040200001910095059D4CEA022143EA04220423F4
:1040300000F078FCBDF81E003071000A7071042693
:1040400000F078FC8346C07997F82410049C06FBA6
:1040500000FA41F001014FEA1A2087F824100221EA
:1040600087F806A0F8714046B975002C10F8221F99
:1040700042788378C07841EA022143EA002041EA8D
:104080000040076000F0108103986978022840F032
:10409000AB800520052503F04CFA0026074680F882
:1040A00021600120ADF81A60ADF8186000F051FCF5
:1040B000204603F025FC01460E20FE71BD75B87147
:1040C00008200A0E87F82300384600F8251F00F064
:1040D00020FC652840F2D880BB4697F8265097F818
:1040E000230001241BF8251F9BF802209BF80330B6
:1040F00041EA052106AECDE9006442EA03220DF152
:104100001A0341EA0241662203F027FABDF81800BB
:10411000BDF81A600C303871000A78716D48132EA2
:1041200028BF13269BF800109BF802209BF8033051
:1041300009EB000497F8260041EA002042EA032137
:10414000324640EA0141204603F0DCFE00252046CD
:10415000A55503F0D5FB01218BF80000BD76059D28
:104160007976010E8BF80310010C000A87F82600FF
:104170008BF80210404610F8221F42788378C078EE
:1041800041EA022143EA002041EA00404760BDF8CD
:104190001800002800F0868069780520052603F0C5
:1041A000C8F90025074680F82150012000F0D1FB16
:1041B000049803F0A5FB0E21FD71B971082187F861
:1041C0002310BDF81A100144384600F8251F0A0EC6
:1041D00000F09FFB0C300F21BE753871000A78711A
:1041E000022057E000F0B2BB00F0A1FB0326074617
:1041F000C677204603F084FB014672200024012389
:1042000038710A200A0E7C7187F8220000F061FBE9
:1042100004281ED33D4615F826CF05F8016C15F885
:10422000040C95F801E0AB78E97807AA0092012226
:10423000019243EA01214CEA0E22032342EA0141A2
:10424000722203F09EF9BDF81C002871000A687103
:1042500003200399002908BF06469BF80700BC7697
:10426000BC7506FB00F106FB00A0B971090AF971E3
:10427000022100F1020A7976052187F820104146D3
:1042800000F03AFB4F600FE00C3008213871000A53
:1042900078710120002279764146BA7600F02CFB35
:1042A00041F820700AF12C0A6868A978052288F87C
:1042B00016204FEA1A2240F821800020013188F8A8
:1042C00006A088F8072088F81F00A97008B0BDE88C
:1042D000F08D00BFE408000000284FD02DE9F04D1C
:1042E0000C46054600274FF0050B4FF003084FF032
:1042F000000A207982453ED26079032802D3811ECC
:10430000514535DC0230504532D3697800F00FFB5F
:10431000216806465FFA8AF0884761790A228A4551
:1043200008BF082286F82220F771777186F820B03E
:1043300086F8217086F816B086F81F803246030E84
:1043400002F8260FD370030C000A937086F827003A
:104350006868AA7840F822600C20B0717220307131
:10436000AAEB0100010900017076501CB176A8701B
:104370000AF1010ABDE70020BDE8F08D00F0E6BAC1
:10438000002800F0DC802DE9F04D86B00D46417824
:104390008246012003F0CDF89AF8011080460320F0
:1043A000032703F0CBF84146020E4FF0000B0495B3
:1043B00001F8220F88F820B0CA70020C000A8A7037
:1043C00088F82300A868C0B39AF80110022003F00F
:1043D000B0F80646C777A86803F092FA3146020E95
:1043E00086F813B086F809B001F8210FCA70020CE4
:1043F0008A70010A86F82210314601F812BF81F84E
:1044000003B081F802B0414611F8222F4F788C7822
:10441000CD7811F8023C44EA052442EA0722049DC3
:1044200042EA044242F823600222B2755A1C01F8A3
:10443000022C8178C07841EA002B2868002800F01F
:10444000A5809AF8011000F072FA07460320F87769
:10445000286803F055FA01467220002438710520BF
:104460000A0E7C7187F82000384600F8261FC270BB
:104470000A0C8270080A87F8270097F824006A7BE4
:1044800040F0010087F824000820002A08BF0A2015
:1044900087F822007222012303F064F806460528FB
:1044A0001ED33D46042001210DF1160415F826CF38
:1044B0006A78AB78EE7805F8010C15F8040C0191D8
:1044C000009400244CEA022143EA0622042300F06F
:1044D00029FABDF8160004262871000A6871049DA7
:1044E00000F028FAC07987F821407043010AB871BA
:1044F000F971A96829B3414611F8222F4C7811F8B7
:10450000023C8D78C97842EA042245EA012142EA58
:1045100001413A4601EB830151F8041C02F8121FD5
:104520000B0ED3700B0C090A51700021937011729D
:10453000032E38BF01218900D17108210AE000F063
:1045400005BA696819B100F0F9F9022102E000F03A
:10455000F5F9052111714146584411F8222F4C7884
:104560008D78CE7811F8023C42EA042245EA06240E
:10457000049D42EA044242F823705A1C01F8022CBE
:10458000797EBA7E41EA022100EB010B68680028BF
:1045900071D09AF801100420CDF80CA002F0C9FFE8
:1045A00003240746C477686803F0AAF9014600208F
:1045B0000123787172200A0E38710A2087F82200D0
:1045C000052087F8200000F084F9824604281CD3D7
:1045D0003D464FF0010C15F8261F05F8014C6A788E
:1045E000AB78EC7815F8040C05AECDE9006C41EA27
:1045F000022143EA0422032300F094F9BDF81400D9
:104600004FF0030A2871000A687100F093F94146DF
:1046100011F8223F4C788D78CE7811F8022C43EABD
:10462000042345EA06243D4643EA044303EB82049F
:1046300054F8044C05F8124F260EEE70260C240A8E
:10464000FC74AE7043F822700223002401327B76A2
:104650000823BC7687F82140C079BB750AFB00F3BC
:104660000AFB00B0DDE903A5BB711B0A01F8022CAF
:1046700000F1020BFB71287B0221002808BF0521F5
:1046800088F81610DAF804009AF80210722240F83E
:104690002180002088F804204FEA1B22013188F88D
:1046A00006B088F8190088F81A0088F8050088F81C
:1046B0001F0088F807208AF8021006B0BDE8F08DC8
:1046C0002DE9F845002800F084800D464178044625
:1046D00000F02DF94FF00308064680F81F80286887
:1046E00003F00EF9014672200027012330710820E3
:1046F0000A0E777186F82200052086F820003046E1
:1047000000F8261FC2700A0C8270080A722286F80E
:10471000270096F8240040F0010086F824000820C5
:1047200002F020FF012854D896F8220002F010FF72
:104730006168A278B776F77141F82260B071022003
:1047400086F81980B075501CA070686800284ED09B
:10475000617800F0ECF806460320F077686803F013
:10476000CFF8722137464FF000084FF0050A31713B
:104770000A2107F8260F86F8058086F820A086F81B
:104780002210010EF970010C000A86F827000A2099
:10479000B97002F0DDFEC10996F82720BB78400011
:1047A000F17196F82410B07196F8220041F00101E1
:1047B00086F824103978FF7841EA022143EA07227B
:1047C0000123012741EA0241722202F0CBFE0228B6
:1047D00002D94FF0FF365CE06068A17886F81A8055
:1047E00086F816A040F82160481C7776A0706178A2
:1047F000052002F09EFE002607464FF0030A4FF008
:10480000080880F82160012087F820A087F81FA001
:1048100087F8238087F82200287A1F4A1F49012839
:104820007A44794408BF11463A460B0E02F8251F18
:10483000D3700B0C93700A0A87F82620012838469B
:10484000174A184D7A447D4418BF2A4600F82E2F87
:10485000130EC370130C8370100A87F82F00082002
:1048600002F08AFE6168A2786B78BE76FE7187F8E6
:10487000168041F822700C2187F819A0B9712978A7
:1048800041EA03210844511C0A303871000AA17022
:1048900078713046BDE8F885D53A0000A23B0000AB
:1048A0006D3800005538000020B180B502F032FEAE
:1048B000002080BD00F04AB848B110B50446007829
:1048C00010B1607802F02BFE0020A07010BD00F047
:1048D0003DB8384600F8261FC2700A0C8270080ADC
:1048E000722287F8270097F8240040F0010087F82B
:1048F00024000A2002F036BE11F8222F4B788D7862
:10490000C97845EA012142EA0322059D42EA0141B4
:104910007047C2700A0C8270080A87F826000820C7
:1049200002F02ABE41EA0241722202F02ABE0420AD
:1049300002F0FFBD97F8220002F005BE00213A46C2
:1049400002F8121FD1709170517070474FF0FF3014
:10495000704787F82200032087F82000F877704717
:104960002DE9F8450E460A99054600209A46174655
:1049700000F030F848B3DDF82080044646610FB1FE
:1049800000F0E1FA0A20B8F1000F19BF41460322F6
:1049900051460422722302F0EAFD099920702A0789
:1049A00046BF013860706078C4F80C80C4F804A079
:1049B00084F83010C5F38011617405F0030121748F
:1049C000C1B2204600F02CF800E000242046BDE8EB
:1049D000F885000070B5044610480D4651B100211D
:1049E00090290AD009EB00020A44D2F8882032B19B
:1049F0004831F5E709EB000605E000260BE04844E6
:104A0000084400F148063046482103F085FA86F84C
:104A1000455086F84440304670BD00BFF80800009D
:104A20002DE9F04591B0044640780E4688421CD2EC
:104A3000A568207866700138B04231DDE068012158
:104A4000032308AACDE900212946002808BF042332
:104A50000A20722202F095FDBDF820106818A060AF
:104A6000695C0A291ED101301BE0E568002D74D075
:104A700000274FF001080DF1200ABE42D9D020785E
:104A80000138B8420ADD0A20294672220323CDE903
:104A900000A802F076FDBDF8200005440137ECE7E0
:104AA0000020A0604F4804F13402784404900020B4
:104AB000ADF80A0094F845008DF80C0007CA05AB64
:104AC00007C303A8FFF786F9277894F801A00646E4
:104AD0002064207C3946524600F0FCF880468DF870
:104AE0000B00E06888B1012F15D16168082072229F
:104AF0000023002602F036FD022848D36168182002
:104B000004F11802CDE9002021E094F8303030465D
:104B10002946002255E00AF1010063682421CDE90D
:104B2000000708AF304A38467A4402F057FD0820A3
:104B30003946722200234FF0000A02F013FD04F1FF
:104B4000180C02282CD31820CDE900C008A9082091
:104B50007222012302F01AFD2DE0656800274FF054
:104B600001080DF1200ABE423FF463AF20780138FE
:104B7000B8420ADD0A20294672220423CDE900A8A2
:104B800002F0FFFCBDF8200005440137EBE7616847
:104B900004F11800172203F0B5F984F82F600AE039
:104BA0004FCFACE84F0084F82FA03888ACF8000055
:104BB000B8788CF8020094F83030206C04F11801B9
:104BC0002A46FFF7C9F9B8F1000F04D0206C0DF1A7
:104BD0000A01FFF763F900F0E9F902F082FC11B075
:104BE000BDE8F085BB010000C63600002DE9F045A8
:104BF00087B00D46824602A800F0D3F919480E99F5
:104C0000784400F0C5F968B1044645610FB100F081
:104C100053F900F0CEF907D0022807D0012808D1B7
:104C2000022004E0002418E0032000E00120002519
:104C300000E000208DF8070002A8FFF7CBF84146FE
:104C40002064FFF79DFB25B9206C0DF10601FFF7ED
:104C500025F900F0ABF902F044FC204607B0BDE8AE
:104C6000F08500BF6500000010B50C4600F0F0F8BC
:104C700078B3042C06D0012C08D054BB4178D9B1AC
:104C8000013909E0426922B304211FE0027841782A
:104C9000013A8A4205DD0131C9B2BDE81040FFF793
:104CA000BFBE017C41F00201032901D0417C81B1EA
:104CB000426972B1012109E0017C01F0FE01022983
:104CC00001D0417C29B142691AB10021BDE81040F0
:104CD000104710BD0346022908D301391046002AA7
:104CE00018BF0120914288BF023000E00020032B52
:104CF0000AD0022B04BF40F001007047012B04BF13
:104D000040F002007047704703207047F8B50F4627
:104D10000646022019461546FFF75CFE70B10446B0
:104D20000FB100F010F92879207268796072286854
:104D3000C4E90060204600F005F800E000242046A9
:104D4000F8BD0000B0B586B004460020019004F123
:104D5000340219487844029094F845008DF8040014
:104D600007CA03AB07C301A8FFF734F8251D206469
:104D70002946FFF7B1FA207A022816D30121ADF8AF
:104D80000210697900290A4618BF012201388DF8FE
:104D90000320884203D9901C8DF8030000E021B164
:104DA000206C0DF10201FFF779F800F0FFF802F036
:104DB00098FB06B0B0BD00BF210100002DE9F04511
:104DC00087B00D46824602A800F0EBF819480E990C
:104DD000784400F0DDF868B1044645610FB100F099
:104DE0006BF800F0E6F807D0022807D0012808D1B8
:104DF000022004E0002418E0032000E00120002548
:104E000000E000208DF8070002A8FEF7E3FF41460E
:104E10002064FFF755FC25B9206C0DF10601FFF762
:104E20003DF800F0C3F802F05CFB204607B0BDE897
:104E3000F08500BF95FEFFFF38B110B50446006C49
:104E4000FFF73AFD0021216410BD4FF0FF3070479D
:104E5000084A0021D82904BF0020704709EB02034B
:104E60000B441B6C834201D04831F3E709EB02008D
:104E700008447047F808000010B50C46FFF7E8FF3B
:104E8000C8B1042C06D0012C0AD0A4B9417A91B142
:104E900001390BE0417A02680846BDE8104010472E
:104EA000027A417A013A8A4205DD01314172BDE858
:104EB0001040FFF747BF10BD38787978BA78FB7893
:104EC00042EA032240EA012040EA02406063384699
:104ED00010F8082F797A42EA01218278C37842EAF1
:104EE000032241EA0241E163394611F8043F7A792D
:104EF00043EA02228B78CD7843EA052342EA034253
:104F0000A2633A787B78BD78FE7842EA032245EACC
:104F10000625037842EA05428578C07804927A7AB9
:104F200045EA002043EA02228B7842EA00400A78F0
:104F3000C9780690787943EA012142EA002040EAE4
:104F400001400590704738787978BA78FB7840EA64
:104F5000012042EA0322394640EA024011F8082FB4
:104F60006063787A42EA00208A78C97842EA0121AF
:104F700040EA0140E063787917F8041F41EA002015
:104F8000B978FA7841EA022140EA0140A06370470B
:104F90008DF8081003900020ADF806000120FFF7FF
:104FA00019BD14219846174602F0B6BF206CFFF7D2
:104FB0007BBC01250AF0030003282570207470478C
:104FC0002DE9F0410746104801F031FDC4E90F76A4
:104FD0006564069D284602F093FCA064079802F0E1
:104FE0008FFC0999B8F1FF0F61650899C4E91301B5
:104FF00018BF002D03D1BDE8F04100F043B8404692
:10500000BDE8F04100F002B8D0090000F0B58FB063
:10501000044601A8382102F07FFF194E09EB060073
:1050200090F82C000F281EBF09EB06000E2180F817
:105030002C1009EB06000121002780F8341001AD87
:1050400009EB0600806C017A8F420ED279B22A46B3
:1050500000F006FD00F05EFD09EB0601013791F856
:105060003420104481F83400EAE709EB06000021FF
:1050700080F83540002000F057FF0FB0F0BD00BFB2
:10508000D009000010B5214809EB000191F82C105F
:105090000D2909D00E2914D109EB00010A6D022156
:1050A000002A08BF01210DE009EB00020221146D66
:1050B000936C002C08BF012182F8351033B1013107
:1050C00000E0002109EB000282F8351009EB000234
:1050D0000C21D2E9123482F82C100321002B08BFD6
:1050E000022182F8341024B1013109EB000282F868
:1050F000341009EB0002126D1AB14844013180F8F6
:1051000034100020BDE8104000F0FEBFD0090000C0
:105110001FB514460A460146089803900798029066
:105120000698CDE900300220234600F001F81FBDAB
:105130002DE9F04107461148884640211D46144696
:1051400001F06FFC089830650798F0640699C6E98D
:105150001045B1640999C6F8308086F82C70F16367
:105160000421002808BF0321207A084486F834006F
:105170000020BDE8F04100F0D1B800BFD009000028
:105180002DE9F04D88B017460A46DDE913A1DDE9A7
:1051900010540646BAF1000F13D0DAF80000079158
:1051A000CDE90554082818D0E0B9DAF8140028B978
:1051B000DAF8180010B9DAF8280010B19846154648
:1051C00014E0CDE90035CDE90241022031463B46ED
:1051D000FFF7AEFF08B0BDE8F08D9846154646F0E3
:1051E000800603E09846154646F04006DFF86CB0AE
:1051F0002C2109EB0B04204602F08EFE02202A46E9
:10520000A560069D3B46E760059F4146C4F81080B7
:10521000DDF81C80666009F80B00DAF82800676189
:10522000C4E9065AC4F8208020B108B0BDE8F04DAA
:1052300000F016B89AF8000010F0160F02D1DAF854
:10524000140020B108B0BDE8F04D00F015B8CDE96C
:10525000001702203146CDE90258B9E7D009000015
:1052600004480121484480F828104FF44071C1845B
:1052700001F036B8D009000004480021484480F805
:1052800028104FF40071C18401F02AB8D009000041
:10529000B0B586B0064D0D9C7D44CDE903540B9C02
:1052A00001940A9C0094FFF76BFF06B0B0BD00BFED
:1052B000E84100002DE9F845DFF85C800C46074620
:1052C00040219A46164609EB080505F12C0002F02C
:1052D00023FE04206F6585F82C000898C5E9116A43
:1052E000E8640999E9630521002808BF042185F8CD
:1052F00034105CB1204609EB080502F001FB28647C
:1053000095F83400217A084485F834000020BDE87F
:10531000F84500F003B800BFD0090000F0B58BB02D
:105320005D4E0446002001220227CDE90900CDE9A7
:10533000070009EB06039863D86C002808BFFF221A
:1053400008BF012793F9351093F834309D1EEDB254
:10535000A94206DAB9420BDA002941D08A4244D088
:1053600044E010D108A90AAA012001F085F83DE027
:1053700009EB0600456D8DB1B9420FD1099547483B
:1053800078440A9033E0581EC0B281422ED108A959
:105390000AAA0020002501F06FF828E009EB0600BA
:1053A00090F83020D20635D590F85D0090BBB94218
:1053B00005DC09EB060090F85E0008282AD10020E1
:1053C0000690CDE9040009EB060090F85C2004F09B
:1053D0000800012A01D0012943DB40F0030042E02C
:1053E00009EB0600D0E9111008910A900025002071
:1053F0000A9A08992E4EC0B20023029020467E449D
:10540000CDE900632B4600F075F80BB0BDE8F04025
:1054100002F067B8002209EB0600CF1B0DF10C0C5F
:1054200080F85D208DF80C20006C08AB07AA002DD9
:105430008DE80C1018BF013F0AAAF9B209AB00F0C1
:10544000F7FC079840B109EB060080F85F70174938
:1054500079448163012002E09DF80C004000099D21
:10546000C6E740F001000E490022794403910D493E
:1054700079440591002100910B4903AB7944FFF772
:10548000B5FB09EB060402F02CF8012084F8367015
:1054900084F85D000BB0F0BDD0090000DE300000E4
:1054A000C42D0000F22B00008111000065120000E5
:1054B0002B1300007FB505460C484021144601F02F
:1054C000B0FA0920B4632A46002386F82C00012094
:1054D00086F834000020064902907944CDE9001096
:1054E0004020002100F006F87FBD00BFD009000079
:1054F0009F0100002DE9F04D9AB0884604460CA8A3
:1055000038211D46164602F007FD0027CDE90A772F
:105510005648784402F0F4F9DFF84CB140F6B8315F
:105520000997CDE9070109EB0B0090F83400022838
:105530000BD309EB0B0191F9351029B10138032781
:10554000884208BF022700E0012709EB0B0047EA69
:10555000040290F85C101446012988BF44F002044C
:10556000816D002908BF144690F82C00062840F0F1
:10557000080118BF144609290CBF0DF11C0A4FF091
:10558000000A0A2805D109EB0B00006D08B1FFF7EE
:1055900053FC239FB6B12299B8F1000F2CD1249867
:1055A000022829D001223346012808BF02222046C2
:1055B000002D08BF2A46CDE9005202975246FFF758
:1055C000CFF943E009EB0B0090F8350003A90CAAD2
:1055D00000F0EAFB30B3017800240A2924D009291D
:1055E00035D101F032FA224979440A914179807922
:1055F0008DF82D00481C20E000200396CDF8148083
:10560000049552468DF8180009EB0B00806B284377
:1056100018BF01208DF81900009703AB2046FFF753
:10562000E5FA13E0002412E001F00FFA8DF82D40A6
:105630001049007A794401300A918DF82C005146C6
:105640003B460D480AAA7844FFF760FB044609EB85
:105650000B0090F82C000A2804BF09EB0B0004652E
:105660001AB0BDE8F08D00BFD0090000A313000000
:10567000DD12000091120000E312000041F004006E
:10568000042801D0012904D102484844806B00B1AC
:1056900000477047D00900000A4698B1012816D08B
:1056A000022819D003281CD004281FD0072822D094
:1056B000062825D0052818BF7047154800217844D2
:1056C000FFF7F8BE134801217844FFF7F3BE1248F4
:1056D00000217844FFF7EEBE104801217844FFF71F
:1056E000E9BE0F4800217844FFF7E4BE07480121D6
:1056F0007844FFF7DFBE0C4800217844FFF7DABE9C
:10570000084801217844FFF7D5BE00BF092B0000EF
:105710005D2B0000ED2B0000B92D00004C2C00008B
:10572000482D0000712B0000AB2C000070B58CB030
:105730005A4D00210446CDE90A11CDE9081109EBC3
:105740000500816390F82C00062815D005283DD16E
:1057500009EB050201210223D06C002808BFFF21BC
:1057600008BF012392F9352093423BDDD3B2002BD1
:1057700063D0914266D066E009EB050090F93510E0
:10578000006C027A91422DDA09EB0502936DCBB3DE
:1057900092F85D20B2BB09EB050292F85C20012A69
:1057A00007D8002905DC09EB050393F85E30082BC8
:1057B00028D100200790CDE9050004F00800012A57
:1057C00001D0012950DB40F003004FE009EB050058
:1057D00090F8350080B109A90BAA0020002500F03F
:1057E0004BFE31E009EB0500C16B002953D00120CD
:1057F0000CB0BDE87040084709A90BAA012000F0D1
:105800003BFE20E0002309EB0502C9B282F85D30BF
:105810008DF80F3009AB08AD0DF10F02CDE9005343
:1058200002920BAA0AAB00F003FB0898002812BFF3
:1058300001259DF80F00450006E009EB0500D0E9C1
:10584000111009910B9000250B9ADDE90913174EF1
:10585000E8B20025029020467E4401F0F9F80CB031
:10586000BDE8704001F03DBE40F001000C4900224F
:10587000794404910B4979440691002100910A4929
:1058800004AB7944FFF7B2F909EB050401F029FEF6
:10589000012084F85D000CB070BD00BFD00900008D
:1058A000BE290000EC2700007B0D00003D11000028
:1058B000BFB504460B48402101F0A2F80120224662
:1058C000002385F8340085F82C000020CDE9000085
:1058D0000290002004497944FFF70CFEBDE8BF4068
:1058E00001F0FFBDD0090000832800001FB5079C10
:1058F000029400240194069C009400F001F81FBD5E
:105900002DE9F845DFF86C800C46054640219A46A3
:10591000174609EB080606F12C0002F0FDFA09987B
:10592000032270650A9931650899C6E9117AC6E9BA
:105930000F54F164082186F82C10002F4FF003015A
:1059400018BF0421002D08BF1146002C08BF0221FA
:1059500086F8341040B10279032A05D1007A09EBA8
:105960000802084482F834000020BDE8F84500F041
:1059700003B800BFD00900007FB5334B002409EB0A
:1059800003010A6C6AB109EB0301C96B31B109EB80
:105990000301496C11B10221012504E00121002518
:1059A00001E00025002109EB0306B46396F8356099
:1059B00074B2A14208DDEEB1711EB1FA81F149095C
:1059C000294001291CD030E008D1204A09EB03010D
:1059D0007A448A638A6C1E4979440FE04A1CA242C9
:1059E00012D11C4A09EB03017A448A63CA6C1A4932
:1059F000794403E009EB0301C96B09B1002317E007
:105A000009EB03014B6C12E009EB0302526D62B12A
:105A10001379032B09D1611A6FF00703D2E903420E
:105A200003EB81015358625801E00022002300215A
:105A30000A4D002402947D44CDE90054FFF75AFD3D
:105A4000BDE87F4001F04DBDD0090000E90F000026
:105A5000BE270000E50F00002A270000AB0F000062
:105A6000F0B587B00D46064601A81821144602F08D
:105A700053FA002D28D4307A854225DA307838B3AD
:105A800014B32046382102F047FA21484844426DB9
:105A900042B3E8B201AD29469047A8B19DF8040091
:105AA0000A28207023D0032808D0042825D00728EE
:105AB00029D0082802D0092819D028B9281D211D6D
:105AC00090E86C006CC100E00024204607B0F0BDF7
:105AD0007168C5EBC50001EBC00007B0BDE8F04040
